:020000040800F2
:10300000F80B0020D530000805640008275B000895
:1030100000000000000000000000000000000000B0
:10302000000000000000000000000000CD66000865
:103030000000000000000000CF640008C167000825
:10304000E7300008E7300008E7300008E730000804
:10305000E7300008E7300008E7300008E7300008F4
:10306000E7300008793B0008E7300008E730000847
:10307000E7300008E7300008E7300008E7300008D4
:10308000E7300008AD680008E7300008E7300008C6
:10309000E7300008E7300008E7300008E7300008B4
:1030A000E7300008E7300008E7300008E7300008A4
:1030B00011700008E7300008E7300008E73000082A
:1030C0000348854600F024FC004800478D74000842
:1030D000F80B00200448804704480047FEE7FEE75D
:1030E000FEE7FEE7FEE7FEE751680008C130000892
:1030F00030B50B46014600202022012409E00D4690
:10310000D5409D4205D31D469540491B2546954017
:1031100040191546521E002DF1DC30BD10B5202A95
:1031200004DB0846203AD040002110BD0B46D340B6
:10313000D0402024A21A91400843194610BDD2B2B3
:1031400001E00270401C491EFBD270470022F6E7E6
:1031500010B513460A4604461946FFF7F0FF20460D
:1031600010BDF8B502464A40D40F42004B00520849
:103170005B089A4202D20246084611464A0023D012
:10318000C30D4A00DDB2120EAD1A202D35DA490208
:103190000126490AF6058A19002C00D05242202146
:1031A0004F1B1146B9402A411018C20D9A4221D036
:1031B000002C17D0012D08DCDA05801AD20F8019F7
:1031C000D207DBB200F00BFBF8BDDA05801A012351
:1031D00040001B06C01880185A428018CA0F1043BE
:1031E000490007E04908C2071143DA05801A80192F
:1031F0004008801800F0EBFAF8BD61000122511A76
:10320000001BF7E70122D2075140AAE70122D207AB
:103210005040A6E7024670B54A40D30FDB07400096
:103220002DD04A002AD0010E140E000212020919F4
:10323000400A520A8418E50104465443000A120A5F
:103240002E045043A4194219200CC543AA18120C8D
:103250000125AD03521C521912047F39240400D0F9
:10326000521C104301D44000491EC2B20C06C009D2
:103270002018401C4008802A02D003E0002070BDC6
:1032800040084000002900DA0020184370BD70B5E6
:1032900002464A40D50F40004A00ED074008520858
:1032A000002814D0002A12D0C40DD30D41020120F1
:1032B000C0055202490A520AE41A091812187D344C
:1032C000914201D3641C00E04900002C01DA002087
:1032D00070BD0023914201D3891A0343400849007D
:1032E0000028F7D100290AD0914202D10121C90753
:1032F00005E0914201D2012101E00121C943E0052D
:10330000C018401900F063FA70BD0000F0B5074620
:103310000846584087B0C00F049048000E46590038
:1033200040084908BC1A884105D2384631461E4635
:1033300017460B4602465800400810434CD0300D4B
:10334000039040055900400D490D0590401A029028
:10335000402872DA18030121000B09050843019087
:1033600004980092002805D001995242002088411B
:1033700000920190029840210A1A0199009800F0E9
:1033800003FA05460C466B4607CB00F00DFAC01950
:103390007141039A0E0D0023D71756401A467A4002
:1033A000164344D0049A002A2DD0029A012A039A87
:1033B00015DC1205C01A914101263605001C714129
:1033C000D20F059ED2070093019202962A46234609
:1033D00000F04BFA07B0F0BD38463146FAE7160563
:1033E000224A0F46B218C01AB74101210905001C34
:1033F0004F4100187F41114618187941E20F1043E0
:103400006D19644113E0E2076D0815436408C207B3
:103410001443039A01261205C01A91413605001C77
:103420007141CE07400830434908C01851412A462F
:10343000234600F00DFACDE7FFE704980122400093
:10344000C117121A00238B4104983146C417381A49
:10345000A141EEE730B40124E407634030BC55E7F6
:1034600030B40124E407614030BC4FE70000E0FFC6
:10347000F0B51FB488B00B99099800244840099909
:10348000C00F490049080991C0070B9900904900F5
:1034900049080B9109990898A64608431CD00B9936
:1034A0000A98084318D0099801244000420D4800AA
:1034B000410D099824050003000B204309900B9847
:1034C0000003000B20430B9050181C4940180022A9
:1034D00001901446104605E0002001460DB0F0BDF5
:1034E000032801DA034600E003239C46C11A0AAE12
:1034F0000AE05F0008ADED5B4F00F75B7D430027FE
:10350000AA187C41491C5B1E6145F2DD410004ABF9
:103510005A522104120C0A43240C401C0828DFDBF9
:10352000019802900099704601910090059B049AC1
:103530000799069800F099F9D0E700000DFCFFFF0D
:10354000F0B50C465C4085B0E40FE40703944C00F2
:103550000026640859009446490802460296224310
:1035600021D062460A431ED06200570D4A000E0366
:103570002303550D012402462C492405781B1B0BFF
:10358000360B401823432643614600901C46501AD0
:10359000B44103D30098401C009002E092180098B8
:1035A0005B41002803DA0020014605B0F0BD002091
:1035B000012109050746864611E064461D46141B95
:1035C000B54106D36546521BB341744607430C43CD
:1035D000A646CD0740084908284392185B41054696
:1035E0000D43EAD11046184313D0604619465040A7
:1035F0007140084306D06046101AB34106D201223A
:10360000002306E000220123DB0702E00122D2436F
:103610005310009874460105381C6141029C039DBB
:103620000019694100F014F9BFE70000FD03000034
:1036300070B54B005B0803430BD04B005C0D0026BC
:1036400033466542B341D417AD1AA34102DB0020D3
:10365000014670BD12053018514170BDC217C10F2F
:10366000504010B54018CA079623002100F0B7F863
:1036700010BD10B500229623114600F0B0F810BD21
:103680000EB505490291002100910A460B460191B1
:1036900000F0EBF803B000BD33040000410040022D
:1036A0000122400AD205090E80187F2901DA002084
:1036B0007047962903DC9622511AC8407047963904
:1036C00088407047C20FD207400040080BD0C10DA0
:1036D0000723DB01C91840020905400A1143C2084B
:1036E00040071143704700200146704710B500297C
:1036F00004DB0124E40740428C412146002B04DB1B
:103700001C460123DB075242A3418B4200D1824277
:1037100010BD000010B5002904DB0124E40740427D
:103720008C412146002B04DB1C460123DB0752425F
:10373000A341994200D1904210BD0000CB0FDB079E
:10374000490010B5490802460A4307D00A0D07246C
:103750000903E401090B121B002A01DC002010BD43
:10376000C900440F0C43C100E018D205801800F0D6
:103770002EF810BD0122D207002800DB101A002904
:1037800000DB511A8142704710B5202A04DB014644
:10379000203A9140002010BD914020239C1A0346FE
:1037A000E3401943904010BD10B5202A06DBCB172B
:1037B0000846203A1041C1170B4306E00B4613415F
:1037C000D0402024A21A91400843194610BD002978
:1037D00004DA401C490001D140084000704770B431
:1037E0000024050C05D11024000402D1002921D0A9
:1037F0001124050E01D100020834050F01D100018A
:10380000241D850F01D18000A41C002801DB40008D
:10381000641C002908D020252E1B0D46F540A14030
:1038200000D001212943084301061B1B000ADB1DB0
:1038300002D5002070BC7047DB05181880180029DD
:10384000F8DA401C4900F5D170BC400840007047D0
:1038500010B5002B08DA0024401C614192185B412E
:103860001A4301D14008400010BDF0B51FB482B02A
:1038700005460C0003D0084603F059FD02E003F0B2
:1038800056FD20300246009021462846FFF77CFF77
:10389000049B059A04460F4618431143084314D06D
:1038A000184610431BD0009840210A1A1846059963
:1038B000FFF734FC05460E46009A05990498FFF779
:1038C00063FF084305D0012004E02046394607B0D5
:1038D000F0BD0020C11705430E432C433743009928
:1038E0000E986305401A7905E40A00220C43FD0A8C
:1038F0000A3002D500200146E9E7010510196941A7
:103900000C9C0D9D00196941FFF7A2FFDFE7000045
:10391000064C0125064E05E0E36807CC2B430C3C22
:1039200098471034B442F7D3FFF7CEFB5C8D000804
:103930008C8D000810B50146406A426C50231A4233
:103940000AD1416C01225202114341640168CA68E4
:103950001205920F05D020E0C06B026B084690471D
:1039600010BD026A002A18D10A68120715D58A68A4
:1039700053070122002B09DB4B680C24A3434B6047
:10398000416C130299431143416406E0416C2023CA
:1039900019434164816C1143816400F025FB10BD23
:1039A00010B5406A416C402211434164816C04228D
:1039B0001143816400F01AFB10BD10B5406A00F09D
:1039C00014FB10BDF8B50446002000902068816803
:1039D0008907890F012905D10168C9072CD1C16860
:1039E000090429D48168154A1026114001250029AF
:1039F00015D1816829438160124811490068FFF799
:103A000077FB00E0401E00900028FBD100F0E0FDB5
:103A100007460CE000F0DCFDC01B022807D9606CF3
:103A200030436064A06C2843A0640120F8BD206886
:103A30000068C043C007EDD10020F8BD170000802A
:103A400040420F00C4000020F8B500F0CDF9002876
:103A500072D1414C00262078012802D002281ED1C4
:103A60006BE03E4D01210022C902284600F0A9FD6D
:103A700000220821284600F0A4FD0021022002F0C7
:103A800027FE01220920D103C00600F09AFD6078CC
:103A9000401CC0B2607001284ED902202070042062
:103AA00000F0E4F8FFF7ECFD2E4F2D4A3B46FFF700
:103AB000DFFC0B22D243FFF7BBFD0222FFF7B8FD6C
:103AC000FFF73CFE0546012000F0D0F8FFF7D8FDD7
:103AD000234A3B46FFF7CCFC0B22D243FFF7A8FD5D
:103AE0000222FFF7A5FDFFF729FE2946FFF78AFB13
:103AF0001D49FFF7CCFB01462846FFF7C8FBFFF73F
:103B0000E1FD1A4A1A4BFFF7A5FCFFF717FE054621
:103B1000012109200022C903C00600F052FD15480A
:103B2000854214DC284602F0FFFDA078002803D06F
:103B3000A670284602F024FEF8BD6078401CC0B292
:103B400060701428F8D9012020706670F8BD00203C
:103B500002F0EAFDF8BD00009801002000040048D2
:103B60006666666666660A4000002041FCA9F1D2DE
:103B70004D62603F0000C84210B5024800F0B2FB41
:103B800010BD0000A403002010B5044600680549DC
:103B900040181421FFF7ACFA800020640248E0636B
:103BA00010BD0000F8FFFDBF0000024030B5056CFD
:103BB0000124AC40C56B6C60046863604368102BE3
:103BC000036803D099600068C26030BD9A600068E5
:103BD000C16030BDFFB5074681B01D46032003F02C
:103BE000C3FC040036D064212846FFF781FAC6B230
:103BF00026700A212846FFF77BFA0D460A21FFF7B7
:103C000077FA6170A5700398002825D00825304602
:103C1000124E039A335C3846029902F017FC7F1962
:103C2000F8B20FA2029902F00FFA60787F19335CA4
:103C3000781EC0B2039A029902F008FCA078039A99
:103C4000335C7819401EC0B2029902F0FFFB204697
:103C500003F094FB05B0F0BD0625D8E7148D0008ED
:103C60002E0000004168026808461047024610B561
:103C70000020084B01468C000C19A41864001C5B42
:103C8000491C201889B20A29F5D30A21FFF730FA16
:103C900080B210BD400300200148806870470000DA
:103CA00018010020F3B581B000242546029901983F
:103CB000FFF7EDFA204E0746A0008019416838460C
:103CC000FFF758FD03D3641CE4B2092CF4D30A2C8B
:103CD00030D21948610028300A185288455A501BC2
:103CE000FFF7BCFC1449A700CE593146FFF792FA02
:103CF00004461148314638184068FFF783FA2146D8
:103D0000FFF7C5FA04462846FFF7B3FC05463146DF
:103D10000298FFF77FFA01460198FFF7B8FA7F2172
:103D2000C905FFF76FFA2146FFF7B1FA2946FFF7F9
:103D300018FA05462846FEBD208D000808B500206B
:103D400000900321684602F0B3FC68460078000743
:103D5000010D684640780843FFF792FC074A084B7C
:103D6000FFF786FB0022074BFFF782FB0022D243BE
:103D7000FFF75EFCFFF7E2FC08BD0000FCA9F1D2F2
:103D80004D62503F0000084010B512498A68002A71
:103D90001DD00A68104B9400E418521C0A60226877
:103DA00002600A689400E318521C0A601A684260B4
:103DB00008684006400E0860EFF3108072B68A680B
:103DC000521E8A6080F310880020C04310BD00207E
:103DD00010BD0000C8000020E80300200148407822
:103DE000704700001801002001480078704700006B
:103DF0001801002001484088704700001801002089
:103E0000014880887047000018010020F8B5054679
:103E10000446403528780026012808D00120287063
:103E2000206881688907890F012908D101E00220F3
:103E3000F8BD0168C90738D1C168090435D4616C7F
:103E4000FF2201329143022211436164C168890754
:103E5000890F0091C16889088900C1602068816864
:103E600092071143816000F0B3FB07460EE000F0BB
:103E7000AFFBC01B022809D9606C022188431021C6
:103E800008436064002028700120F8BD2068806825
:103E90000028ECDB2068C168009A1143C160606CA7
:103EA00080088000401C606404E0606C20210843AE
:103EB00060640126002028703046F8BDF8B5002562
:103EC0000446403400952278012A3BD0012222701A
:103ED00003689E68760776D43F4F4E68BE4254D042
:103EE0009E6A0F78BA4016439E620123826B1B07BD
:103EF0009A421FD0012A1DD0022A1BD0032A19D0B2
:103F0000042A17D0052A15D0062A13D0072A11D063
:103F100002688B6856697607760FB3420AD05369F8
:103F2000DB08DB005361006842690B7A5B075B0FBB
:103F30001A4342610868102806D0112804D01228BC
:103F400002D045E00220F8BD244A9368102809D029
:103F500011280AD001200006034393600868102846
:103F600006D035E00120C005F6E701208005F3E723
:103F70001C481B490068FFF7BBF80A21484300E0D2
:103F8000401E00900028FBD122E0986A0E78B240D3
:103F9000904398620868102803D0112801D0122895
:103FA00016D10E498A68102807D0112808D00120A0
:103FB000000682438A600BE005E00120C005F8E7B7
:103FC00001208005F5E7416C202211434164012561
:103FD000002020702846F8BD011000000027014095
:103FE00040420F00C4000020704770477047000037
:103FF000F8B500250446002803D0606C002802D0E4
:1040000008E00120F8BD0020A064402108552046AA
:1040100000F0A8F8606C1022C006002870DB206851
:10402000816849076CD4616C1301994302231943D9
:10403000616481688907890F012905D10168C90771
:104040000FD1C16809040CD4C16818239943A3682F
:104050001943C160206801696368890089081943B0
:1040600001612068C1683D4B1940C160A069E169E8
:104070008003C9030843216A4B031843636B012B78
:1040800002D001231B0300E000231843E368184318
:104090002369022B09D000231843236B666A5B0057
:1040A00018430123012E02D00AE00423F4E700297B
:1040B00027D0616C202631436164A16C1943A1644F
:1040C000A16A0E46FF3EC23E02D0E66A3143084373
:1040D0002168CE680643CE600126A16B3607B14247
:1040E00013D0012911D002290FD003290DD00429A2
:1040F0000BD0052909D0062907D0072905D010E0E3
:1041000028E0012109040843DAE721684E69F6082E
:10411000F6004E6121684E69278F7F077F0F3E436F
:104120004E612168C9680E4E3140814207D100209E
:10413000A064606C80088000401C606408E0606CD3
:104140000221884310436064A06C1843A0640125D9
:104150002846F8BD606C10436064F8E71902FEFF62
:10416000E7FF3F8370B505460068194986B088426D
:104170002BD11848826941150A4382618069002663
:1041800008400590732000900320019009206946A3
:104190000296C00600F064F90F48104C41C480201C
:1041A000266060604000A0608000E06020206661C2
:1041B00020610A48083C00F0E3F8002803D06D2194
:1041C00007A003F0B3F8EC63656206B070BD0000B1
:1041D000002401400010024008000240A403002017
:1041E0002E2E2F5372632F73746D333266307878AE
:1041F0005F68616C5F6D73702E630000F7B50446F5
:1042000000680025806840073DD426464036307857
:1042100001280AD001273770E069012807D020461D
:10422000FFF7D0FB050002D02EE00220FEBD606C3F
:1042300016490840FF210131084360640020A06452
:104240003070E16B12488862E16B1248C862E16B22
:104250001148086321681C2008602068416810220A
:10426000114341602068C1683943C1602168E06B37
:104270004031029B019A00F0AFF820688168042267
:104280001143816000E002252846FEBDFEF1FFFFDC
:1042900035390008BB390008A139000870B5002481
:1042A000014620314A78022A03D004218163012487
:1042B00016E0026813680E25AB43136002681368AA
:1042C0005B085B0013600122056C1346AB40C56BB5
:1042D0006B604A7000220A70416B002900D0884749
:1042E000204670BDF0B4C16B0D6801680C680422F3
:1042F000066C1346B3402B420DD063070BD50B68F9
:104300009B0602D40B6893430B60016C8A40C16B1F
:104310004A60C16A19E00227B74002462F400123D4
:104320002032002F15D0A70713D50C68A40604D49B
:104330000C680A25AC430C605370036C0221994051
:10434000C36B596000211170816A002916D0F0BC3E
:1043500008470827B7402F4210D024070ED50C6815
:104360000E25AC430C60046C1946A140C46B61601F
:104370008363537000211170016BE6E7F0BC704756
:1043800070B5040024D00220214620310D4648702B
:10439000226811680F48A3680140606826691843C5
:1043A000E3683343184363691843A3691843E36917
:1043B0001843084310602046FFF7E6FB0020A06288
:1043C000E06220636063A06301216970287070BDA2
:1043D000012070BD0FC0FFFFF8B504468C462030A9
:1043E00001780025012909D00126067041780027AF
:1043F000012905D0077002252846F8BD0220F8BD26
:1044000002214170A76320680168490849000160E2
:1044100061462046FFF7CAFBE06A00282068016871
:1044200002D00E22114306E00A22114301602068E7
:1044300001680422914301602068016831430160F2
:10444000DAE731B500F0C4F8009C0546601C00D0E6
:10445000641C00F0BDF8401BA042FAD338BD000038
:10446000F8B5002393E0224601249C40A446224054
:104470007ED04C68022C01D0122C0CD1DC08A40098
:1044800027183C6A5D07ED0E0F26AE40B4430E6957
:10449000AE4026433E6205685E000324B4400F79B7
:1044A000A543BF07BF0FB7402F4307604D68012DDD
:1044B00005D0022D03D0112D01D0122D0ED185680B
:1044C000CF68A543B7402F43876047686546AF4331
:1044D0000D79ED06ED0F9D403D434560C568A54350
:1044E0008C68B4402C43C4604C68E4004ED52B4C1F
:1044F000A56901263543A561A4699D08344000944F
:10450000274CAD002F19BC689D072E0F0F25B54015
:10451000AC430925ED06A84201D1002514E0214D48
:10452000A84201D101250FE01F4DA84201D102256B
:104530000AE01E4DA84201D1032505E01C4DA8420A
:1045400001D1042500E00525B5402543BD60194C87
:1045500025684E689543F60300D5154325606568C8
:104560004E689543B60300D515436560A56800E025
:104570000CE04E689543F60200D51543A560E5684A
:104580004E689543B60200D51543E5605B1C0A688A
:104590001446DA4000D066E7F8BD00000010024083
:1045A000000001400004004800080048000C0048DA
:1045B00000100048000401400069084000D00120BC
:1045C0007047002A01D08161704781627047000006
:1045D0000148006870470000AC01002070B5024639
:1045E00040325378202B1CD11378012B19D0012392
:1045F000137024245470046825689D432560046862
:1046000025681E03B5432560046825680D432560B1
:10461000006801681943016020205070002010706C
:1046200070BD022070BD70B5024640325378202B19
:104630001BD11378012B18D001241470242353703C
:1046400003681D68A5431D6005682B680F263602A8
:10465000B3430902194329600068016821430160DE
:10466000202050700020107070BD022070BD00002E
:1046700070B5040006D0254640356878002600282D
:1046800002D005E0012070BD2E70204600F00CFA2B
:1046900024206870206801684908490001600F21E2
:1046A0006068090688432168086121688A680120DA
:1046B000C00382438A60E1680129A16808D02122F1
:1046C0009202114322689160E168022902D005E05C
:1046D0000143F7E701212268C902516021684A6855
:1046E0000F4B1A434A602168CA688243CA606169F5
:1046F00020690843A169090208432168C860216A4A
:10470000E0690843216808602068016801221143BC
:1047100001606664202068702663AE70002070BD62
:1047200000800002FFB5054604464035687881B038
:1047300020287ED1287801287BD001202870FFF71F
:1047400047FF0746012200901923D103204601F0BC
:104750007FFA00283FD1222068701020A870002620
:10476000666403986062049860856663618D0920C1
:104770008002FF2903D9FF222285009034E0618D59
:104780002185009036E02046029901F04FFA36E08C
:1047900001F082FA002803D0606C042847D01AE0A8
:1047A0002068416A606A421C62620170208D401E6E
:1047B00080B22085618D491E618500281FD1608DE2
:1047C00000281CD000970022802120460A9B01F07F
:1047D0003FFA002802D0032005B0F0BD608DFF280D
:1047E00005D9FF222285009601231B06CBE7608DA9
:1047F00020850096208D0123C2B25B06C3E7608D41
:104800000A9900283A462046C2D101F081FA0028D0
:10481000C2D121682020C86121684A68064B1A402D
:104820004A606870AE702E700020D5E701E001206C
:10483000D2E70220D0E7000000E800FEFFB5054601
:1048400004464035687881B020287ED12878012838
:104850007BD001202870FFF7BBFE074601220090A5
:104860001923D103204601F0F3F900283FD121207C
:1048700068701020A870002666640398606204982F
:1048800060856663618D01204003FF2903D9FF2203
:104890002285009034E0618D2185009036E020462D
:1048A000029901F0C3F936E001F059FA002803D06B
:1048B000606C042847D01AE0606A411C616201788C
:1048C00020688162608D401E6085208D401E00043E
:1048D000000C20851FD1608D00281CD0009700227D
:1048E000802120460A9B01F0B3F9002802D0032062
:1048F00005B0F0BD608DFF2805D9FF222285009606
:1049000001231B06CBE7608D20850096208D0123B7
:10491000C2B25B06C3E7608D0A9900283A4620467A
:10492000C2D101F0F5F90028C2D121682020C86168
:1049300021684A68064B1A404A606870AE702E7053
:104940000020D5E701E00120D2E70220D0E70000F7
:1049500000E800FEFFB5054604464035687883B0A0
:10496000202876D10C98002874D00D98002871D09A
:10497000287801286DD001202870FFF729FE07460E
:10498000012200901923D103204601F061F900288B
:1049900053D1212068704020A870002666640C98CE
:1049A00060620D98608566630E980090019704A977
:1049B0000EC9204601F004F9002804D0606C2E7066
:1049C00004286AD039E0608DFF2805D9FF222285AE
:1049D00001231B06009606E0608D20850096208D41
:1049E0000123C2B25B062046049901F01FF93A4642
:1049F00020460E9901F0B3F9002803D0606C04281A
:104A00004BD01AE0606A411C6162216800788862BC
:104A1000608D401E6085208D401E0004000C2085A6
:104A200024D1608D002821D00097002280212046CB
:104A30000E9B01F00DF9002802D0032007B0F0BD55
:104A4000608DFF2807D9FF22228501231B060096CF
:104A500008E024E021E0608D20850096208D012370
:104A6000C2B25B062046049901F0E0F8608D002890
:104A7000BDD13A4620460E9901F04AF90028BDD131
:104A800020682021C16120684268064B1A404260BC
:104A90006970AE702E700020D0E70120CEE70220B2
:104AA000CCE7000000E800FE00B500680D4987B0C3
:104AB000884215D1C02000901220012101900320CE
:104AC00002910491039069460748FFF7C9FC074823
:104AD000C269012149050A43C261C06908400590C5
:104AE00007B000BD00540040000400480010024020
:104AF00002480168491C016070470000AC010020B9
:104B000010B506480168102211430160002000F032
:104B100007F800F017F8002010BD00000020024048
:104B200010B5044600F072F97D21C900FEF7E0FAE5
:104B300000F0C2FB00222146501E00F029F80020A0
:104B400010BD000008B50C48816901221143816144
:104B500080691040002200901146501F00F018F8A4
:104B600000221146901E00F013F800221146501E3C
:104B700000F00EF808BD000000100240C106C90E8A
:104B800001208840014908607047000000E100E012
:104B900010B501F039FC10BDF8B504460068434D6E
:104BA000C00352D5E8690026C00007D4E96928048B
:104BB0000143E961E9690140012600913C4801682F
:104BC000C90510D40168821511430160FFF700FD8B
:104BD000074604E0FFF7FCFCC01B642824D83448D7
:104BE0000068C005F6D5286A03273F02384020D068
:104BF0006168394081421CD0286A2A6AB843012181
:104C000009040A432A622A6A8A432A622862C00780
:104C10000FD0FFF7DDFC009008E0FFF7D9FC00990A
:104C2000411A2448814201D90320F8BD286A80072F
:104C3000F3D5286A6168B84308432862002E04D07F
:104C4000E869012109078843E8612078C00705D099
:104C5000286BA168800880000843286320788007BB
:104C600006D5286B032109048843E16808432863BB
:104C70002078800605D5286B1021884321690843D8
:104C800028632068800305D5286B80218843A169AB
:104C9000084328632088400505D5286B40218843B8
:104CA0006169084328630020F8BD0000001002403D
:104CB0000070004088130000F8B505464E480E46C7
:104CC0000068C007C00FB0420AD24B4801684908CB
:104CD0004900314301600068C007C00FB04270D185
:104CE0002878464C800705D56068F0218843A9687C
:104CF000084360602878C00753D06868012817D03F
:104D0000022818D0032819D021688907002958DA09
:104D100061688908890001436160FFF759FC69688F
:104D20000746012913D002291DD0032927D034E0DA
:104D300021688903EAE721688901E7E7616BC90314
:104D4000E4E7FFF745FCC11B2D48814223D860688A
:104D50000007800F0128F4D123E0FFF739FCC11BC5
:104D60002748814217D860680007800F0228F4D1D5
:104D700017E0FFF72DFCC11B214881420BD860686A
:104D80000007800F0328F4D10BE0FFF721FCC11BC3
:104D90001B48814201D90320F8BD60680007800FDD
:104DA000F3D115480168C907C90FB1420BD9016891
:104DB00049084900314301600068C007C00FB04294
:104DC00001D00120F8BD2878400706D5606807218A
:104DD00009028843E9680843606000F02DF86168C3
:104DE000084A0906090F515CC840074908600020BD
:104DF000FFF796FE0020F8BD0020024000100240A0
:104E000088130000D4750008C40000200148006821
:104E100070470000C4000020044805490068496844
:104E2000044A4905490F515CC8407047C40000203E
:104E300000100240E475000830B516A30FCB89B00E
:104E40006C460FC417A30FCB0FC41A494A680C2035
:104E5000144604401848042C05D0184B082C04D0E4
:104E60000C2C00D1184609B030BD9402240F6D46B9
:104E70002C5DC96A04AD0907090FD203695C920F62
:104E8000022A02D0032A00D11846FEF731F9604306
:104E9000E9E7000002030405060708090A0B0C0DE8
:104EA0000E0F10100102030405060708090A0B0C77
:104EB0000D0E0F100010024000127A00006CDC0290
:104EC000FEB504460078F04EF04DC00748D0686843
:104ED0000007800F01281FD068680007800F022894
:104EE00004D16868C003800F022815D061680129C9
:104EF00019D001208004002901D0052917D0296884
:104F0000B1432960296881432960606800281BD06B
:104F1000FFF75EFB074613E02868800320D5606832
:104F2000002876D01CE0286830432860EDE7296827
:104F300001432960F7E7FFF74BFBC01B642869D8E2
:104F400028688003F7D50BE0FFF742FB074604E033
:104F5000FFF73EFBC01B6428F1D828688003F7D414
:104F6000207880073ED568680007800F14D06868F5
:104F70000007800F022804D16868C003800F012851
:104F80000AD0E068002828681DD001210843286065
:104F9000FFF71EFB07460BE0286880070BD5E0688B
:104FA000012836D107E0FFF713FBC01B0228C6D843
:104FB00028688007F7D52868F82188432169C90047
:104FC000084328600EE0400840002860FFF700FB1F
:104FD000074604E0FFF7FCFAC01B0228AFD8286898
:104FE0008007F7D42078000724D5E0690028686A94
:104FF00011D0012108436862FFF7EAFA074604E08E
:10500000FFF7E6FAC01B022899D8686A8007F7D52F
:1050100010E036E1D1E0400840006862FFF7D8FABE
:10502000074604E0FFF7D4FAC01B022887D8686A55
:105030008007F7D4207804274007002861DA002091
:105040000190E869C00008D4E969B8060143E96144
:10505000E96901400120009101908D480168C9056E
:1050600011D40168821511430160FFF7B1FA009075
:1050700005E0FFF7ADFA0099401A642897D88448F4
:105080000068C005F5D5A06801280AD0002801D025
:10509000052811D0286A400840002862286AB843D1
:1050A00002E0286A012108432862A068002812D083
:1050B000FFF78EFA00900AE0286A38432862F0E78A
:1050C000FFF786FA0099411A7248814275D8286A1A
:1050D0008007F5D50DE0FFF77BFA009006E0FFF7BB
:1050E00077FA0099411A6B48814266D8286A80078E
:1050F000F5D40198002804D0E96901200007814314
:10510000E9612078C00635D5606901280CD0401DC2
:10511000686B24D038436863686B4008400068635C
:10512000FFF756FA074622E0686B38436863686BFE
:10513000012108436863FFF74BFA074604E0FFF7D5
:1051400047FAC01B022838D8686B8007F7D5686B10
:10515000F8218843A169C900084368630AE0B8439D
:105160006863F4E7FFF734FAC01B022825D8686BA0
:105170008007F7D42078800637D568680007800F4D
:10518000032813D068680007800F022804D16868DC
:10519000C003800F032809D0206A0028686B16D04E
:1051A00030436863FFF714FA06460CE0686BC003EF
:1051B0001BD5206A012864D117E05BE0FFF708FAED
:1051C000801B022856D8686BC003F7D50DE0B043AA
:1051D0006863FFF7FDF9064604E0FFF7F9F9801B65
:1051E000022847D8686BC003F7D4606A002846D00D
:1051F00069680907890F022943D00126360602286B
:10520000286805D0B0432860FFF7E2F9044633E090
:10521000B0432860FFF7DCF9074604E0FFF7D8F950
:10522000C01B022826D828688001F7D4E86A216BC1
:10523000000900010843E862A16AE06A084369685E
:105240007B22D2039143084368602868304328607A
:10525000FFF7BEF9044604E0FFF7BAF9001B022885
:1052600008D828688001F7D509E0FFF7B1F9001BDD
:10527000022801D90320FEBD28688001F5D4002052
:10528000FEBD0120FEBD0000000001000010024034
:1052900000700040881300000422044904280869B3
:1052A00002D09043086170471043FBE700E000E044
:1052B00010B501F0FFFE10BD094910B5401E88422F
:1052C00001D9012010BD074C60610321081F01F0C6
:1052D0009BF80020A06107202061002010BD000085
:1052E000FFFFFF0000E000E010B5FFF7E1FF10BD99
:1052F0007047704770B5034620331A7F012A27D0C4
:1053000001241C7702225A770326CA683602B24368
:105310008E6800253243A602B2434E6800683243CD
:10532000E602B2430E6832432603B2430E693243AB
:105330006603B2434E6989693243A603B2430A4306
:10534000E603B2430A4342645C771D77002070BDD8
:10535000022070BD70B502462032137F012B1BD096
:105360000123137702245477046865687026B543D7
:105370006560046865680E68354365600468A56803
:105380008026B543A5600068846849680C43846042
:1053900053770020107770BD022070BD10B5044611
:1053A0000068042201F0DFFA2068416C0122D20378
:1053B000114341642068016801221143016000200B
:1053C00010BD70B5040005D025462035687F002843
:1053D00002D006E0012070BD00202877204600F0B2
:1053E0000BF802206877211D206801F067FA012080
:1053F0006877002070BD000008B5104A01681048A9
:10540000914207D18269C1140A43826180690840D0
:10541000009008BD0B4A9142FBD1C26910210A439A
:10542000C261C06900220840009002211120FFF7EC
:10543000AFFB1120FFF7A2FB08BD0000002C0140CC
:1054400000100240001000400268D36801210B43A5
:10545000D360006802680A43026000207047F8B514
:10546000054604462035287F012817D001272F77CD
:1054700002206877226890687726FF23B0431B02DA
:10548000984390600868502837D00EDC202857D009
:1054900006DC00284ED0102840D14EE00220F8BD96
:1054A000302850D0402839D13CE060282DD07028D9
:1054B00017D001221203801A0ED090422ED1CB6851
:1054C0004A688968206801F059FA206881680122D9
:1054D00092031143816021E020688168C908C900F6
:1054E000F8E7CB684A688968206801F047FA2168C4
:1054F0008868B0433043886010E0CA684968206813
:1055000001F04CFB5021206806E0CA684968206819
:1055100001F055FB6021206801F03BFA6F77002015
:105520002877F8BDCA684968206801F037FB402138
:105530002068F1E700212068EEE710212068EBE702
:1055400020212068E8E730212068E5E7704770B542
:105550000446006801690025C9438907002915DB55
:10556000C168C943890711D4E91E01610120207770
:10557000206880698007204602D0FFF7E7FF04E03B
:1055800000F0B8F8204600F039F925772068016965
:10559000C943490717D4C168C943490713D4042133
:1055A000C943016102202077206880698005800F4F
:1055B000204602D0FFF7CAFF04E000F09BF8204627
:1055C00000F01CF9257720680169C943090716D442
:1055D000C168C943090712D40821C94301610420E5
:1055E00020772068C0698007204602D0FFF7AEFF11
:1055F00004E000F07FF8204600F000F925772068ED
:105600000169C943C90617D4C168C943C90613D47F
:105610001021C9430161082020772068C0698005F6
:10562000800F204602D0FFF791FF04E000F062F8FF
:10563000204600F0E3F8257720680169C943C907CF
:1056400008D1C168C943C90704D1891E0161204638
:1056500000F0FEF820680169C943090609D4C16851
:10566000C943090605D48021C94301612046FFF7DB
:105670003FFE20680169C943490609D4C168C9438E
:10568000490605D44021C9430161204600F0E1F8F4
:1056900020680169C943890609D4C168C9438906DC
:1056A00005D42021C94301612046FFF722FE70BDC9
:1056B00030B500680D4985B0884215D10720C0017A
:1056C00002240025694631C109206946C0060395B8
:1056D0000494FEF7C5FE0120694631C169460448BD
:1056E00003950494FEF7BCFE05B030BD002C0140CC
:1056F000000400487047F8B5064604462036307F5F
:105700000D4601280DD00120307702207077042744
:10571000002A08D0042A16D0082A2AD00C2A4DD1F3
:1057200037E00220F8BD206801F03CF9206881696B
:1057300008221143816120688169B9438161206831
:1057400081692A6912E0206801F070F92068826995
:105750000121C9020A438261206881690122920203
:1057600091438161206881692A6912021143816134
:1057700024E0206801F09AF92068C26908210A43F0
:10578000C2612068C169B943C1612068C1692A69E1
:1057900012E0206801F0CCF92068C1690122D20230
:1057A0001143C1612068C269012189028A43C26133
:1057B0002068C1692A6912021143C1610120707712
:1057C00000203077F8BD70B5040005D0254620359F
:1057D000687F002802D006E0012070BD00202877F5
:1057E000204600F00AF802206877211D206801F0A9
:1057F00065F801206877002070BD70477047000091
:1058000010B504460068012201F0A2F80C48216896
:10581000814208D00B48814205D00B48814202D01A
:105820000A48814204D1486C0122D20310434864E3
:1058300020680168012211430160002010BD0000B2
:10584000002C01400040014000440140004801405C
:105850007047704770477047F8B503680446D869C9
:10586000196805072D0F07D1820605D58A0603D5CD
:10587000204601F07DFAF8BD9A68002D64D0D50766
:10588000ED0FFF2621360E402E435DD0C60706D011
:10589000CE0504D501261E62E36E3343E366870717
:1058A00002230426002F06DAD70704D027683B62BC
:1058B000E76E3743E766470706D5D20704D022686C
:1058C0001662E26E1A43E266020709D520220A40F8
:1058D0002A4305D0236808221A62E36E1343E36665
:1058E000E26E002AC7D0800604D5880602D520467D
:1058F00001F03EFAE06E000703D42068806840069D
:105900001CD5204601F018FA20688168490611D597
:105910008168402291438160606E00280AD01A4954
:105920004163606EFEF7BAFC0028A4D0606E416B44
:105930008847F8BD2046FFF78EFFF8BD2046FFF7E9
:105940008AFF0020E066F8BDC5020DD552020BD5D6
:1059500001200005186220212046603041728172CA
:105960002046FFF777FFF8BD020605D50A0603D5E6
:10597000204601F0E9FAF8BD4006FCD54806FAD504
:10598000204601F0E8F9F8BD256D000870B5040067
:1059900005D025466035687A002802D006E001204F
:1059A00070BD00202872204600F026F8242068727E
:1059B00020680168490849000160204601F016FA94
:1059C0000128EDD0606A002802D0204601F00AF9D3
:1059D000206841680922D2029143416020688168B1
:1059E0002A229143816020680168012211430160ED
:1059F000204601F05DF970BD00B50068124987B01E
:105A000088421ED11148C269012149040A43C2617A
:105A1000C069084005900C200090022001900121EF
:105A2000032003900291049109206946C006FEF705
:105A300017FD002203211C20FFF7AAF81C20FFF706
:105A40009DF807B000BD0000004400400010024077
:105A5000F0B5034660339C7A202C44D100290BD04A
:105A6000002A09D0012584682D03AC4206D10669BD
:105A7000002E03D1CE0701D00120F0BD1E7A012EE9
:105A800031D001261E724165014640310A834A83A6
:105A9000FF27AC4204D10269002A12D1134A0EE05A
:105AA0007F22002C08D001252D07AC420AD10469C1
:105AB000002C04D03F2202E00469002C01D08A832C
:105AC00000E08F830021C16622229A721972016858
:105AD0008A6832438A6000680168FF2221321143DC
:105AE00001600020F0BD0220F0BD0000FF010000B9
:105AF00010B50A4A1178102907D2D11C0B781178F9
:105B0000074C6418491C117023700521517003491A
:105B10000122C91CFFF79CFF10BD000010010020EE
:105B2000E80500207047FEE701688A69D2439207C2
:105B300001D400228A6200688169C943C90703D081
:105B4000816901221143816170470000F7B5044665
:105B500000680E468069C043C0062CD42027254625
:105B6000403520688069C04380060FD5701CF8D08E
:105B7000002E05D0FEF72CFD0299401AB042F0D954
:105B80006F700020A87028700320FEBD21681020CF
:105B9000C8612068C7612046FFF7C6FF20684168DA
:105BA000064A11404160042060646F700020A870B4
:105BB00028700120FEBD0020FEBD000000E800FEB0
:105BC000F8B504460120164640031D46DAB2C3026A
:105BD0000090079F204600F029F83A462046069993
:105BE00000F0BDF8002803D0606C04281BD018E03A
:105BF0002846F5B2012809D02168300A88623A4661
:105C00002046069900F0ABF80028EDD120688562A7
:105C10000097002280212046069B00F019F80028FA
:105C200000D00320F8BD0120F8BD000070B5056864
:105C3000049C68688905890D1204044E11431943B8
:105C4000304021430143696070BD0000009800FCB2
:105C5000F8B51C4617460E46054611E0601C0FD0ED
:105C6000002C05D0FEF7B4FC0699401AA04207D9D3
:105C70002020403568700020A87028700320F8BDEF
:105C8000286881693046884304D00020B842E5D0B6
:105C90000020F8BD0120F9E7F7B5002720260546CA
:105CA000044640352AE02046029A0199FFF74EFF4C
:105CB000002801D00120FEBD20688069C043800615
:105CC0000BD42068C66120684168104A11404160C9
:105CD00067646E70AF702F70ECE70198002806D0F3
:105CE000FEF776FC0299411A0198814206D9606C50
:105CF000304360646E702F700320FEBD20688069A1
:105D0000C0434007CFD40020FEBD000000E800FEE5
:105D100070B516460D4604461AE03246294620461E
:105D2000FFF714FF002801D0012070BD002D04D022
:105D3000FEF74EFC801BA8420AD9616C202001436B
:105D40006164403460700020A0702070032070BD3A
:105D500020688069C0438006DFD4002070BD70B524
:105D600016460D4604461CE0324629462046FFF7FB
:105D7000EDFE002801D0012070BD681C11D0002D5F
:105D800004D0FEF725FC801BA8420AD9616C2020B4
:105D900001436164403460700020A07020700320D3
:105DA00070BD20688069C0438007DDD4002070BDCD
:105DB00070B50A20FEF745FB2E4CA06A102528433B
:105DC000A0623220FEF73DFBA0692843A061642059
:105DD000FEF737FBAE2001F077FAD52001F074FA18
:105DE000522001F071FAA82001F06EFA0F2001F0A4
:105DF0006BFAD32001F068FA002001F065FA402028
:105E000001F062FA8D2001F05FFA142001F05CFAD3
:105E100019480078002827D0A12001F055FAC820A1
:105E200001F052FADA2001F04FFA022001F04CFAA8
:105E3000812001F049FAA02001F046FAD92001F0B2
:105E400043FAF12001F040FADB2001F03DFA202076
:105E500001F03AFAA42001F037FAA62001F034FA52
:105E6000AF2001F031FA70BDA02001F02DFAC02062
:105E7000D6E70000000400481401002070B5394D39
:105E80000F22431B1207E914374CA84246D009DC05
:105E9000364BC01817D0012834D0032849D0D0423F
:105EA0000ED122E0022B50D0314818181DD0D0421C
:105EB00006D1FDF793FF012803D0012000F03AFC42
:105EC00070BD0220FAE701222046FEF77AFB01228C
:105ED00008212046FEF775FB012109200022C90395
:105EE000C006FEF76EFB012009E000222046FEF707
:105EF00068FB002208212046FEF763FB002000F02B
:105F00001FFC70BDFDF76AFF012803D1FDF772FF8A
:105F10000A300AE0FDF774FF401C12E0FDF75EFF57
:105F20000128F7D1FDF766FF401C80B200F01CFC91
:105F300070BDFDF753FF01280BD1FDF75BFF0A3859
:105F4000F3E780B200F016FC70BDFDF747FF0128B3
:105F500003D0FDF755FF401EF3E7FDF74BFF401E52
:105F6000E3E700000200004000040048FFFFFFCF0D
:105F7000010000F070B5124D044601214903284686
:105F8000FEF71AFB002803D0206801210843206097
:105F9000012189032846FEF70FFB002803D0206863
:105FA0000221084320600121C9032846FEF704FBB3
:105FB000002803D0206804210843206070BD000041
:105FC0000004004870B500242046B030C0B201F093
:105FD0007BF9002001F078F9122001F075F9002515
:105FE000002001F083F96D1CEDB2802DF8D3641C04
:105FF000E4B2022CE8D370BDF7B5054600261CE0DC
:106000002038C7B2802D04D901980025401CC0B2A9
:1060100001902846019900F075F806204743094889
:1060200000243F18385D01F061F9641CE4B2062CCD
:10603000F8D3AD1D761CEDB2F6B20298805D002853
:10604000DED1FEBDF0750008F7B5054600260F4FFE
:1060500016E0802D04D901980025401CC0B20190A3
:106060002846019900F04EF80024385D01F03EF911
:10607000641CE4B2042CF8D3AD1D761CEDB2F6B26C
:106080000298805D0028E4D1FEBD0000EC75000898
:10609000F7B500251A4E2EE02038C7B200988028A8
:1060A00005D9002000900198401CC0B201900199D0
:1060B000009800F027F800243F013819305C01F007
:1060C00015F9641CE4B2082CF7D30198401CC1B246
:1060D000009800F017F8002438198019007A01F0B0
:1060E00005F9641CE4B2082CF6D300980830C0B25D
:1060F0006D1CEDB200900298405D0028CCD1FEBD31
:106100001878000810B504460A480078002801D124
:106110002034E4B2B031C8B201F0D6F82009103012
:1061200001F0D2F82007000F0121084301F0CCF85C
:1061300010BD000014010020FEB5244924480024AD
:1061400012C001250426011D046070C10461446170
:10615000FF2102468561C2312032C46132C2C5626C
:106160000838FDF745FF002800D0FEE701200003B6
:10617000019002200290009469461548FDF79EFEAA
:10618000002800D0FEE7694611480095FDF796FE0D
:10619000002800D0FEE769460D480096FDF78EFE08
:1061A000002800D0FEE70520009069460848FDF76A
:1061B00085FE002800D0FEE70620009069460448CE
:1061C000FDF77CFE002800D0FEE7FEBD0024014064
:1061D000B8010020F0B5234887B042690121490485
:1061E0000A43426142690A400592426949000A43F2
:1061F000426140691C4D08401C4F05900022294611
:106200003846FEF7DEF97E01092000223146C0063D
:10621000FEF7D7F9164800240090019469460294CD
:106220003846FEF71DF90095012502946946384667
:1062300001950394FEF714F90320800300900220D7
:106240000290019469463846FEF70AF90920029443
:106250006946C006009601950394FEF701F907B060
:10626000F0BD000000100240381800000004004893
:106270000620000010B51248104901601149416024
:10628000002181600161416181610122C161C260BF
:106290000162FEF7EDF9002800D0FEE70021084872
:1062A000FEF79CF9002800D0FEE700210448FEF725
:1062B000BAF9002800D0FEE710BD000000540040ED
:1062C000040200200E09002010B52D492D4894B07D
:1062D000002412C004608460C4602B4904614160E2
:1062E0000838FFF76EF8002800D0FEE70120000311
:1062F0000E900EA92348FFF7B2F8002800D0FEE761
:106300002048FFF760FA002800D0FEE7129412A997
:106310001C481394FFF71EF8002800D0FEE7602009
:106320000594019400900294039404940022694619
:1063300006941448FFF7DFF9002800D0FEE7042296
:1063400069461048FFF7D7F9002800D0FEE7032080
:10635000000209900A200A90012007944003089443
:106360000C900B9407A90D940648FEF7C3FF002874
:1063700000D0FEE70348FFF79BF914B010BD000002
:10638000002C014050020020E70300001CB50C491E
:106390000C48002412C004600B49046141600838B5
:1063A000FFF70FF8002800D0FEE700946946054883
:1063B0000194FEF7CFFF002800D0FEE71CBD0000CF
:1063C0000010004090020020BF12000010B50C48E1
:1063D0000A4901604B21C901416000218160C1600F
:1063E00001618161C1610C22016242614162FFF77A
:1063F000CDFA002800D0FEE710BD000000440040A8
:10640000D0020020704700008307FF22DB0E9A4075
:106410008907090E994000280BDA0007000F083899
:10642000830808489B001818C36993430B43C36152
:106430007047830804489B001B1818689043084362
:106440001860704700ED00E000E400E0FFB581B0A7
:10645000203B019800240D46DEB25F2803D90020BE
:106460008D1CEDB20190002A29461CD0FFF74AFE90
:106470003701144E3819305C00F038FF641CE4B268
:10648000082CF7D36D1CE9B20198FFF73BFE0024FE
:1064900038198019007A00F029FF641CE4B2082C36
:1064A000F6D305B0F0BDFFF72DFE062046430648A3
:1064B0003518285D00F01AFF641CE4B2062CF8D3EE
:1064C000EFE7000018780008F07500087047704783
:1064D00070B5EFF3108372B6124A9468402C18D24C
:1064E0005468114DA6007619641C546030605068E1
:1064F00084006419401C506021609068401C9060CA
:1065000050684006400E506083F310880020C0435E
:1065100070BDBFF34F8F06490448C860BFF34F8F6B
:1065200000BFFDE7C8000020E80300200400FA05D2
:1065300000ED00E0FEB5564D0024287801287DD1FD
:106540000420FDF793FBFDF79BF8524A524BFCF7F2
:106550008FFF0B22D243FDF76BF80222FDF768F89C
:10656000FDF7ECF80646FDF7E9FB0746FDF7AAF84C
:106570004A4A4B4BFCF7E4FF00224A4BFCF7E0FF92
:10658000FDF7DCF8009048493846FCF780FE3146BC
:10659000FCF73CFE0099FCF77AFEFF21C905A860D4
:1065A000C84201D30020A8606878012802D00228E0
:1065B00064D11FE06888FDF75CF83C49FCF767FE92
:1065C00006460099A868FCF725FE0099FCF722FE14
:1065D0000546FDF777F804460F4629463046FCF796
:1065E00011FEFDF76FF8024629480B46103001975F
:1065F000009416E0E968A868FDF754FB0646FDF72D
:1066000061F804460F46A888FDF733F83146FCF7D9
:10661000F9FDFDF757F802461D480B464830019733
:10662000009400F0A7FD02460B4600200146FCF74F
:106630006DFEFDF783F80446FF2000E027E08005AB
:10664000844201DD044609E0FF20C005C44201D3B5
:10665000002413E07F20C00584420FDD7F25ED0577
:106660002946012000F034F829462046FCF7CAFDEF
:106670002946FCF7CBFD0146022006E07F21C90533
:10668000022000F025F82146012000F021F8FEBD8F
:10669000180100206666666666660A40FCA9F1D2AB
:1066A0004D62603F00004940000048420000204128
:1066B00008B57D22D20000920B460246D021024846
:1066C000FEF730F808BD000004020020704700000B
:1066D00070B50D46124B7F21C905124A1C6801286E
:1066E0000DD002280AD18D4217DAE06AFCF7C1FF0B
:1066F0002946FCF78FFDFCF7D1FFA06370BD8D42EA
:1067000009DAE06AFCF7B5FF2946FCF783FDFCF7E0
:10671000C5FF606370BD626370BDA26370BD0000A1
:1067200050020020FFFF0000014988607047000010
:10673000180100200149487070470000180100202E
:1067400001490870704700001801002010B5044688
:10675000FEF772FB2146FCF7CBFC0249401E09689C
:10676000C86210BD500200200149488070470000F7
:10677000180100200149888070470000180100209E
:106780000149C860704700001801002070B500245E
:106790000A4DFDF71DFF21460C2251434E19726828
:1067A000801A06D468588047FDF712FFB168401878
:1067B0007060641CE4B2052CEBD370BDD4000020E3
:1067C00010B5FEF795F9FEF78FFD10BD10B598B026
:1067D0001220009001201021049106910590C10320
:1067E0000A91052103900224C9040C9009940B918D
:1067F0006846FEF765FB002800D0FEE715940720E9
:10680000002414901694012114A81794FEF754FA4A
:10681000002800D0FEE722200D90109411940DA8BE
:10682000FEF7BAF9002800D0FEE7FEF7EFFA7D2167
:10683000C900FCF75DFCFEF73FFD0420FEF72CFDD0
:1068400000221146501EFEF7A3F918B010BD00003B
:10685000124801680122114301604168104A114049
:10686000416001680F4A11400160016801229204F1
:106870009143016041683F22120491434160C16A23
:1068800009090901C162016B074A11400163416BAB
:1068900049084900416300218160704700100240AF
:1068A0000CB8FF08FFFFF6FE2CFEFCFF10B50248F7
:1068B000FEF74DFE10BD000090020020F0B502680A
:1068C0001D4B0124A4071D4D984203D0A04201D0C6
:1068D000A84203D17026B2434E683243184E194F76
:1068E00098420DD0A0420BD0A84209D0164CA0422D
:1068F00006D0B04204D0B84202D0144CA04204D119
:1069000003242402A243CC6822438024A2434C697E
:10691000224302608A68C2620A688262984206D094
:10692000B04204D0B84202D0084A904201D109696D
:10693000016301214161F0BD002C014000040040D1
:106940000040014000440140002000400048014058
:1069500010B50123046A8B409C430462036A8A4099
:106960001343036210BD10B50423046A8B409C439B
:106970000462036A8A401343036210BD30B5846821
:10698000FF252D021B021343AC430B4323438360BB
:1069900030BD826870239A430A4307210A4382600C
:1069A00070470000F0B5026A520852000262056AA0
:1069B000436882697024A24392080C6892001443D1
:1069C000022295438A68164E2A43144DA84207D0E6
:1069D000B04205D0134FB84202D0134FB84206D18F
:1069E0000827BA43CF681743042297433A46A84280
:1069F00007D0B04205D00B4DA84202D00A4DA842A4
:106A000006D103252D02AB434D691D438B692B43F2
:106A100043608461496841630262F0BD002C01401B
:106A200000400140004401400048014070B5026A46
:106A300010239A430262056A426883697324240220
:106A4000A3430C6824021C4320239D438B681B0135
:106A50002B43124DA84208D11D46CB688026B54372
:106A60001B012B434025AB4308E00D4DA84205D048
:106A70000C4DA84202D00C4DA84208D10325AD020E
:106A8000AA434D69AD0015438A6992002A434260CA
:106A9000846149688163036270BD0000002C01407D
:106AA00000400140004401400048014070B5026AC6
:106AB000FF2301339A430262056A4368C269702466
:106AC000A24392080C68920014430122520295439B
:106AD0008A6812022A43124DA84208D11546CA6894
:106AE000C614B54312022A430515AA4308E00D4D0A
:106AF000A84205D00C4DA84202D00C4DA84208D1A6
:106B000003252D03AB434D692D011D438B691B01EB
:106B10002B434360C4614968C163026270BD0000D9
:106B2000002C014000400140004401400048014069
:106B300030B5026A01231B039A430262046A426869
:106B4000C36973252D02AB430D682D021D4301233C
:106B50005B039C438B681B0323430C4CA04208D06F
:106B60000B4CA04205D00B4CA04202D00A4CA042D4
:106B700005D10124A403A2434C69A401224342602D
:106B8000C56149680164036230BD0000002C01400A
:106B900000400140004401400048014030B5036A14
:106BA000046A6408640004628469F025AC4312013D
:106BB00022430A24A3430B438261036230BD30B5F4
:106BC000036A1024A34303628469036A0F252D031B
:106BD0001203AC432243A024A34309011943826159
:106BE000016230BD10B5818CC90707D001684A68C1
:106BF00001235B049A43836A1A434A60818C8907A4
:106C000007D501684A6801231B049A43C36A1A43E3
:106C10004A60818C490707D501684A6801239B04B3
:106C20009A43036B1A434A60818C090707D50168B0
:106C30004A680123DB039A43436B1A434A60818C01
:106C4000C90607D50268916801231B039943836B2A
:106C500019439160818C890607D501688A680123F0
:106C60005B039A43C36B1A438A60818C490612D531
:106C700003685A6801210905046C8A4322435A605B
:106C8000026C8A4207D10268516803235B0599436D
:106C9000436C19435160818C090607D501684A6825
:106CA0000123DB04806C9A4302434A6010BD00005C
:106CB000F8B500260446C666FDF78AFC0546164967
:106CC0002068884202D0154988421DD10068144FBF
:106CD000000709D501212B460022490520460097CF
:106CE00000F065F900280DD12068006840070BD539
:106CF00001212B46002289052046009700F057F914
:106D0000002801D00320F8BD202060346072A072FA
:106D100026720020F8BD0000003801400044004009
:106D2000FFFFFF0110B5406A0022014640314A834F
:106D30004A82FEF790FD10BD01680A68FF232133E7
:106D40009A430A6001688A68520852008A602021CA
:106D500060308172704710B501680A6840239A4319
:106D60000A60202269210A54FEF7DCFE002010BDD3
:106D700070B50246403203466033948B9D7A0168B9
:106D8000222D05D08869082210438861022070BD39
:106D9000898C012685683603B54202D10569002D2C
:106DA0000BD02140446D651C45652170518B491EF7
:106DB0000904090C518307D015E0456D2140298055
:106DC000416D891C4165F1E701680A68FF2421349F
:106DD000A2430A6001688A68520852008A60202132
:106DE0009972FEF785FE002070BD0000F8B50446DC
:106DF0002369A268E5691A43636910202B430021C7
:106E000025681A432B680E46474F3B4013432B60BF
:106E100023685A6803252D03AA43E5682A435A606C
:106E2000236AA26925681A43AB680B273F02BB435C
:106E30001343AB603D4F25683D4B0203BD420AD171
:106E40001B6B9B079B0F20D0012B14D0022B14D05F
:106E5000032B1BD10DE0374FBD4210D11B6B032715
:106E60003F043B4011D09B1A05D09B1A05D093429A
:106E70000CD102200AE0042008E0082006E02E4B96
:106E80009D4202D02D4B9D4200D100200123E76995
:106E9000DB039F4222D100280CD002280DD0042809
:106EA00013D0082817D001260A0912010807400F3D
:106EB00010432EE0FDF7B0FF09E06168204A480862
:106EC0008018FCF715F981B2EEE7FDF7B5FF6168B0
:106ED00040004A08F4E761684808F1E7002808D054
:106EE000022809D004280CD0082815D001263046E5
:106EF000F8BDFDF791FF06E06168124A4808801866
:106F00000DE0FDF799FF61684A088018FCF7F0F87A
:106F100080B22168C860EAE761684808C018FCF7D9
:106F2000E7F880B2E860E2E7F369FFEF003801407C
:106F3000001002400044004000480040004C004067
:106F40000024F40000127A006921095C212901D093
:106F50000220704702464032518A002912D0012394
:106F600081681B03994202D10169002915D0C16CC7
:106F70004B1CC364006809780185508A401E50820A
:106F80000020704701680A6880239A430A600068FD
:106F90000168402211430160F2E7C16C036809886F
:106FA000C905C90D1985C16C891CC164E5E7FFB528
:106FB00081B017460E4604460A9D1DE0681C1BD092
:106FC000002D05D0FDF704FB0499401AA84213D9FF
:106FD00020680168FF22A132914301602068816826
:106FE000490849008160202060346072A07200204E
:106FF0002072032005B0F0BD2068C1693046884387
:1070000004D00020B842D9D00020F3E70120F9E7EE
:1070100010B50248FEF720FC10BD0000D002002091
:1070200070B5214CA078022836D100210D460A46C1
:107030001E4B05E0002903D09E5CBF2E21D106E047
:107040009E5CAD2E1DD19818511CC9B219E0511A81
:107050004678891CC9B2B61C8E4212D10022CB1EC2
:1070600005E0861876787519521CEDB2D2B29A42B4
:10707000F7DB41182039897FA94206D1FFF726FAAC
:1070800003E0521CD2B20F2AD4D310210748FCF7D8
:107090005DF80020A070207003490122C91C04483B
:1070A000FEF7D6FC70BD000010010020E8050020AE
:1070B000D002002007484178002904D04178491EB9
:1070C0004170012103E08178012901D10221817001
:1070D000704700001001002010B5FCF7DDFD4000F6
:1070E000000E16D000211DA20846FEF785FFFCF712
:1070F000D3FD1B49FCF78EF8FCF7D0FA03460022BB
:1071000011460620FCF766FDFCF768FE012806D054
:1071100012E0002113A20846FEF76EFFF4E713A267
:1071200000212420FEF768FFFCF764FE03460022DE
:1071300011463020FCF74EFDFCF750FE02280CD122
:107140000BA200212420FEF757FFFCF759FE03464F
:10715000002211463020FCF73DFD10BD520000001A
:107160000000C842523D4E4F20200000503D00001C
:10717000543D0000F0B5044689B015461E46806AAD
:10718000E16AFCF775F9039102902A463346E168FB
:10719000A068FCF7BBF8E160A06063692269FCF7B6
:1071A000B9FA02D26169206908E0E369A269E1687D
:1071B000A068FCF79BFA03D2E169A069E160A060D6
:1071C000E368A268616A206AFCF752F90CCC0646B3
:1071D0000F46083C0F990E98FCF73CF9636B226B45
:1071E000FCF746F9054601910E980F9903C4324603
:1071F0003B4603990298FCF789F82A46019BFCF765
:1072000029F909B0F0BD000010B5294C0122110385
:107210002046FDF7D6F9012220212046FDF7D1F9BD
:107220000520FDF70EF9FEF7C3FD0A20FDF709F969
:10723000FEF7C8FE00211FA20846FEF729FF7D20A9
:10724000C000FDF7FEF8FEF7BDFE102000F060F86C
:107250000122D1022046FDF7B4F90122082120467F
:10726000FDF7AFF900211648FEF7CAFA00211448CD
:10727000FEF794F804211248FEF7C2FA04211048E0
:10728000FEF78CF80F48FFF761FA00210120FFF7A5
:107290001FFA7F21C9050220FFF71AFA0020FFF725
:1072A00063FAC820FFF766FA0020C04310BD000053
:1072B000000400483D3D53474D4943524F3D3D007A
:1072C00050020020F049020001B584B001211022D3
:1072D00004A80B46029201910090002278210248F6
:1072E000FDF738FB05B000BD0402002001B584B0F5
:1072F0000121102204A80B46029201910090402225
:1073000078210248FDF726FB05B000BD04020020ED
:1073100001B582B07D20C0000090012302AAD021D7
:107320000148FDF78BFA0EBD04020020FEE7202184
:10733000020C01D010211046020A01D01046083973
:10734000020901D01046091F820801D01046891E8B
:10735000420801D0881E7047081A704702E008C82A
:10736000121F08C1002AFAD170477047002001E0BF
:1073700001C1121F002AFBD17047000010B5002880
:1073800023D0124B0022001F196803E0814203D86A
:107390000A4649680029F9D1002A0AD01368841ADC
:1073A0009C4204D1006818181060104602E050603A
:1073B00000E01860002907D002680B1A934203D13D
:1073C0000B68D21802604968416010BDB00100200E
:1073D000F8B500252C4C68460095FEF7CBFD2146FC
:1073E00008394868009E002801D0401E48603000DF
:1073F00033D06268B24230D12068401C20600BD08C
:1074000002280CD014281ED03BD90A211438FBF7CF
:107410006FFE00291BD034E01E20206031E0486858
:10742000002809D010460A68904208D10D604D60CE
:107430000321490700980DE00F200A6048600121F0
:107440000907009806E001214907009802E003219E
:1074500000980907084300900FE02068142803D320
:1074600005210907606804E0022809D3012160684A
:1074700089070843009025600098FEF7FFFCF8BDDF
:1074800025606660F8BD0000A40100200EB5002450
:10749000FDF736FB2D492E4AA00043181B681350F8
:1074A000641C302CF8D32B4CA06901252843A06123
:1074B000A069284002902848016889088900016075
:1074C0000168032211430160FFF780F9FEF782FE95
:1074D000606928436061606900222840029011467B
:1074E0000920FDF755FB0920FDF748FBFEF7ECFEF0
:1074F000FEF76CFFFEF7BEFEFEF71EFEFEF746FF30
:107500001648FCF783FC322215491448FCF776FE36
:107510001348012213497038FEF79AFA1048B03820
:10752000FDF792FF0020FFF76FFEFFF72FF9684687
:10753000FCF72AFC0028F8D06846FCF793FB0028EB
:10754000F3D101990098FEF7C3FFEEE70030000881
:10755000000000200010024000000140B80100209F
:107560004003002013010020F0B50B30C108C90012
:10757000144F0026144A0FE003688B420BD38B4252
:1075800005D95C1A4318456830C3083B00E04368DE
:10759000136002C004E0021D10680028ECD13046E0
:1075A000002803D13868002801D00020F0BD064A29
:1075B00006481060064A121AD208D20044C00120C0
:1075C0003860D7E7B4010020B0010020FC0500209E
:1075D000F807002000000000000000000102030482
:1075E00006070809000000000102030400606000B3
:1075F0000000000000000000002F00000000070055
:10760000070000147F147F1400242A7F2A120062CE
:10761000640813230036495522500000050300007A
:1076200000001C224100000041221C000014083E02
:1076300008140008083E0808000000A060000008C8
:10764000080808080000606000000020100804021C
:10765000003E5149453E0000427F400000426151DA
:107660004946002141454B31001814127F10002774
:1076700045454539003C4A49493000017109050337
:1076800000364949493600064949291E0000363668
:1076900000000000563600000008142241000014CB
:1076A00014141414000041221408000201510906A8
:1076B00000324959513E007C1211127C007F494929
:1076C0004936003E41414122007F4141221C007F5A
:1076D00049494941007F09090901003E4149497A68
:1076E000007F0808087F0000417F410000204041E2
:1076F0003F01007F08142241007F40404040007F4E
:10770000020C027F007F0408107F003E4141413E91
:10771000007F09090906003E4151215E007F0919D9
:1077200029460046494949310001017F0101003FD6
:107730004040403F001F2040201F003F4038403F56
:1077400000631408146300070870080700615149BA
:10775000454300007F41410000552A552A5500004D
:1077600041417F00000402010204004040404040CB
:10777000000001020400002054545478007F484463
:10778000443800384444442000384444487F00389A
:107790005454541800087E0901020018A4A4A47CC3
:1077A000007F080404780000447D4000004080848D
:1077B0007D00007F102844000000417F4000007CD5
:1077C00004180478007C08040478003844444438E1
:1077D00000FC242424180018242418FC007C08042D
:1077E000040800485454542000043F444020003C06
:1077F0004040207C001C2040201C003C4030403C8D
:10780000004428102844001CA0A0A07C004464541C
:107810004C44141414141414000000000000000060
:107820000000000000000000000000F80000000060
:10783000000000333000000000100C06100C0600A1
:10784000000000000000000040C07840C078400008
:10785000043F04043F040400007088FC083000006A
:10786000001820FF211E0000F008F000E0180000C2
:1078700000211C031E211E0000F00888700000007B
:107880001E2123241927211010160E0000000000CD
:107890000000000000000000000000E018040200EA
:1078A000000000071820400000020418E00000005B
:1078B0000040201807000000404080F08040400059
:1078C0000202010F01020200000000F000000000AF
:1078D0000101011F01010100000000000000000083
:1078E00080B07000000000000000000000000000F8
:1078F0000001010101010101000000000000000081
:10790000003030000000000000000000806018041B
:10791000006018060100000000E010080810E000F8
:10792000000F102020100F00001010F800000000C1
:107930000020203F20200000007008080888700008
:107940000030282422213000003008888848300088
:107950000018202020110E000000C02010F80000A8
:1079600000070424243F240000F808888808080041
:107970000019212020110E0000E010888818000056
:10798000000F112020110E0000380808C838080028
:107990000000003F000000000070880808887000A8
:1079A000001C222121221C0000E010080810E00029
:1079B0000000312222110F00000000C0C0000000B2
:1079C00000000030300000000000008000000000D7
:1079D00000008060000000000000804020100800CF
:1079E0000001020408102000404040404040400098
:1079F0000404040404040400000810204080000073
:107A00000020100804020100007048080808F00077
:107A10000000003036010000C030C828E810E00047
:107A20000718272423140B000000C038E0000000D2
:107A3000203C23020227382008F88888887000003C
:107A4000203F202020110E00C03008080808380010
:107A5000071820202010080008F808080810E00087
:107A6000203F202020100F0008F88888E808100028
:107A7000203F20202320180008F88888E8081000FC
:107A8000203F200003000000C03008080838000034
:107A900007182020221E020008F808000008F80835
:107AA000203F210101213F20000808F808080000BC
:107AB0000020203F2020000000000808F8080800EF
:107AC000C08080807F00000008F888C02818080067
:107AD000203F20012638200008F8080000000000A0
:107AE000203F20202020300008F8F800F8F8080097
:107AF000203F003F003F200008F830C00008F80891
:107B0000203F200007183F00E01008080810E000A0
:107B10000F10202020100F0008F808080808F000B7
:107B2000203F210101010000E01008080810E000DA
:107B30000F18242438504F0008F88888888870006F
:107B4000203F2000030C302000708808080838000F
:107B50000038202121221C00180808F80808180005
:107B60000000203F2000000008F808000008F80886
:107B7000001F202020201F000878880000C8380837
:107B8000000007380E010000F80800F80008F800AF
:107B9000033C0700073C0300081868808068180849
:107BA00020302C03032C30200838C800C8380800C7
:107BB0000000203F2000000010080808C838080016
:107BC0002038262120201800000000FE02020200BA
:107BD0000000007F40404000000C30C0000000006A
:107BE000000000010638C00000020202FE00000092
:107BF000004040407F000000000004020202040038
:107C00000000000000000000000000000000000074
:107C1000808080808080808000020204000000005C
:107C20000000000000000000000080808080000054
:107C30000019242222223F2008F800808000000042
:107C4000003F112020110E00000000808080000005
:107C5000000E112020201100000000808088F80014
:107C6000000E112020103F20000080808080000046
:107C7000001F222222221300008080F088888818AA
:107C80000020203F202000000000808080808000B5
:107C9000006B94949493600008F80080808000004A
:107CA000203F210000203F20008098980000000025
:107CB0000020203F20200000000000809898000055
:107CC00000C08080807F000008F800008080800075
:107CD000203F24022D302000000808F8000000009A
:107CE0000020203F20200000808080808080800055
:107CF000203F20003F20003F8080008080800000E7
:107D0000203F210000203F20000080808080000074
:107D1000001F202020201F008080008080000000A5
:107D200080FFA12020110E000000008080808000D4
:107D3000000E112020A0FF808080800080808000C5
:107D400020203F21200001000000808080808000F2
:107D50000033242424241900008080E08080000067
:107D60000000001F202000008080000000808000B4
:107D7000001F202020103F20808080000080808015
:107D800000010E30080601008080008000808080A5
:107D90000F300C030C300F000080800080808000CA
:107DA0000020312E0E3120008080800000808080F5
:107DB00080818E70180601000080808080808000A5
:107DC0000021302C2221300000000000807C0202C3
:107DD00000000000003F404000000000FF000000E5
:107DE00000000000FF0000000002027C8000000094
:107DF0000040403F000000000006010102020404B0
:107E00000000000000000000000000000000000072
:107E10000000000000000000000000000000000062
:107E2000000000000000000000000000000000FE54
:107E3000FEFE000000000000000000000000001B2B
:107E40001B1B0000000000000000000E1E0E0000C2
:107E500000000E1E0E0000000000000000000000E8
:107E6000000000000000000000002020A0E07C3E98
:107E700022A0E07C3E2220200001111F0F010111F1
:107E80001F0F010101010100000000183C3E664285
:107E9000FFFF828202000000000000181010101086
:107EA0003F3F111F0F0700001C3E22222222BE9CD2
:107EB000406030180C0602000010180C0603010088
:107EC0000E1F111111111F0E008080DC7C7EE2E27A
:107ED000B23E1E0C00808080070F0F181810101182
:107EE00013171E0C1C1F13010000000000000E1EC3
:107EF0000E00000000000000000000000000000074
:107F000000000000000000000000000000C0F0F8C9
:107F1000380C0404060202000000000000030F1FDA
:107F20001C30202060404000000002020604040CC7
:107F300038F8F0C000000000000040406020203011
:107F40001C1F0F030000000000000808D8D0604686
:107F50004E76D0D8080800000000000000000000A5
:107F6000000000000000000000000000000000E031
:107F7000E000000000000000000202020202021FF6
:107F80001F020202020202000000000000000000C6
:107F9000000000000000000000000000000098D871
:107FA0007838000000000000000000000000000021
:107FB00000000000000000000000000101010101BC
:107FC00001010101010000000000000000000000AC
:107FD0000000000000000000000000000000181871
:107FE00018180000000000000000000000000080E1
:107FF000C06030180C06020000406030180C060308
:10800000010000000000000000F0F8FC0C06020275
:108010000202060CFCF8F0000003070F0C18101009
:108020001010180C0F0703000000000404040404DF
:10803000FEFEFE00000000000000001010101010F6
:108040001F1F1F1010101010000006020202020273
:1080500082C67C7C380000000000181C1C1613111E
:1080600011101010100000000000000602424242F1
:1080700042C2A6BE9C1C0000000000101010101090
:108080001010180F0F07000000000080C0E030182B
:108090000C06FEFEFE0000000000030303020202C5
:1080A00002021F1F1F020202000000007E7E4646E1
:1080B00046C6C686860000000000000010101010A2
:1080C0001010180F0F0700000000E0F8FCCC46224B
:1080D00022222262C2C28000000003070F1C181077
:1080E000101010180F0F0700000000060606060605
:1080F00086C666361E0E060000000000101C1E0F0D
:10810000030100000000000000000018BCBEE26295
:10811000C2C2E2BEBC1C00000000070F0F18101006
:10812000101010190F0F0700000078FCFC860202E7
:10813000020286CEFCF8F0000000001010111111B0
:108140001111180C0F070100000000000000606012
:10815000606000000000000000000000000018182F
:10816000181800000000000000000000000060601F
:10817000606000000000000000000000000098D8CF
:10818000783800000000000000000000000080803F
:1081900080804040402020000000020303030704C9
:1081A000040408080810100000808080808080800F
:1081B0008080808080808000000404040404040423
:1081C0000404040404040400002020404040808093
:1081D000808000000000000000101008080804045F
:1081E000040703030302000000000E0E02020282D5
:1081F000C2C2667E3C1C00000000000000001B1B89
:108200001B0000000000000000E0F0180C04C6F2A3
:10821000320A0A0A8EFCF8000003070E081813172A
:10822000141416131907070400000000C0E03818E2
:108230003870E0800000000010181E0703020202E0
:10824000020203030F1E18100000F8F8F88888884F
:10825000884878703000000000001F1F1F101010A9
:108260001011191F0F0E000000C0E0F030101808A8
:1082700008080808080818000003070F0C08181061
:1082800010101010101010000000F8F8F80808087E
:108290000808081830F0E0C000001F1F1F10101061
:1082A000101010180C0F0703000000F8F8F8080869
:1082B00008080808080800000000001F1F1F11110F
:1082C0001111111111101000000000F8F8F8080841
:1082D00008080808080808000000001F1F1F010107
:1082E000010101010101000000C0E0F03010180898
:1082F00008080808080818000003070F0C081810E1
:10830000101111111F1F1F000000F8F8F8000000E5
:1083100000000000F8F8F80000001F1F1F01010115
:10832000010101011F1F1F0000000808080808F8CC
:10833000F8F8080808080800000010101010101FB6
:108340001F1F10101010100000000000080808087F
:108350000808F8F8F80000000000001810101010CD
:1083600010181F0F070000000000F8F8F80080C088
:10837000607030181808000000001F1F1F01010363
:1083800003060E0C18181000000000F8F8F80000A2
:1083900000000000000000000000001F1F1F101060
:1083A000101010101010100000F8F81878E080007D
:1083B0000080E07018F8F800001F1F00000103069D
:1083C00006030100001F1F000000F8F83870E0C02D
:1083D00080000000F8F8000000001F1F00000001EE
:1083E00003070E1C1F1F000000C0E0F03008080843
:1083F0000808080830F0E0C00003070F0C10101048
:10840000101010100C0F0703000000F8F8F808080F
:108410000808080898F8F0700000001F1F1F0101ED
:10842000010101010100000000C0E0F0300808086F
:108430000808080830F0E0C00003070F0C10101007
:10844000101030302C4F47430000F8F8F8080808A7
:10845000088898F87070000000001F1F1F010103BA
:1084600007070C1C181000000000707078D888886E
:1084700088888808081800000000181810101010CC
:10848000101111190F0F0600080808080808F8F85D
:10849000F8080808080808000000000000001F1F76
:1084A0001F000000000000000000F8F8F8000000C5
:1084B00000000000F8F8F8000000070F0F18101077
:1084C000101010180F0F0700081878E0C080000087
:1084D00000000080E07838080000000001070E1C52
:1084E00010180E070100000018F8F0000000C0E0AE
:1084F000E0E0000000E0F81800011F1F181E070050
:1085000000071F1C1F0F0000000008183870E0C093
:1085100080C06030301808000010180C0C060301F1
:108520000103070E1C1810000008183060C08000FE
:108530000080C060301808000000000000001F1F0D
:108540001F0000000000000000000808080808885C
:1085500088C86878381808000010181C1C161311F9
:108560001110101010101000000000000000FEFE9E
:10857000FE020202020200000000000000007F7FF5
:108580007F404040404000000002060C183060C0B0
:10859000800000000000000000000000000000015A
:1085A00003060C183060400000000202020202FEC6
:1085B000FEFE000000000000000040404040407F00
:1085C0007F7F00000000000000000000C0E0701C81
:1085D0000E3870C080000000000406030100000097
:1085E000000000010306040000000000000000007D
:1085F000000000000000000020202020202020207B
:108600002020202020202020000000000000010168
:108610000302000000000000000000000000000055
:1086200000000000000000000000002020202020AA
:10863000202020E0E0C0000000000C0E1E131111ED
:108640001111090F1F1F10100000FEFEFE404020F8
:1086500020202060E0C0800000001F1F1F081010B5
:10866000101010180F0F0700000080C0C0606020BD
:1086700020202020202000000000070F0F1C1810D1
:108680001010101010100000000080C0C0602020EA
:1086900020202040FEFEFE000000070F1F181010D3
:1086A000101008081F1F1F00000080C0C06020209D
:1086B00020202060E0C080000000070F0F1D19116E
:1086C0001111111111111100000020202020F8FCBF
:1086D000FE262222222222020000000000001F1F8C
:1086E0001F00000000000000000080C0C0602020CB
:1086F00020202040E0E0E000000007CF9F9890900D
:10870000909088C87F7F3F000000FEFEFE804020E2
:10871000202020E0E0C0000000001F1F1F0000001C
:108720000000001F1F1F000000002020202020E666
:10873000E6E6000000000000000000000000001F4E
:108740001F1F00000000000000000020202020204B
:1087500020E6E6E600000000000080808080808047
:10876000C0FF7F3F00000000000000FEFEFE000092
:1087700080C0E060602000000000001F1F1F010398
:1087800003070E0C18181000000002020202020279
:10879000FEFEFE00000000000000000000000000DF
:1087A0001F1F1F000000000000E0E0E0C06060E06C
:1087B000E0C0C06060E0E0C0001F1F1F0000001F9D
:1087C0001F1F0000001F1F1F0000E0E0E08040208E
:1087D000202020E0E0C0000000001F1F1F0000005C
:1087E0000000001F1F1F00000080C0C0606020202C
:1087F00020206060C0C0800000070F0F1818101004
:10880000101018180F0F07000000E0E0E0404020B3
:1088100020202060E0C080000000FFFFFF08101053
:10882000101010180F0F07000080C0C0602020201B
:10883000202040E0E0E0000000070F1F181010109B
:10884000100808FFFFFF000000000000E0E0E080EB
:108850004040202020E0E000000000001F1F1F001B
:108860000000000000000000000000C0C0E0202068
:1088700020202020202000000000001811111111DC
:108880001313121A1E0E0C000020202020F8F8F8F6
:10889000202020202020000000000000000F1F1FCB
:1088A00010101010101000000000E0E0E0000000C8
:1088B000000000E0E0E0000000000F1F1F1010109B
:1088C00010080C1F1F1F0000002060E08000000047
:1088D00000000080E06020000000000003070E1888
:1088E00010180E070100000060E0E000000080C0EA
:1088F000C0C000000080E02000031F1E180E03000F
:1089000000071F181C0F010000002060E0C08080DD
:108910000080C06020000000000010180C0C07034D
:1089200007070C1C18100000002060E0C0000000C9
:1089300000000080E06020000000808083C76E7C23
:10894000180E070300000000000020202020202037
:1089500020A0A0E0E060200000001018181C1616EF
:108960001311111010101000000000000000009CF6
:10897000FCFE620202020000000000000101013161
:108980007E7E4E404040000000000000000000FEDF
:10899000FE00000000000000000000000000007F5A
:1089A0007F0000000000000000000002020262FEE2
:1089B000FC9C0000000000000000004040404E7E93
:1089C0007E31010101000000000080808080800075
:1089D000000000000080800000030300000001018F
:1089E0000103020202030100FE0202030303030269
:1089F00002FEFF8080808080808080FFFE02020374
:108A00000303030202FEFF80B0B0B0B0B0B080FF3D
:108A1000FE0202030303030202FEFF80BCBCBCBCD7
:108A2000BCBC80FFFE0202030303030202FEFF80C0
:108A3000BFBFBFBFBFBF80FFFE02C2C3C3C3C3C2AD
:108A400002FEFF80BFBFBFBFBFBF80FFFE02F2F3C9
:108A5000F3F3F3F202FEFF80BFBFBFBFBFBF80FFD3
:108A6000FE02FAFBFBFBFBFA02FEFF80BFBFBFBFAB
:108A7000BFBF80FFF8F8181818181818181E1E1E07
:108A80001E1E1E1E181818181818F8F8FFFF0000F0
:108A900000000000000000000000000000000000D6
:108AA0000000FFFFFFFF00000000000000000000CA
:108AB00000000000000000000000FFFFFFFFC0C03A
:108AC000C0C0C0C0C0C0C0C0C0C0C0C0C0C0C0C0A6
:108AD000C0C0FFFFF8F8181818181818181E1E1E26
