:020000040800F2
:10000000002E00209D010008A31B0008C31A000851
:10001000A11B000809020008C93200080000000006
:100020000000000000000000000000005B1C000851
:10003000F504000800000000591C00085D1C0008C1
:10004000B7010008B7010008B7010008B7010008B0
:10005000B7010008B7010008B7010008B7010008A0
:10006000B7010008B7010008B7010008B701000890
:10007000B7010008B7010008B7010008B701000880
:10008000B7010008B7010008B7010008B701000870
:10009000B7010008B7010008B7010008B701000860
:1000A000B7010008B7010008B7010008B701000850
:1000B000B7010008B7010008B7010008B701000840
:1000C000B7010008B7010008B7010008B701000830
:1000D000B7010008B7010008B7010008B701000820
:1000E000B7010008B7010008B7010008B701000810
:1000F000B7010008B7010008B7010008B701000800
:10010000B7010008B7010008B7010008B7010008EF
:10011000B7010008B7010008B7010008B7010008DF
:10012000B7010008B7010008B7010008B7010008CF
:10013000B7010008B7010008B7010008B7010008BF
:10014000B7010008B7010008B7010008C51B000887
:10015000B7010008B7010008B7010008B70100089F
:10016000B7010008B7010008B7010008B70100088F
:10017000B7010008B7010008B7010008000000003F
:10018000B7010008B7010008DFF80CD000F02AF82A
:10019000004800473D330008002E002006488047F5
:1001A00006480047FEE7FEE7FEE7FEE7FEE7FEE75C
:1001B000FEE7FEE7FEE7FEE70D1D000889010008E7
:1001C00040EA01039B0703D009E008C9121F08C0D9
:1001D000042AFAD203E011F8013B00F8013B521E59
:1001E000F9D27047064C074D06E0E06840F0010385
:1001F00094E8070098471034AC42F6D3FFF7C8FFE5
:1002000084340008A4340008FEE7000010B5D0F8DC
:100210001822044692F80034022B07D0032B05D095
:10022000052B03D0062B01D0092B13D1022082F815
:100230000004002382F8013482F8023482F8033487
:1002400082F8043482F8050482F80634C2F80834CF
:10025000C2F80C340848407DC00607D5204602F09D
:10026000ADFB2046BDE8104002F0A2BA4888BDE8C8
:10027000104000F0ADBA00004400002030B40B463E
:10028000D0F81812DC8891F800248CB1022A01D031
:10029000052A11D15A88C1F80824DA880323C1F845
:1002A0000C2481F8003481F8053430BC01F07ABDAB
:1002B000052A05D0022A03D030BC194601F067BDDB
:1002C000012081F80704062281F80024002081F82B
:1002D000020481F8030481F8040481F8052430BC89
:1002E0007047000070B5D0F818420546002194F818
:1002F0000004032802D0062845D128E0D4F80C04D5
:1003000018B3042084F8000484F8021484F8031459
:1003100084F8041484F80504D4F8080410B920788B
:10032000412809D0D5F81C12D4F8100404F2014277
:100330008B690121984726E0D5F81C12D4F81004E7
:1003400004F201428B690021F4E7052011E094F8E2
:100350000704012801D038B115E0072084F8000413
:10036000012284F8022408E00B48007D40070AD5EA
:10037000022084F8000484F8021484F8031484F83A
:10038000041484F8050404F201412846BDE87040D5
:10039000062201F021BD00004400002010B50446F3
:1003A000D0F818121848002281F80724007D400771
:1003B0000BD5062081F8000481F8022481F803247B
:1003C00081F8042481F8050410BD082081F8000498
:1003D00081F8022481F8032481F8042481F80504BB
:1003E000204602F0EBFAD4F81C0280688047BFF385
:1003F0004F8F06480168064A01F4E061114301602D
:10040000BFF34F8F00BFFDE7440000200CED00E07C
:100410000400FA0570B50B460546C988D0F81842A5
:100420000020B1B394F80014022906D0092904D0A1
:10043000C4F80C04C4F808044AE05988C4F8081445
:10044000DA88C4F80C2401B3012936D9092384F8C9
:10045000003484F8020484F8030484F8040484F863
:1004600005348802D4F81014A0F500600844D5F8CB
:100470001C124B69214698470146B4F80C0482B21D
:100480002846BDE8704001F0A7BC032A02D902212A
:1004900001E023E0092184F8001484F8020484F8C0
:1004A000030484F8040484F805142070212060708B
:1004B0004120A07003222146E2E70F2184F80014B6
:1004C00084F8020484F8030484F8040484F805140E
:1004D0002846BDE87040194601F059BC022184F855
:1004E000001484F8020484F8030484F8040484F8F3
:1004F000051470BD70470000002229B101291FD0EA
:10050000022920D04FF4407210490B6823F4407345
:100510000B600B6813430B600A6822F0F8020A6054
:100520000A68F82393FAA3F3B3FA83F3984040F0F0
:10053000020002430A60086840F480300860704797
:100540004FF48072E0E74FF40072DDE7103C0240A8
:100550001348016889050FD5016821F40071016015
:10056000016841F400610160016821F400610160EB
:10057000016841F400710160016849050FD5016807
:1005800021F480610160016841F4805101600168DB
:1005900021F480510160016841F48061016070477D
:1005A000003C024008490A6822F440720A600A6866
:1005B00042F004020A600A684FF4803343EA0020E4
:1005C00002430A6070470000103C0240064A13686C
:1005D00023F44073136013681360136843F001033E
:1005E0001360017070470000103C0240084910B5CC
:1005F0000C6824F440740C600C6844F440740C6083
:100600000C6844F001040C600260436010BD0000FF
:10061000103C0240074A136823F4407313601368C8
:1006200043F480731360136843F001031360018087
:1006300070470000103C0240074A136823F44073DF
:100640001360136843F400731360136843F00103ED
:100650001360016070470000103C024017490868B1
:10066000C206174805D5C26942F01002C2611022C5
:100670000A600A68920605D5C26942F00802C261A2
:1006800020220A600A68520605D5C26942F00402B7
:10069000C26140220A600A68120605D5C26942F0AA
:1006A0000202C26180220A600A68920705D5C26907
:1006B00042F02002C2610220086070470C3C0240F8
:1006C000CC00002070B5114904460020C86100F03C
:1006D00013FA06460E4D09E0601C07D024B100F065
:1006E0000BFA801BA04201D9032070BD2868C0030B
:1006F000F2D42868C00701D001202860286810F0D3
:10070000F200F2D0FFF7AAFF012070BDCC0000205C
:100710000C3C02400021A0F100634FF48042934260
:100720003FD321490144914201D2012139E01F49BF
:100730000144914201D2022133E01D49014491421A
:1007400001D203212DE01B490144B1F5803F01D2C4
:10075000042126E0184942184FF400318A4201D2A0
:1007600005211EE0154A02448A4201D2062118E002
:10077000134A02448A4201D2072112E0114A02447C
:100780008A4201D208210CE00F4A02448A4201D277
:10079000092106E00D4A1044884201D20A2100E0F6
:1007A0000B2108467047000000C0FFF70080FFF7EC
:1007B0000040FFF70000FFF70000FEF70000FCF725
:1007C0000000FAF70000F8F70000F6F70000F4F771
:1007D00031B500F091F9009C0546601C00D0641C06
:1007E00000F08AF9401BA042FAD338BD2DE9F0474A
:1007F000044622480F46017E01290AD00121804685
:1008000001764CF250394846FFF75CFF020003D0F6
:100810002FE00220BDE8F0874FF0FF3038602068FD
:10082000174D012801D0A6681CE0207C6168FFF705
:10083000B9FE4846FFF746FF0246286820F004004C
:10084000286014E0217C3046FFF756FE4846FFF74B
:1008500039FF0200286820F0FA00286001D03E60CD
:1008600005E0761CD4E902100844B042EAD8FFF74C
:100870006FFE002188F818101046CBE7CC0000204E
:10088000103C02400348016841F000410160002033
:1008900070470000103C02402DE9F0471B4E054612
:1008A0001446307E1F468946012808D00120307644
:1008B0004CF250384046FFF705FF18B114E0022013
:1008C000BDE8F0879DB1012D16D0022D19D022462A
:1008D0003B464846FFF78AFE4046FFF7F3FE0C49C9
:1008E0000A6822F001020A6000213176E8E7E1B2ED
:1008F0004846FFF76BFEEFE7A1B24846FFF78AFED6
:10090000EAE721464846FFF797FEE5E7CC000020DE
:10091000103C024006480068002807DA04480549F0
:100920000C380160044901600020704701207047C5
:10093000103C024023016745AB89EFCD2DE9F84F0C
:10094000DFF87CB100224FF001084FF0030A4FF0AE
:100950000F090BF1040E00BF0B6808FA02F42340E4
:10096000A3426ED14D68022D01D0122D0ED1D508B3
:1009700000EB850CDCF820505607F70E09FA07F655
:10098000B5430E69BE402E43CCF820600668550082
:100990000F790AFA05FC07F0030726EA0C06AF40B8
:1009A000374307604E68012E05D0022E03D0112E6A
:1009B00001D0122E0ED18668CF6826EA0C06AF4011
:1009C000374387604668A6430C79C4F3001494400B
:1009D00034434460C6688C6826EA0C06AC40344355
:1009E000C4604C68E40065D5364C256845F4804504
:1009F0002560246822F0030504F480440094324CFE
:100A00002E19D6F8084895072F0F09FA07F5AC43B9
:100A10002E4DA84201D1002524E02D4DA84201D140
:100A200001251FE02B4DA84201D102251AE02A4DD5
:100A3000A84201D1032515E0284DA84202D1042582
:100A400010E037E0264DA84201D105250AE0254DEA
:100A5000A84201D1062505E0234DA84201D1072572
:100A600000E00825BD402543C6F80858DBF80040E3
:100A70005D464E689C43F60300D51C432C60DEF8AF
:100A8000004075464E689C43B60300D51C432C605D
:100A90000B4D08352C684E689C43F60200D51C436C
:100AA0002C60074D0C352C684E689C43B60200D56F
:100AB0001C432C60521C102AFFF44EAFBDE8F88F87
:100AC000003C014044380240003001400000024038
:100AD0000004024000080240000C024000100240E6
:100AE0000014024000180240001C02400069084047
:100AF00000D00120704700000148006870470000E6
:100B00000400002002480168491C01607047000091
:100B1000040000200B4810B5016841F40071016029
:100B2000016841F480610160016841F480710160F5
:100B3000032000F075F8002000F006F800F018F827
:100B4000002010BD003C024010B5044607484FF499
:100B50007A710068B0FBF1F000F09BFF00222146A3
:100B6000501E00F03DF8002010BD000000000020E5
:100B700010B5032000F054F8002211466FF00B006E
:100B800000F02EF8002211466FF00A0000F028F85D
:100B9000002211466FF0090000F022F800221146F1
:100BA000501F00F01DF800221146101F00F018F829
:100BB00000221146901E00F013F80022BDE81040FC
:100BC0001146501E00F00CB800F01F0201219140A8
:100BD0004009800000F1E020C0F8001170470000DB
:100BE000F0B40E4B1B680C46C3F30223C3F1070598
:100BF000042D00D90425191D072901D2002300E086
:100C0000DB1E012606FA05F1491E214099409E404F
:100C1000761E16403143F0BC00F0C4BF0CED00E07E
:100C2000064900F0070208684FF6FF03184040EA43
:100C30000220034A10430860704700000CED00E0FA
:100C40000000FA050068416200207047F0B50068B6
:100C50000023446A31B1856A4FF4827604EB15446F
:100C60004D1E0AE044EA024181620FE006EB830771
:100C7000C7595B1C04EB1744DBB2AB42F6DB4FF405
:100C8000807303EB810144EA024242500020F0BD30
:100C9000D0F8EC0301F0EFBBC1EBC10200EB820224
:100CA000D0F8EC03526C01F05CBBC1EBC10200EB6D
:100CB0008202D0F8EC03D2F8042201F0A7BBD0F8EE
:100CC000EC0301F0DABB70B50A460446090602F0EF
:100CD0007F0005D5C0EBC00104EB8101383105E090
:100CE000C2EBC20104EB810101F5FC7100258D709E
:100CF0000870D009487094F8B803012809D0012081
:100D000084F8B803206802F090F884F8B853002003
:100D100070BD022070BD70B504460D460E0601F090
:100D20007F00C0EBC00104EB810101D5383101E047
:100D300001F5FC71ED0908704D708A60CB7000D030
:100D4000C8800025022B00D10D7194F8B80301284A
:100D500009D0012084F8B803206801F03DFE284640
:100D600084F8B85370BD022070BD70B50C4601F018
:100D70007F05C5EBC50100EB8101C1F80C32C1F85C
:100D800004220023C1F8103281F8F93181F8F851BA
:100D9000036901F5FC71012B00D10A616206027C36
:100DA000006803D002F0A2F8002070BD01F07EFFC1
:100DB000FAE770B50D460446090605F07F0005D533
:100DC000C0EBC00104EB8101383105E0C5EBC50182
:100DD00004EB810101F5FC7101228A700870E809B9
:100DE000487094F8B803012807D084F8B823206825
:100DF00002F04DF8680602D007E0022070BD217CA9
:100E000004F56F72206801F0F1FF002084F8B80348
:100E100070BD70B50C4601F07F05C5EBC50100EB58
:100E20008101CB644A6400230B65012381F83930CA
:100E300001F8385F0369012B00D10A616206027C68
:100E4000006803D002F052F8002070BD01F02EFFC0
:100E5000FAE700002DE9F84F044600680026054631
:100E600002F098F9002875D1206802F0BCF900283A
:100E700070D0206802F0B7F9800704D52068416976
:100E800001F002014161206802F0ADF9010304F5AF
:100E90006F704FF0010B4FF0000A00904DD52068A5
:100EA00002F083F9074646E0F80742D0F1B2206825
:100EB00002F091F98046C00728D005EB4612C2F82F
:100EC00008BB2069012811D1C6EBC60004EB8001E4
:100ED000D2F8102BD1F80002C2F31202821AC1F824
:100EE0001022D1F804221044C1F80402F1B22046C5
:100EF000FFF7DBFE2069012808D13EB9D4F80C02C7
:100F000020B920680121009A01F070FF5FEA0870A3
:100F100007D5204600F0DCFA05EB46110820C1F8A1
:100F2000080B5FEAC86004D505EB46111020C1F834
:100F3000080B7F08761C002FB6D1206802F053F909
:100F400040034FF040095ED5206802F027F90746BC
:100F5000002656E0D2E1F80751D0F1B2206802F045
:100F60002BF98046C00724D0D5F834280BFA06F0B8
:100F70008243C5F8342805EB4610C0F808B920694B
:100F8000012807D1C6EBC60004EB8000D0E910129F
:100F900011444164F1B22046FFF77EFE206901282A
:100FA00007D136B9E06C20B920680121009A01F020
:100FB0001DFF5FEA087004D505EB46110820C1F853
:100FC00008095FEAC86004D505EB46111020C1F896
:100FD00008095FEA486003D505EB4611C1F8089996
:100FE0005FEA887004D505EB46110220C1F80809B4
:100FF0005FEA086003D53146204600F0E9FD7F082E
:10100000761C002FA7D1206802F0EDF800280DDA39
:10101000D5F8040820F00100C5F80408204600F0C7
:101020003DFA2168486900F000404861206802F0FC
:10103000DAF800050BD5D5F80808C00702D020461D
:1010400000F07AFA2068416901F40061416120688A
:1010500002F0C9F8C0044CD5D5F8040820F001000E
:10106000C5F804081021206802F064F80020FF2170
:1010700007E000BF05EB4012C2F80819C2F8081BD0
:10108000401C62688242F5D84FF0FF30C5F818085E
:10109000D5F81C0840F00110C5F81C08206B60B1A1
:1010A000D5F8840840F00B00C5F88408D5F844084A
:1010B00040F00B00C5F844080BE0D5F8140840F0E8
:1010C0000B00C5F81408D5F8100840F00B00C5F85F
:1010D0001008D5F8000820F4FE60C5F80008217C4F
:1010E0002068009A01F082FE2168486900F480506F
:1010F0004861206802F077F880047DD5206801F00F
:10110000ABFC2068C16821F47051C160206802F016
:1011100023F878B10320C4F81490E06000F0E2FAFC
:101120007749784A014491420AD22068C16841F463
:10113000705158E04FF40070C4F80CA0606136E0C4
:101140007149724A0144914204D22068C16841F455
:10115000605148E06E496F4A0144914204D22068D0
:10116000C16841F450513EE06B496C4A01449142E0
:1011700004D22068C16841F4405134E06849694AAA
:101180000144914204D22068C16841F430512AE000
:101190006549664A0144914204D22068C16841F41D
:1011A000205120E06249421862498A4204D22068F4
:1011B000C16841F4105116E05F49604A0144914210
:1011C00004D22068C16841F400510CE05C49084435
:1011D0005C4988422068C16803D241F4E05102E0D2
:1011E0000AE041F4C051C160204600F047F9206890
:1011F000416901F400514161206801F0F4FFC0062B
:1012000036D52168886920F010008861D5F82080E3
:1012100008F00F00C0EBC00004EB8007C8F34340A8
:1012200007F5FC77022802D0062812D01BE047F60B
:10123000F07018EA000F16D0C8F30A12904628463C
:10124000F96801F0D4FFF8684044F860B869404498
:1012500008E008222846009901F0C9FFB969C8F3DF
:101260000A100844B8612068816941F01001816169
:10127000206801F0B8FF000707D5204600F012F9FA
:101280002068416901F008014161206801F0ABFF6D
:10129000C00208D5F1B2204600F056F82068416936
:1012A00001F480114161206801F09DFF800208D5A2
:1012B000F1B2204600F04CF82068416901F40011B9
:1012C0004161206801F08FFF400007D52046FFF7FD
:1012D000DFFC2068416901F080414161206801F034
:1012E00082FF40070AD520684568680702D5204676
:1012F000FFF7E5FC2068416829434160BDE8F88FAD
:10130000405327FF00350C00401E1BFF40420F00DA
:1013100000DC0BFF804F1200808CF9FE20D61300FA
:1013200060B6E5FE60E3160000D3CEFE40771B00FA
:10133000C05BB3FEC091210000CA91FE2075380049
:10134000E05459FEE09C4100D0F8EC0301F0EEB807
:10135000D0F8EC0301F0ECB8F0B58BB004004FF01E
:10136000000556D0032084F8B903204600F054F855
:10137000206801F095FC04F1100128220F46684610
:10138000FEF71EFF94E80F0001F080FB00212068AB
:1013900001F03DFF01260020C5EBC50104EB8101F2
:1013A00081F8396001F8385FCD80C8708860C86006
:1013B0006D1C48610F2DEFD300214FF4827300BFE5
:1013C000C1EBC10204EB820203EB810582F8F90153
:1013D00082F8F811D18782F8FB01C2F80002C2F846
:1013E0000402C2F80C0222685051491C0F29E7D3AD
:1013F000282239466846FEF7E3FE94E80F0001F024
:10140000AFFB84F8B963206801F09EFB00200BB0AD
:10141000F0BD0120FBE7000000B5006887B0B0F127
:10142000A04F25D14FF4C050009002200190002021
:101430000290032003900A20049069460D48FFF7AC
:101440007DFA0D48016841F0800101600A481030C2
:10145000016841F4804101600068002200F480408E
:10146000059011464320FFF7BBFB4320FFF7ACFB81
:1014700007B000BD000002403438024010B50446F9
:10148000C068012100B90021D4F8EC0301F0A6F8EE
:10149000D4F8EC03BDE8104001F06FB8D0F8EC03CD
:1014A00001F08AB8D0F8EC0301F08CB810B504460E
:1014B00090F8B803012809D0012084F8B803206807
:1014C00001F0BBFE002084F8B80310BD022010BD5F
:1014D000D0F8EC2300F56F71104601F092B810B50A
:1014E000044690F8B80301280CD0012084F8B80312
:1014F000206801F01DFB206801F006FE002084F842
:10150000B80310BD022010BD10B5044690F8B80312
:1015100001280FD0012084F8B803206801F0C0FB37
:10152000206801F09BFE206801F00EFB002084F88B
:10153000B80310BD022010BD10B50446D0F8EC036E
:1015400001F0BCF82068D0F8001E41F00101C0F89D
:10155000001E206A002804D00248016841F00601FC
:10156000016010BD10ED00E02DE9F047DFF8649157
:1015700005460F46D9F8000000F00F01F8B280468A
:10158000B94208D2014689F80010D9F8000000F0ED
:101590000F00B84274D128784F4C800705D52068D9
:1015A000A96820F0F000084320602878C00759D0CF
:1015B00049496868083901281AD002281BD0032835
:1015C00019D00968890700295ADA216821F0030136
:1015D00001432160FFF790FA6968064641F28830BE
:1015E000012911D002291DD00329824627D035E0D8
:1015F00009688903E7E709688901E4E7FFF77CFAEE
:10160000811B514501D926E082462068C0F3810044
:101610000128F3D126E000BFFFF76EFA811B514588
:1016200001D918E082462068C0F381000228F3D176
:1016300018E000BFFFF760FA811B51450BD8206806
:10164000C0F381000328F5D10CE000BFFFF754FA86
:10165000811B514502D90320BDE8F087206810F0B6
:101660000C0FF3D1D9F80010484601F00F01B94230
:1016700008D980F80080006800F00F00B84201D05F
:101680000120E9E72878400705D52068E96820F4BB
:10169000E050084320602878000706D520682969B3
:1016A00020F4604040EAC100206000F021F8216889
:1016B000F02292FAA2F201F0F001B2FA82F2D140E5
:1016C000064A515CC840064908600020FFF73CFA12
:1016D0000020C1E7003C02400838024030340008D6
:1016E0000000002001480068704700000000002052
:1016F00030B51948006810F00C01184812D0184C89
:1017000004290ED008290DD11349091F0A6802F0D7
:101710003F030A68550247F6C07204D5B4FBF3F0E4
:1017200003E0204630BDB0FBF3F00B6809681340BE
:1017300092FAA2F2B2FA82F2D34058434FF4403206
:1017400092FAA2F201F44031B2FA82F2D140491C7D
:101750004900B0FBF1F030BD083802400024F4002D
:1017600040787D012DE9F84F0546DFF8FC920078BE
:10177000A9F1040BC007ABF1040449D0D9F800105B
:101780004846C1F38101012908D00068C0F38100F7
:1017900002280AD1DBF80000400206D52068800349
:1017A00036D5686800286ED032E06868B0F5803FB2
:1017B00010D0B0F5A02F206810D020F48030206029
:1017C000206820F4802020606868A0B1FFF794F9B9
:1017D00006460CE0206840F48030F4E740F48020B6
:1017E0002060F7E7FFF788F9801B642871D820682C
:1017F0008003F7D50CE0FFF77FF9064605E000BF50
:10180000FFF77AF9801B6428F0D820688003F7D4AA
:101810002878964F80074FF0010A4FF0000841D515
:10182000D9F80010484611F00C0F08D00068C0F33A
:10183000810002280AD1DBF80000400206D42068AB
:10184000800713D5E86801281DD10FE0E868D8B1FA
:10185000C7F800A0FFF750F9064604E0FFF74CF97F
:10186000801B0228C2D820688007F7D52068F8229C
:1018700092FAA2F22969B2FA82F220F0F8009140BD
:10188000084320600EE0ECE0C7F80080FFF734F971
:10189000064604E0FFF730F9801B022819D82068BB
:1018A0008007F7D42878000724D57148696989B181
:1018B000C0F800A0FFF720F9064604E0FFF71CF986
:1018C000801B022805D868486C3000688007F5D571
:1018D00010E07AE0C0F80080FFF70EF9064604E059
:1018E000FFF70AF9801B02286FD85F486C30006848
:1018F0008007F5D42878400753D55B483830016815
:1019000041F080510160006800F08050009059481B
:10191000016841F480710160FFF7EEF8064604E0CB
:10192000FFF7EAF8801B02284FD852480068C0052C
:10193000F6D54D4EA868683601280FD005283068C6
:1019400010D020F001003060306820F004003060DA
:10195000A868B8B1FFF7D0F800900FE0306840F009
:101960000100F4E740F004003060F7E7FFF7C4F847
:101970000099411A41F2883081426AD83068800764
:10198000F4D50EE0FFF7B8F8009007E0FFF7B4F8E1
:101990000099411A41F2883081425AD83068800754
:1019A000F4D4A869E8B3D9F80010C1F38101022981
:1019B00057D00228C7F8608003D0FFF79DF805468E
:1019C0004AE0FFF799F8064605E042E0FFF794F891
:1019D000801B02283DD820688001F7D4D5E9070193
:1019E000084347F6C07292FAA2F2696AB2FA82F22A
:1019F0009140AA6A4FF0FF3303EB52024FF4403399
:101A000093FAA3F3B3FA83F39A40114308434FF0D8
:101A1000706292FAA2F2E96AB2FA82F29140084345
:101A200000E01CE0CBF80000C7F860A0FFF764F806
:101A3000054604E0FFF760F8401B022809D820683B
:101A40008001F7D50BE000BFFFF756F8401B0228D6
:101A500002D90320BDE8F88F20688001F4D400206B
:101A6000F8E70120F6E7000008380240000047428E
:101A7000800E4742007000404FF0E02104280869C2
:101A800003D020F004000861704740F00400FAE73A
:101A9000704710B5401EB0F1807F01D3012010BD0A
:101AA0004FF0E02460610F21601700F07BF8002008
:101AB000A06107202061002010BD10B5FFF7E8FFEE
:101AC00010BDFEE710B5FEF7DDFE0249F320086009
:101AD000002010BD0C3C024010B586B000240594D7
:101AE000FEF718FE0290022100940120CDE90301C7
:101AF00005A96846FEF77AFE002800D0012006B04E
:101B000010BD0020322353709070D070704710B514
:101B1000FEF700FF002010BD10B5002304E000BF59
:101B200010F8014BCC545B1C9342F9D3084610BD0E
:101B30002DE9F04117460D460646002410E03259C3
:101B4000291900230220FEF7A7FE10B10120BDE8ED
:101B5000F08130592959884201D00220F7E7241D2D
:101B6000BC42ECD30020F2E710B500220849094836
:101B700000F0D2FB0849074800F0CDFD07490548B1
:101B800000F01EFABDE81040024800F011BE00004F
:101B900074000020DC07002008000020A8000020BE
:101BA000FEE770470907090E002806DA00F00F006B
:101BB00000F1E02080F8141D704700F1E02080F86B
:101BC000001470470148FFF745B90000EC01002000
:101BD0002DE9F84F0F46C1EBC70100EB81058246A6
:101BE0000668D5E91301441A286C3835A04200D2A2
:101BF0000446E01C4FEA900806EB471916E0441A29
:101C0000A868A04200D20446E01C4FEA90089AF867
:101C100010000090A3B2FAB23046E96801F040FB30
:101C2000E8682044E860A8692044A861D9F8180948
:101C300080B2404505D9D5E90501814201D200288D
:101C4000DDD134B90120D6F83418B8408143C6F844
:101C500034180020BDE8F88F7047704710B5FEF7C4
:101C600051FFBDE81040FFF728BF000030B5254800
:101C700093B00025016841F080510160006800F0D8
:101C8000805011902048016841F480410160006853
:101C9000022400F480401190012000900004019083
:101CA0008001CDE90640192008904FF4A870CDE9D5
:101CB000090407200B906846FFF754FD00B1FEE7CA
:101CC0000CA90F2081E831004FF4A0500F904FF481
:101CD0008050109005210CA8FFF746FC00B1FEE7EC
:101CE000FFF700FD4FF47A71B0FBF1F0FFF7D1FE82
:101CF0000420FFF7C1FE00221146501EFEF770FFC0
:101D000013B030BD403802400070004010480168F8
:101D100041F4700101600F48016841F00101016068
:101D20000C4A00210832116002680B4B1A40026015
:101D3000031D0A4A1A60026822F4802202600548E4
:101D40000C30016002495806803908607047000075
:101D500088ED00E000380240FFFFF6FE103000245E
:101D600010B5D0F8142252689047002010BD1346D9
:101D700010B50A46002100F0F0FB002010BD13460C
:101D800010B50A46002100F0A2FC002010BD10B5DD
:101D90000446802100F062FC2046BDE8104000218E
:101DA00000F05CBC10B50323C0F80821C0F8F43182
:101DB000C0F80C2113460A46002100F0CEFB00209B
:101DC00010BD10B505210023C0F8F4111A461946BC
:101DD00000F0C3FB002010BD10B502238261C0F8E3
:101DE000F431C26113460A46002100F070FC002065
:101DF00010BD10B504210023C0F8F4111A4619468D
:101E000000F065FC002010BD0020704700207047E6
:101E100070B50446D0F8180200250221C0F8085415
:101E2000C0F80C5480F8001480F8015480F80514B0
:101E3000D4F8180248B1D4F81C0204F5067480687E
:101E40008047206801F052FA2560002070BD002014
:101E500070477CB5D0F8184294F80014042902D0D9
:101E6000072963D064E0D4F80814002589B101295A
:101E70003AD9D0F81C028902D4F81024A1F50061E7
:101E800011440369D4F80C242046984760B302201B
:101E90007CBD217821B1212907D0412916D019E034
:101EA000D4F80C1401291FD014E0D4F80C1405291F
:101EB00010D16078A17800EB0120E17800EB0140BF
:101EC000217900EB0160C4F810040DE0D4F80C1483
:101ED000052919D0C4F80C540121ADF806108DF86D
:101EE00000506946FFF753FFC4F80C540320C4F8B0
:101EF000085484F8000484F8025484F8035484F8E5
:101F0000045484F8050413E06178A27801EB0221FF
:101F1000E27801EB0241227901EB0261C4F810146E
:101F2000D0F81C02C26808469047AFE7FEF736FAC1
:101F300000207CBD1B210180004870474400002028
:101F40000A210180004870476000002010B5062972
:101F500007D8D0F81C020449006800F0BAF902481A
:101F600010BD002010BD0000EC00002010B504469C
:101F70004FF4836001F026FAC4F81802C0B10021C2
:101F8000C0F81414C0F808140A4A00F58060C0E9CB
:101F90000312C1710222027041708170C17001711F
:101FA00042718171D4F81C0240688047002800D03B
:101FB000022010BD00C000080020704700207047BC
:101FC00009B1C0F81C1200207047002070470000C3
:101FD0002DE9F0410B4600251E78D0F818122A464C
:101FE0002C4616F0600660D0202E0DD15E780022BF
:101FF0000225072E78D2DFE806F05404080C0F31D2
:1020000035001946FEF73AF972E01946FEF702FA72
:102010006EE0FEF767F96BE091F800040A2810D033
:102020000A2081F800040E2381F8013481F802248B
:1020300081F8032481F8042481F8050481F806243A
:1020400056E081F8005481F8012481F8022481F8D7
:10205000032481F8042481F80554EFE7012201F5F7
:10206000806135E091F80004022807D0032805D0EC
:10207000052803D0062801D0092839D181F8005459
:1020800081F8012481F8022481F8032481F80424D2
:1020900081F8055481F80624C1F80824C1F80C24FD
:1020A00026E01946FEF7B2F822E05E78062E04D04C
:1020B0000A2E11D00B2E17D112E059882126B6EB2B
:1020C000112F04D1DA880E4D092A00D90922294698
:1020D000FFF782FE0CE007E0012201F21441F7E76E
:1020E0005A8812F0FF0F06D01946FFF750FE02245F
:1020F0002046BDE8F081D0B2C1F81404F8E7000032
:102100005600002010B50A46024903A000F0E1F88D
:10211000004810BDDC05002044465520436F6E6624
:102120006967000012200880004870479400002072
:1021300010B50A46024903A000F0CBF8004810BDD4
:10214000DC05002044465520496E74657266616363
:1021500065000000042008800048704790000020BF
:1021600010B50A46024903A000F0B3F8004810BDBC
:10217000DC05002053544D6963726F656C656374B0
:10218000726F6E696373000010B50A46024903A0BE
:1021900000F09FF8004810BDDC05002053544D337B
:1021A0003220446F776E4C6F6164204669726D77A0
:1021B00061726520557064617465000010B50A464F
:1021C000024903A000F085F8004810BDDC0500209E
:1021D00030303030303030303030314100000000AD
:1021E000F8B5044648880D46010A082954D2DFE8AC
:1021F00001F05304091753534951D4F81012207CAD
:102200000A6819E0207C02260028D4F8140205D0C0
:10221000C16A68468847014646704AE0816AF8E725
:10222000C1B2062926D2DFE801F0030A0F14191EF5
:10223000D4F81012207C4A686946904718E0D4F818
:102240001012207C8A68F7E7D4F81012207CCA6844
:10225000F2E7D4F81012207C0A69EDE7D4F81012E6
:10226000207C4A69E8E7D4F81012207C8A69E3E709
:1022700001461EE0C1B2D4F814026A46836B2046C0
:102280009847F5E7207C38B9D4F81402416B6846CA
:102290008847EDE7207C20B129462046FFF777FDEF
:1022A000F8BDD4F81402016B684688470146072040
:1022B0004870BDF800000028F2D0EA88002AEFD06C
:1022C000824200D90246ADF800202046FFF784FD87
:1022D000F8BD70B5002300281DD00446002502E09B
:1022E0006D1CEDB2641C2678002EF9D1022404EB9B
:1022F00045041480CC545B1C0322CA5400245B1C8C
:1023000006E0CA545B1CDAB28C54521CD3B2401C97
:102310000278002AF5D170BD10B580B1D0F8143222
:1023200013B10023C0F8143209B1C0F81012012112
:1023300080F8FC11027000F0ABF8002010BD022004
:1023400010BD10B50024D0F82002FEF7BCFC30B15F
:10235000012801D0022801D0022400E001242046F7
:1023600010BD2DE9F0411746044641B1D4F81402DE
:1023700042698AB394F8FC01032842D043E0D4F8C0
:10238000F411002504F11400022933D1D0E90263CD
:102390009E4207D9F31A83609AB239462046FFF766
:1023A000EEFC12E04068B0FBF3F103FB1101A1B9B0
:1023B000984212D3D4F8F81188420ED20022114666
:1023C0002046FFF7DCFCC4F8F85100231A461946F2
:1023D000204600F0C2F80DE012E0D4F81402C16803
:1023E00029B194F8FC01032801D1204688472046F2
:1023F000FFF7E7FC94F80002012804D184F80052AA
:1024000001E0204690470020BDE8F08170B51546F8
:10241000044641B1D4F8140282693AB394F8FC013D
:10242000032824D025E0D4F8F41104F582700329A0
:102430001FD1D0E902218A420BD9531A8360084682
:10244000834200D303469AB229462046FFF78FFC09
:102450000FE0D4F81402016929B194F8FC010328B3
:1024600001D1204688472046FFF7C3FC01E0204603
:102470009047002070BD0020704710B5012180F802
:10248000FC11D0F81422017952689047002010BD49
:1024900010B5017861BB17490222C1F8EC03C0F8FE
:1024A00020124FF0A0400860042048600020C1E9DD
:1024B0000320C1E90502C861086201224862C1E93E
:1024C0000B200846FEF748FF20B14FF49A710AA08E
:1024D00000F0FBFE80210748FEF7B4FB40220021FC
:1024E0000448FEF7B3FB802201210248FEF7AEFB51
:1024F000002010BDEC0100202E2E2F5372632F758B
:102500007362645F636F6E662E6300000A0601F0FB
:102510007F01D0F82002C1EBC10100EB810002D5A0
:1025200090F83A00704790F8FA0170470020704721
:102530000020704770B51D4613460024D0F82002D5
:102540002A46FEF7E8FB30B1012801D0022801D06D
:10255000022400E00124204670BD10B50024D0F80C
:102560002002FEF702FC30B1012801D0022801D080
:10257000022400E00124204610BD70B5002204466C
:1025800040231146FFF7D6FF40252B46002280212D
:102590002046C4F81051FFF7CDFF0120256284F8D2
:1025A000FC01D4F8180228B1D4F814022179426849
:1025B00020469047002070BD90F8FD1180F8FC1176
:1025C0000020704710B590F8FC11032904D1D0F811
:1025D0001412C96901B18847002010BD01740020A0
:1025E000704710B50024D0F82002FEF75FFF30B12D
:1025F000012801D0022801D0022400E00124204655
:1026000010BD70B5044600F50270054600F06FF885
:102610000120C4F8F401B4F80E02C4F8F80194F8EB
:10262000080210F01F010AD001290DD0022910D094
:1026300000F08001204600F011F8002070BD29460E
:10264000204600F0BAF8F8E72946204600F09CF949
:10265000F3E72946204600F029F9EEE710B50024FB
:10266000D0F82002FEF7A5FB30B1012801D00228E6
:1026700001D0022400E00124204610BD10B5002442
:10268000D0F82002FEF72BFF30B1012801D002283C
:1026900001D0022400E00124204610BD10B5002422
:1026A000D0F82002FEF730FF30B1012801D0022817
:1026B00001D0022400E00124204610BD90F8FC1156
:1026C00080F8FD11042180F8FC110020704710B53E
:1026D0000024D0F82002FEF79CFB30B1012801D085
:1026E000022801D0022400E00124204610BD0A780F
:1026F00002704A7842708A78CB7802EB03224280DB
:102700000A794B7902EB032282808A79C97902EB3C
:102710000121C18070470246002011B1C2F8141295
:1027200070470220704710B5D0F8142202241AB165
:102730001268904700B90024204610BD70B50E46BF
:102740001A4D897804462970012928D894F8FC018B
:10275000022802D0032822D105E099B1032061604C
:1027600084F8FC0109E091B1606888420AD0C1B2E6
:102770002046FFF7F5FA297861602046FFF7D3FF7E
:1027800002280CD02046BDE87040FFF732BB022083
:1027900084F8FC0120466160FFF7E2FAF2E7314677
:1027A0002046BDE87040FFF7F2BA00006A00002042
:1027B00010B5FFF763FF002010BD2DE9F0410026A2
:1027C0004B78012532460A2B43D2DFE803F03C5810
:1027D0004251420805422A27FFF702FD63E0044602
:1027E0008888C8B9C888B8B9887800F07F0794F895
:1027F000FC01032810D084F8FE7139462046FFF70B
:10280000F0FE2046FFF7F5FA1FB1022084F8FC0124
:1028100049E084F8FC5146E020461AE0FFF78EFFBD
:1028200041E0CB88012B14D190F8FC31022B02D06F
:10283000032B0ED104E08260012200F1080114E0B4
:102840000122011D11E090F8FC21022A04D0032A84
:1028500002D0FFF79CFA26E0C560D0F8041209B157
:102860000321C160022200F10C01FFF7B5FA1AE062
:1028700004464888012816D1C4F804520BE00446E7
:1028800090F8FC01022801D00328C5D1488801280E
:1028900009D1C4F80422D4F8140282682046904773
:1028A0002046FFF7A6FA3046BDE8F08170B50D4628
:1028B0000446287800260979C0F34110012806D083
:1028C0006878A0B301281FD003283FD107E0D4F8CF
:1028D00014022946826820469047002070BD94F873
:1028E000FC01022817D003282CD1688828B921B10F
:1028F000802902D02046FFF7B1FED4F81402294601
:1029000082682046904713E094F8FC01022802D028
:10291000032817D103E0C9B180291BD116E06888CC
:10292000A0B9480604D02046FFF70BFDE5E703E019
:102930002046FFF75EFA09E094F8FC01022807D070
:1029400003280BD029462046FFF721FA304670BDF8
:102950004806FBD02046FFF781FEF7E7080601F0A6
:102960007F0004EB001501D5143501E005F58275F3
:102970002046FFF7CBFD00B1012028600222294646
:102980002046FFF729FAE1E770B5054690F8FC010B
:102990000C4603280DD1207901280AD8D5F8140255
:1029A000826828469047E08830B92846FFF721FA28
:1029B00002E02846FFF7EBF9002070BD10B5044691
:1029C0000179D0F814024268204690472046FFF76C
:1029D00065FE002010BD000030B54C781D4B012273
:1029E0000D78AA40012CD0F81C4818D044EA0242C5
:1029F000C0F81C280A7800EB4210D0F8002B120413
:102A00000BD4D0F8002B0C89C4F30A042243C978F4
:102A100043EA81410A43C0F8002B002030BD92B246
:102A20001443C0F81C480C7800EB4410D0F800297F
:102A30001204F2D4D0F800290D89C5F30A052A43FF
:102A4000C978890441EA84510A431A43C0F800292D
:102A5000E3E7000000800010D0F800196FF30A01CE
:102A6000C0F80019D0F80818C1F34101022905D1B6
:102A7000D0F8001941F00301C0F80019D0F804188B
:102A800041F48071C0F804180020704770B5044606
:102A9000049D06990D9801290CD0E06840F0400093
:102AA000E060204600F028F84FF48030A063012D4C
:102AB00016D01DE0A16B21F48031A163E1680D4ABD
:102AC0001140E160E16821F44011E160012803D187
:102AD000E06840F48010E060204600F00DF8E6E782
:102AE000A06840F00600A060A06840F02000A06050
:102AF000002070BDBFFFBDFF01220C4902E0521C47
:102B00008A420BD80369002BF9DA026942F001020C
:102B10000261012204E0521C8A4201D9032070475D
:102B20000369DB07F7D1002070470000400D030068
:102B300010B5D0F8041821F00201C0F804180320E1
:102B4000FDF746FE002010BD10B5D0F8041841F086
:102B50000201C0F804180320FDF73AFE002010BD62
:102B60002DE9F0470E460446DDE90A0A0025DDF8A6
:102B70003C80089F5FEA0801A16B11D041F400215D
:102B8000A1634FF00009C4F8009ED4F80018C4F8FF
:102B90000018012807D0D4F8000840F0030007E02F
:102BA00041F40011ECE7D4F800080BB140F001004B
:102BB000C4F800081021204600F0BCFA204600F0BE
:102BC000A9FA4846C4F81098C4F814984FF0FF3199
:102BD000C4F81818C4F81C984FF0904CFF230FE06D
:102BE00004EB4511D1F80029002A02DAC1F800C926
:102BF00001E0C1F80009C1F81009C1F808396D1CDD
:102C0000AE42EDD800210FE004EB4112D2F8005B98
:102C1000002D02DAC2F800CB01E0C2F8000BC2F8C6
:102C2000100BC2F8083B491C8E42EDD8D4F810189E
:102C300021F48071C4F81018012F0AD11449C4F886
:102C40003018D4F83018134A1143C4F83018D4F8A7
:102C50003018A0616FF0804060611FB9A06940F03A
:102C60001000A061A0690C490843A061BAF1000FEF
:102C700003D0A06940F00800A061B8F1010F03D1B2
:102C8000A06906490843A0610020BDE8F087000064
:102C9000000180000300010000383C800400004077
:102CA000816821F0010181600020704730B54D78C6
:102CB0004D4C0B7800EB4313012D28D0D3F8105B5B
:102CC0006FF31205C3F8105B0B7800EB4313D3F8D6
:102CD000105B2540C3F8105B4B690BB18B684B61EF
:102CE0000B7800EB4313D3F8104B44F40024C3F8E3
:102CF000104B0B7800EB4313D3F8104B8D68C5F3E2
:102D000012052C43C3F8104B012A5CD061E04D69D9
:102D1000002DD3F810593BD06FF31205C3F81059AA
:102D20000B7800EB4313D3F810592540C3F8105922
:102D30004C698B689C4200D94B610B7800EB4313C4
:102D4000D3F8104944F40024C3F810490B7800EB81
:102D50004313D3F810494D69C5F3120554EA05042D
:102D6000C3F810490B7800EB4313D3F8004944F043
:102D70000444C3F80049012A1ED04A6912B3D0F8AE
:102D800034280B78012199400A43C0F8342829E0FF
:102D90002540C3F810590B7800EB4313D3F81049C2
:102DA00044F40024C3F810490B7800EB4313D3F824
:102DB00010496FF31204D3E70A69097800EB411058
:102DC000C0F814290EE00B7800EB4313CA68C3F86F
:102DD000142B097800EB4110D0F8001B41F004419E
:102DE000C0F8001B002030BDFFFF07E00023C0F843
:102DF000103BD0F8103B43F40023C0F8103BD0F850
:102E0000103B43F01803C0F8103BD0F8103B43F0E0
:102E1000C043C0F8103B012905D1C0F8142B4FF076
:102E20008021C0F8001B002070474B780A7800EB27
:102E30004212012B0BD0D2F8003B23F40013C2F84E
:102E4000003BCA78032A17D0022A15D01DE0D2F819
:102E5000003923F40013C2F80039CA78032A01D0DC
:102E6000022A12D1097800EB4110D0F8001941F084
:102E70008051C0F8001908E0097800EB4110D0F843
:102E8000001B41F08051C0F8001B002070474B78B8
:102E90000A7800EB4212012B14D0D2F8003B002B31
:102EA00005DBD2F8003B23F08043C2F8003B0978F1
:102EB00000EB4110D0F8001B41F40011C0F8001BDA
:102EC00000207047D2F80039002B05DBD2F800391A
:102ED00023F08043C2F80039097800EB4110D0F8A4
:102EE000001941F40011C0F80019E9E778B54E78EF
:102EF0006FF06045834C0B7800EB4313012E2FD00D
:102F0000D3F8106B6FF31206C3F8106B0B7800EB5D
:102F10004313D3F8106B2640C3F8106B4B69002B9A
:102F20007DD08C6823445B1EB3FBF4F39BB20C781A
:102F300000EB4414D4F8106B05EAC3452E43C4F8E3
:102F4000106B0C7800EB4414D4F8105B8E685E4371
:102F5000C6F312031D43C4F8105B012A73D0B2E01C
:102F60004E6966B3D3F810696FF31206C3F810699F
:102F70000B7800EB4313D3F810692640C3F81069AF
:102F80004C698B681C44641EB4FBF3F305EAC3442C
:102F90000B7800EB4313D3F810592C43C3F81049B6
:102FA0000B7800EB4313D3F810494D69C5F31205B4
:102FB0002C43C3F81049CB78012B16D027E0D3F867
:102FC00010592540C3F810590B7800EB4313D3F880
:102FD000104944F40024C3F810490B7800EB431364
:102FE000D3F810496FF312040FE00B7800EB431392
:102FF000D3F8104924F0C044C3F810490B7800EB13
:103000004313D3F8104944F00054C3F81049012A7F
:1030100012D0CB78012B17D04B692BB300E037E0EF
:10302000D0F834380D780124AC402343C0F834384C
:10303000CB78012B08D017E00C7800EB44140B6917
:10304000C4F81439F4E738E0D0F80838DB050B7819
:1030500000EB4313D3F8004902D444F0005401E0DC
:1030600044F08054C3F800490B7800EB4313D3F8C5
:10307000004944F00444C3F80049CB78012B3ED109
:1030800000928A8A93B20A78C96800F009F936E09A
:103090000B7800EB4313D3F8104B8D68C5F3120582
:1030A0002C43C3F8104B0B7800EB4313D3F8104BB1
:1030B00044F40024C3F8104B4FE70B7800EB4313A4
:1030C000CA68C3F8142BCA78012A0FD1D0F808288F
:1030D000D2050A7800EB4212D2F8003B02D443F04A
:1030E000005301E043F08053C2F8003B097800EB45
:1030F0004110D0F8001B41F00441C0F8001B002033
:1031000078BD0000FFFF07E0816841F001018160A8
:1031100000207047002110220261054A491C91429B
:1031200001D9032070470369DB06F7D400207047FC
:10313000400D03000022202343EA8111016105496B
:10314000521C8A4201D90320704703699B06F7D4B9
:1031500000207047400D03000021D0F8082812F02D
:10316000060F15D0D0F80828C2F34102012A0CD06E
:10317000D0F80828C2F34102032A06D0D0F8080884
:10318000C0F34100022802D002E0032100E0022146
:1031900008467047406900F001007047D0F81818E1
:1031A000D0F81C08084080B27047D0F81818D0F842
:1031B0001C080840000C7047D0F81038D0F83428AC
:1031C000CA4002F0010243EAC21200EB4110D0F8FB
:1031D00008091040704700EB4111D1F8081BD0F8E6
:1031E000140808407047416980690840704710B56D
:1031F00003460020D21C920803F5805303E01C68AC
:1032000041F8044B401C9042F9D3084610BD10B55C
:10321000C26822F0C042C260012901D021B107E09A
:10322000C16841F0005102E0C16841F08041C160D5
:103230003220FDF7CDFA002010BDD0F8002822F48E
:10324000FE62C0F80028D0F800284FF4FE6303EABD
:1032500001110A43C0F800280020704710B5044649
:103260000020FF2104EB4012C2F80819C2F8081B25
:10327000401C0F28F6D34FF0FF30C4F81808002088
:10328000C4F81008C4F81408C4F81C082046FFF756
:1032900041FF10212046FFF74DFF002010BD000028
:1032A00030B50024039D6DB9DB1C9B0800EB023098
:1032B00000F5805004E000BF51F8042B0260641C4C
:1032C0009C42F9D3002030BDFEE7FEE702E008C8CB
:1032D000121F08C1002AFAD170477047002001E090
:1032E00001C1121F002AFBD17047000010B5002851
:1032F00021D0114B0022001F196803E0814203D83E
:103300000A4649680029F9D152B11368841A9C42CF
:1033100004D1006818441060104602E0506000E0DC
:10332000186039B102680B1A934203D10B681A4432
:1033300002604968416010BDC400002086B0FDF7FE
:10334000E9FBFEF793FC1A480021026842F0800274
:103350000260026802F080020592026842F00102F7
:1033600002600068134C00F0010005900120CDE9D7
:103370000001029069462046FDF7E0FAFEF7F4FBF3
:10338000A04627030C4E0D4C0D4D01214046FDF784
:10339000ADFB0028F9D120683040B842F5D1606813
:1033A00068602860216881F308888047EDE70000A5
:1033B00030380240000002400000FE2F00C000082C
:1033C0006C000020F0B50B30154D20F007010024F3
:1033D000144A0FE003688B420BD38B4205D95E1A67
:1033E00043184768C3E9006700E04368136002C000
:1033F00004E0021D10680028ECD12046002802D10C
:10340000286808B10020F0BD064A07481060074A46
:10341000121A22F00702C0E9002401202860D7E731
:10342000C8000020C4000020040A0020002A002058
:103430000000000000000000010203040607080964
:1034400040496E7465726E616C20466C61736820D1
:1034500020202F307830383030303030302F30333B
:103460002A3031364B612C30312A3031364B672CC3
:1034700030312A3036344B672C30372A3132384BD2
:1034800067000000A434000800000020CC00000009
:10349000CC32000870350008CC000020342D00002C
:1034A000DC3200080024F400000000006D1F00085A
:1034B000111E0008D11F0008531E00084F1E0008EF
:1034C000091E00080D1E0008CB1F0008B91F0008C8
:1034D000BD1F0008351F0008351F0008351F0008F4
:1034E000411F00084D1F000809021B00010102C016
:1034F000320904000000FE01020609210BFF000052
:10350000041A01000A060002000000400100000049
:1035100000000000000000002521000855210008DF
:103520006121000889210008BD210008052100084B
:1035300031210008040309041201000200000040C8
:10354000830411DF0002010203010000403400087F
:103550000F1B0008C51A0008D91A0008311B000803
:10356000191B0008031B00080000000000000000F9
:040000050800018965
:00000001FF
