:020000040800F2
:10C000004845002059C20008FFEF00081FE400085F
:10C01000FDEF00083FC3000831F1000800000000F8
:10C020000000000000000000000000009DC10008AA
:10C0300041C3000800000000F1C1000829F0000819
:10C0400073C2000873C2000873C2000873C20008FC
:10C0500073C2000873C2000873C2000873C20008EC
:10C0600073C2000873C2000873C2000873C20008DC
:10C0700073C2000873C2000873C2000873C20008CC
:10C0800073C2000873C2000873C2000873C20008BC
:10C0900073C2000873C2000873C2000873C20008AC
:10C0A00073C2000873C2000873C2000873C200089C
:10C0B00073C2000873C2000873C2000873C200088C
:10C0C00073C2000873C2000873C2000873C200087C
:10C0D00073C2000873C2000873C2000873C200086C
:10C0E00073C2000873C2000873C2000873C200085C
:10C0F00073C2000873C2000873C2000873C200084C
:10C1000073C2000873C2000873C2000873C200083B
:10C1100073C2000873C2000873C2000873C200082B
:10C1200073C2000873C2000873C2000873C200081B
:10C1300073C2000873C2000873C2000873C200080B
:10C1400073C2000873C2000873C2000873C20008FB
:10C1500073C2000873C2000873C2000873C20008EB
:10C1600073C2000873C2000873C2000873C20008DB
:10C1700073C2000873C2000873C200080000000008
:10C1800073C2000873C20008DFF80CD000F0A8F8F2
:10C190000048004701250108484500202B4B19683D
:10C1A0000868B0E8F04F80F30988BFF36F8F4FF055
:10C1B000000080F311887047000000000648006806
:10C1C000006880F3088862B661B6BFF34F8FBFF393
:10C1D0006F8F00DF00BF00BF08ED00E0DFF80C004C
:10C1E000016841F470010160704700BF88ED00E014
:10C1F000EFF30980BFF36F8F144B1A681EF0100F16
:10C2000008BF20ED108A20E9F04F106008B44FF00D
:10C21000500080F31188BFF34F8FBFF36F8F06F08C
:10C220001FFE4FF0000080F3118808BC19680868F1
:10C23000B0E8F04F1EF0100F08BFB0EC108A80F38A
:10C240000988BFF36F8F704700BF00BF3400002024
:10C25000EFF3058070470000064880470648004716
:10C26000FEE7FEE7FEE7FEE7FEE7FEE7FEE7FEE7A6
:10C27000FEE7FEE7D9F0000889C1000810B5431AAF
:10C28000934209D28318881803E010F8011D03F8BF
:10C29000011D521EF9D210BD40EA01039B0703D0D5
:10C2A00009E008C9121F08C0042AFAD203E011F8F5
:10C2B000013B00F8013B521EF9D210BDD2B201E0A1
:10C2C00000F8012B491EFBD270470022F6E710B59B
:10C2D00013460A4604461946FFF7F0FF204610BDF4
:10C2E000064C074D06E0E06840F0010394E80700C3
:10C2F00098471034AC42F6D3FFF74AFF405F01087D
:10C30000605F010830B58C1810F8012B12F00F0394
:10C3100001D110F8013B120906D110F8012B03E0FE
:10C3200010F8015B01F8015B5B1EF9D101E001F837
:10C33000013B521EFBD1A142E6D3002030BDFEE7F7
:10C340007047000070B5B3F5804F05D06FF07041B5
:10C3500040F82210002070BD50F82240084B8E8912
:10C360001C40D1E9003543EA05138D6889692D0227
:10C3700045EA06452B430B43234340F82230E9E7C7
:10C380000000F0CFF0B50C6850F82430114A13408B
:10C39000D1E90125D1E903672A433E4332434E697F
:10C3A00032438E693243CE6932430E6A32434E6A5B
:10C3B00032438E6A3243CE6A3243CE6B096B3243CC
:10C3C0000A431A43082D01D142F0400240F82420CC
:10C3D0000020F0BD8000F0FF30B500EB8202506815
:10C3E0008D8900F04043D1E9000440EA04108C68D4
:10C3F000240244EA054420430C8A074D05EB04540B
:10C4000020430C7D6D0105EB0464896920430843DA
:10C4100018435060002030BD0000F0FF70B50C469E
:10C42000054600F0FFF8A8682168C16261680163F1
:10C43000A1684163490707D5D0E90021C0E900128E
:10C44000D0E90221C0E90212A18981842169002971
:10C4500003D001DC4FF00001016270BD2DE9F04115
:10C460001E4617468846054600F0DCF8AC68682290
:10C47000414604F58670FFF701FF2846B847284675
:10C48000B047286980688047A062BDE8F08100005D
:10C4900010B5044600F0C6F8A0681149144AC0F867
:10C4A000AC101049C0F8A8100F49C0F8B0100F49DF
:10C4B000C0F8B8100021C0F8BC101368C0F8B43040
:10C4C0000C4BC0E932315168C0F8C41030F8261F57
:10C4D00021F0030120F82A1B0749416410BD000028
:10C4E000E1190108E11A0108A91901083316010828
:10C4F000E0000020031701085919010810B504468F
:10C5000000F090F8A46810481021C4F8E4000F4827
:10C51000C4F8E8000E48C4F8EC000E48C4F8F00077
:10C520000D48C4F8A0000D48C4F8A400D4F8C40015
:10C53000C4F8FC00D4F89420204690471020A06353
:10C540000748606410BD00007D050108A10A0108CC
:10C5500065C5000895C60008ED150108A31C010873
:10C56000E05D0108F8B5846815460F4694F826008A
:10C5700080074CD5D4F80031204698470646D4F8B9
:10C5800004312A46394620469847D4F89830054663
:10C590001BB100220121204698472069B04201DDED
:10C5A000012000E00020A169B14201DA012100E090
:10C5B000002108436169A94201DD012100E0002159
:10C5C0000843E169A94201DA012100E000210843A2
:10C5D0000AD060680022401E00902368D4F8A8703A
:10C5E000114620465B1EB847D4F8AC302A46314687
:10C5F00020469847D4F8A01020468847D4F89830B1
:10C6000005466BB1012200212046984708E0D4F886
:10C61000AC3020469847D4F8A010204688470546FD
:10C620002846F8BD70B504468068002812D14FF442
:10C63000BA75284600F08CFA2A460021A06001F065
:10C64000DDF9A0680221C18401210464016202496C
:10C65000C0F8081170BD00005DC6000810B590B0AC
:10C66000044620220A496846FFF708FE08492022AE
:10C67000203108A8FFF702FE606B5DF82010C4F8B7
:10C68000001108A951F82000C4F8040110B010BD31
:10C69000843701082DE9F84384689846154694F8D4
:10C6A00026000F46800740D5D4F800312046984731
:10C6B0000646D4F804312A463946204698470546AE
:10C6C0002069B04201DD012000E00020A169B142F3
:10C6D00001DA012100E0002108436169A94201DD7E
:10C6E000012100E000210843E169A94201DA0121AA
:10C6F00000E0002108430AD060680022401E00903C
:10C700002368D4F8A870114620465B1EB847D4F8B9
:10C71000AC302A46314620469847D4F8A42001B0D0
:10C7200041462046BDE8F0431047D4F8AC30F2E76C
:10C730002DE9F04FDFF828B191B04FF0FF35DBF86D
:10C740000030B3F922100691DE69B3F92490F46940
:10C75000A189814206D8E289824203D3471AD4F8DC
:10C76000008012E0D4E9018100296FD00A8882425A
:10C770006CD84D88854269D3801A82B2486800EB34
:10C780008200B0F90070B0F90250781C5ED0307EA3
:10C79000A17C10FB01FA217CCDE90701B3F92A60E5
:10C7A000304602F0B7F9C0B20E90DBF8000007FB8C
:10C7B0000A81A37C826B0127CDE90412CDE90273C3
:10C7C000C069089AC17E807ECDE90001DDE90603DB
:10C7D000494601F033FE681C18D046F0020002F012
:10C7E00099F9DBF80000A37C05FB0A81826BCDE997
:10C7F0000273CDE90412C069089AC17E807ECDE93A
:10C800000001DDE90603494601F018FEDBF80000EF
:10C810005D46C069417E007E814214D9022E12D04D
:10C8200086F0040002F076F92868C069027EC37EB3
:10C8300012FB0391437E857E089A06984B4412FBB7
:10C84000050201F05DFF0E9802F064F9DBF80000CC
:10C85000627C418C1144418411B0BDE8F08F00002E
:10C860009800002004480068C069C06909B1027CD2
:10C870000A60407C70470000980000200220088079
:10C880007047C06982898A4202D8C2898A4210D21E
:10C89000806880B102888A420DD843888B420AD3CF
:10C8A000406800EB8100A0EB8200B0F90000002896
:10C8B00001DB012070470020704700002DE9F043A4
:10C8C000304C034687B020681946B0F92A60C06929
:10C8D000C06900F086F8002850D041680088181A16
:10C8E00001EBC0053046AF7802F014F981462068AC
:10C8F0006A680123816BCDE90237CDE90421C16962
:10C90000CB7E8A7ECDE900230B7EB0F924102A78F5
:10C91000B0F9220001F092FD2068C069417E027EDC
:10C9200091421FD9C07E11FB00F812FB00F7022EC6
:10C9300018D000F083FB064600F04EFB00F04BFDE4
:10C9400021682A78CB69B1F92200DB7E12FB030251
:10C95000B1F9241001EB0803394401F0D1FE30464F
:10C9600000F039FD484602F0D5F820686A78C369BE
:10C97000B0F922109B7E12FB0311418407B0BDE881
:10C98000F08300009800002030B50F4C05460B46A0
:10C9900020682946C069C06900F023F8002812D039
:10C9A0004168008824682A1A0120E46900EBC2006B
:10C9B000085CA47E10FB04F0002B04D011F83210A8
:10C9C00011FB04F1196030BD98000020012008809F
:10C9D000704700B5C06900F004F8002800D00120BD
:10C9E00000BD06E002888A4202D842888A4202D20A
:10C9F00080680028F6D170472DE9F0410025154EDA
:10CA0000154C18E02069C5EB051700EBC700702234
:10CA1000001D3168FFF732FC2069002140F8371013
:10CA200000EBC70000F10C018161011D0A1DC0E986
:10CA30000F126D1C4164A0688542E3DB04F0E2FB49
:10CA40002169C0EB001001EBC000001D3060BDE8A3
:10CA5000F081000098000020E800002070B50F4928
:10CA60000D480860084600F0C1FF0C4C143CA0685B
:10CA7000C0EB0010C500284600F06AF82A460021E5
:10CA8000206100F0BBFF4FF0FF30206000F05AFD46
:10CA9000BDE8704004F0B6BB29150108FC00002079
:10CAA00010B5040009D000F065FB204603F00EF835
:10CAB000044600F02FFD204610BD002010BD38B503
:10CAC000054600F057FB2846FFF7EAFF040009D0AF
:10CAD00000F096F82A460021009000F08FFF68468B
:10CAE00000F09CF800F016FD204638BD024A1060A8
:10CAF00021F00300506070471040002010B5040082
:10CB000016D000F037FB0B48406B10F8341059B1C9
:10CB1000022909D2042101EBC4014158486802F0FE
:10CB20008DFF204604F04EFDBDE8104000F0F2BC41
:10CB300010BD0000503F0020002805D0034AD16BF3
:10CB4000016001B14860D06370470000503F002091
:10CB50002DE9F041044604F0F1FB2848E41C24F0E0
:10CB60000305016C2D1DA94200D90D46C46B13E0CD
:10CB700054F8042CAA420ED184B1216809B162682C
:10CB80004A60616809B122680A60C26BA24231D171
:10CB90002168C1632EE02468002CE9D18046816BB6
:10CBA000C0680F1857F8040C3E1A306838B10020DE
:10CBB00004F0E6FD57F8040C3E1A3068D0B97068EE
:10CBC000A84217DB3044441B3046241D04F0BEFD50
:10CBD000D8F80C10491BC8F80C10D8F814102944C8
:10CBE000C8F814107068401B02D0314602F026FFCE
:10CBF00044F8045C2046BDE8F0810000503F00206E
:10CC00000549CA69521CCA61496B01EBC0010A7827
:10CC1000521C0A7000F01AB8503F00200A490268FE
:10CC20004B6B52F8082C03EBC2021378022B03D390
:10CC3000CB690BB15B1ECB611178491E11700021CD
:10CC40000160084670470000503F0020002806D0D1
:10CC50000349042202EBC000496B085808307047B2
:10CC6000503F002010B5C2B2CBB2D21A00D552420A
:10CC700093B25B43C0F30722C1F30724121B00D514
:10CC80005242000C92B2A0EB114002FB023200B201
:10CC9000002801DA404200B280B200FB002010BD43
:10CCA00010B50021084600F011FA43F6FF72504219
:10CCB000BDE8104013460146AFF300802DE9FC416A
:10CCC0001C4615460E46074600F054FA042001F0B3
:10CCD00021FF80461248C068C16C006D0F440644B5
:10CCE0000D440444ADF80070ADF80450ADF8026096
:10CCF000ADF80640684602F02BFD07E023462A46C1
:10CD00003146384601F0FCFC02F0E4FC0028F5D185
:10CD1000404601F0FFFE00F0FDFBBDE8FC81000095
:10CD20008C0000202DE9F0411C4616460D460746B2
:10CD3000022B02DB0020BDE8F0811C20FFF708FF7A
:10CD40000028F8D00DB105610AE0094A52F8241014
:10CD500009B905E011460A68002AFBD10969016199
:10CD600084618682002101604160C0E90217E2E728
:10CD7000B000002070B51D46FFF7D4FF040009D0B5
:10CD800000F00EF8E068006820B90348006800EB86
:10CD900085008465204670BD98000020FFF7CCBE5A
:10CDA00070B590B38269022A30DA1E4C54F8221012
:10CDB00019B944F8220032E019464B68002BFBD128
:10CDC00006E0CB68C5681B682D68AB4203DD0968C7
:10CDD0000029F6D11AE0C1B1CB68C6681B68366875
:10CDE000B3420CD1838A012B05D008E01946DB68D9
:10CDF0001B68AB4203DB0B68002BF7D129B14B68F2
:10CE000033B118604A68426004E0FFE7012070BD5A
:10CE100044F822004860884200D1002101600020CF
:10CE200070BD0000B000002010B503E00468FFF7FB
:10CE3000B7FF20460028F9D110BD00000A4A8169D9
:10CE400052F82130834202D1036842F82130416810
:10CE500009B102680A60016809B142684A600021AC
:10CE60000160416070470000B00000200020704762
:10CE7000022801DB00207047054951F8200004E03A
:10CE8000C16809680029F6D000680028F8D1704709
:10CE9000B00000202DE9FC4706005FD000F06AF9E1
:10CEA00000F0D8F83C4C81462068B0F9228000F0B0
:10CEB000DFF8216807468A8CD01B888441E000BFD8
:10CEC00047F6FF71304600F0B1FC8246014630461D
:10CED00000F082FC2168054691F82C0000F0030068
:10CEE000012841D002283BD000204A8C101A4884E7
:10CEF000ADF800006A1E1044ADF80400888CADF84F
:10CF00000200A9F101010844ADF806006A46514645
:10CF1000304600F009FC2168BDF8020088845146C3
:10CF2000304600F0B9FA064430780A281ED00D28A1
:10CF30001CD0BDF80000216828444884307818B11E
:10CF4000761C30780028BBD12068818C39448184DC
:10CF5000818D21F00301818500F0DCFABDE8FC87BA
:10CF600005EBD5704010C0E72846BEE7206890F872
:10CF70002C1001F0030101290BD0022909D0018CEA
:10CF8000418431780A29D9D1828C02EB090181844C
:10CF9000D4E7A0F82280F4E79800002070B514468A
:10CFA0000D46064600F0E6F805480068458484848E
:10CFB0003046FFF76FFFBDE8704000F0ABBA0000ED
:10CFC00098000020034951F82000C1688A6A0821AE
:10CFD00010470000B000002010B500F0CBF801F0C1
:10CFE000BFFB01F033FC044600F094FA204610BD6C
:10CFF00010B5044600F0BEF8054800210068C0697D
:10D00000426820469047044600F084FA204610BD4E
:10D010009800002070B50C46054600F0ABF80648B5
:10D0200021460068C069426828469047044600F0DF
:10D0300071FA204670BD00009800002010B500F085
:10D0400099F801F095FB01F001FC044600F062FA4A
:10D05000204610BD10B500F08DF804480068C06986
:10D06000447E00F057FA204610BD000098000020D2
:10D0700010B5002400F07EF80B48006890F82C10E2
:10D0800001F00C01042904D0082906D00C2907D18D
:10D0900003E0C069047E641E02E0C069007E4408AB
:10D0A00000F038FA204610BD98000020024951F8DF
:10D0B0002000006900687047B0000020024951F864
:10D0C0002000006940687047B000002070B50D4630
:10D0D000044600F04FF8204604F0B2F80446284613
:10D0E00004F0B6F8044300F015FA204670BD0000C5
:10D0F0002DE9F0411948016821F00101016018484B
:10D10000012585601749016000681749884200D0F1
:10D11000FEE700F0EDFA154E2E20307000F011FA07
:10D12000134804F0D1F805F0A5F9074601F054FBC7
:10D1300010B101F05BFB38B901F05EFB044601F071
:10D1400051FB214601F0E0FC0021084600F05EF9A9
:10D1500002F02EF975703846BDE8F081002000E03D
:10D1600000300240C2A507F4CDB5E8B58C00002020
:10D170001C40002070B5184CE06820B100F0DFF9C9
:10D180006168884204D000F007FA00F0D8F96060C6
:10D19000E068401CE06001281CD104F033F805462B
:10D1A0002068854216D0002813DBFFF75FFE01469A
:10D1B0002068C0EB0012206900EBC2025167C5EB8A
:10D1C0000511064A00EBC100011D1160406FFFF719
:10D1D0002BFE256070BD0000E800002098000020B4
:10D1E00038B504001CD0FFF7C5FF0E480068006E7C
:10D1F000A04201D100F0BBF82046FFF701FD0090EE
:10D20000406908B100F070F900980068FFF7C6FDAA
:10D210006846FFF703FD2046FFF770FC00F07AF93F
:10D2200038BD00009800002038B505004FF000041C
:10D2300011D0FFF79FFF2846FFF7E2FC009000683F
:10D2400000698068804701F015FE04466846FFF7D4
:10D25000E5FC00F05FF9204638BD38B504000ED07B
:10D26000FFF788FF2046FFF7CBFC00F11804009081
:10D270006846FFF7D3FC00F04DF9204638BD00208A
:10D2800038BDF8B516460F46050012D0FFF7B8FCBA
:10D29000009044696846FFF7C1FC2846FFF7C4FFC9
:10D2A0000346082800DD2CB132463946284604F0F2
:10D2B0000DFDF8BD32463946284604F0A7FEF8BDFC
:10D2C00010B5002821D009B30AB3B1F90040B2F972
:10D2D00000309C4200DA23460380B1F90240B2F9E3
:10D2E00002309C4200DA23464380B1F90440B2F98F
:10D2F00004309C4200DD23468380B1F90610B2F968
:10D300000620914200DC1146C18010BD11460A681A
:10D3100002604968416010BD00280BD003880B44AF
:10D320000380838819448180418811444180C188E9
:10D330001144C1807047B0F90220B1F906309A4219
:10D3400013DCB1F90220B0F906309A420DDCB0F9D5
:10D350000020B1F904309A4207DCB1F90010B0F9AD
:10D360000400814201DC012070470020704710B5A5
:10D37000FFF700FF01F05EFB01F014FC01F0DAFEA4
:10D38000BDE8104000F0C6B870B50B4D04462868E3
:10D39000467CFFF7EFFE022C09D22046FFF768FD1E
:10D3A00028B128684474FFF7E2FF0448046000F0E5
:10D3B000B1F8304670BD0000980000202C0100201C
:10D3C00010B50446FFF7D6FE204601F053FBBDE83A
:10D3D000104000F09FB810B50446FFF7CBFE204682
:10D3E00001F080FBBDE8104000F094B870B5044631
:10D3F000FFF7C0FE04480068C56904B1C46100F0CD
:10D4000089F8284670BD00009800002070B50C46D1
:10D410000546FFF7AFFE094822460580084804800C
:10D4200008480068417C084850F82100C1680B6A30
:10D4300029469847BDE8704000F06CB8C000002055
:10D44000C200002098000020B000002002480068C0
:10D45000002800D000477047B001002002498A68C8
:10D4600002B98860FFF7F2BFA00100202DE9F0416A
:10D47000084E044605683068016828468847074614
:10D480003068416828468847284420603846BDE80F
:10D49000F08100009C0000202DE9F0410C4606467A
:10D4A0000025064F05E03868416830468847064445
:10D4B0000544641EF7D22846BDE8F0819C00002098
:10D4C0002DE9F0411E46069C1746884605463A4619
:10D4D000A8687F1C3346D0F804C041462846E04780
:10D4E000641EF4D1BDE8F08138B50546FFF742FE71
:10D4F0002846FFF785FB00908189491E0CB2848184
:10D500006846FFF78BFB14B92846FFF7F7FA00F0DF
:10D5100001F838BD0348C168491EC16001D100F05F
:10D520004BB87047E80000204FF400210148FFF796
:10D53000DDBA0000000000681E2005F0BDBB05F04C
:10D5400085BF704710B5012005F03EFD114C2060ED
:10D55000B0B103220021012005F048FD606038B120
:10D5600000231A46194605F05FFE606800280FD1B7
:10D57000502080F31188BFF34F8FBFF36F8FFEE70A
:10D58000502080F31188BFF34F8FBFF36F8FFEE7FA
:10D5900010BD00007C00002010B5064C206808B9C2
:10D5A000FFF7D0FF00232068BDE810405A1E19463F
:10D5B00005F040BD7C000020034800231A461946B0
:10D5C000006805F031BE00007C00002010B5082A7C
:10D5D0000EDC0346012A18D0022A56D0042A76D03F
:10D5E00010F8042B03F8012B491EF9D1012010BDBE
:10D5F000102A08DC4FEA000230F8043B22F8023B14
:10D60000491EF9D1F2E7002010BD10F8042BD20713
:10D61000120E491E34D010F8044B491E04F00104C8
:10D6200042EA84122CD010F8044B491E04F0010485
:10D6300042EA441224D010F8044B491E04F00104BD
:10D6400042EA04121CD010F8044B491E04F00104F5
:10D6500042EAC40214D010F8044B491E04F001043D
:10D6600042EA84020CD010F8044B491E04F0010475
:10D6700042EA440204D010F8044B04F001042243AF
:10D6800003F8012B0029C0D1B0E710F8042B920752
:10D69000120E491E15D010F8044B491E04F0030465
:10D6A00042EA04120DD010F8044B491E04F00304A2
:10D6B00042EA840205D010F8044B04F0030422432C
:10D6C000491E03F8012B0029DFD18FE7FFE710F88F
:10D6D000042B1207120E491E05D010F8044B04F05B
:10D6E0000F042243491E03F8012B0029EFD17DE7E7
:10D6F0000B4810B58169002910D101218161FFF724
:10D7000013FFFFF7ABF901F05FFA054905481C313B
:10D710000860BDE81040084600F068B910BD000080
:10D720008C000020FD1401087CB5064628480D46F3
:10D73000006868B1002002F00BF806E06A4629464E
:10D74000304602F0E5FA01F0C5FF0028F6D17CBDB5
:10D75000106800901F4C506801902268BDF80000CE
:10D7600032F84C1F0844ADF80000BDF80200918863
:10D770000844ADF80200BDF8040011880844ADF873
:10D780000400BDF8060091880844ADF8060068461C
:10D7900001F0DEFF0EE000BF2068BDF800106A4611
:10D7A0004184BDF8021081842946304602F0B0FA67
:10D7B00001F090FF0028EFD1206830F8221F428D41
:10D7C000891A01804188C28D891A41807CBD000080
:10D7D000BC0000209800002073B5124A01A90098EF
:10D7E0001268904700240090C8B10F4900250968CD
:10D7F000C969496959B10A684AB1019990477CBD24
:10D800006846FFF733FE0546FFF7F2FB0444019834
:10D81000401E0190F4D5284600F024F80444204628
:10D820007CBD00009C0100209800002073B50D46CF
:10D830000098002490B10A490968C969496959B139
:10D840004A684AB1294690477CBD6846FFF70EFEFC
:10D8500020B10A2802D0641CAC42F6DB20467CBD15
:10D860009800002038B5002469460094FFF7D2FBE9
:10D870000099814200DD0C1A204638BDB0F9003015
:10D88000B1F90020934200DA0280B0F90230B1F918
:10D890000220934200DA4280B0F90430B1F904204A
:10D8A000934200DD8280B0F90620B1F906108A4269
:10D8B00000DDC180704770B5B1F90040B2F90030A9
:10D8C0009C4200DD23460380B1F90250B2F90240C8
:10D8D000A54200DD2C464480B1F90460B2F9045041
:10D8E000AE4200DA35468580B1F90610B2F906205D
:10D8F000914200DB1146C1809D4201DBA14201DA69
:10D90000002070BD012070BD014602480068407CC7
:10D9100000F002B8980000202DE9F843012689465E
:10D92000044602285DDA304F7A6802B190472E4DE6
:10D930005FEA090005F1100532D0012803D0B9F1E2
:10D94000020F4ED118E055F8240088B92046FFF7A1
:10D950008FFA009018B3C0680D21426A684690475C
:10D9600002003ED049460098904755F82400002612
:10D97000401C45F8240034E02046FFF779FA009077
:10D9800068B1C0680D21426A68469047040028D0FB
:10D99000386800B1804749460098A047002620E03B
:10D9A00055F82400A846012812D12046FFF760FA56
:10D9B000009068B1C0680D21426A68469047050032
:10D9C00006D0386800B1804749460098A84700262D
:10D9D00058F8241009B1012200E00022891A48F801
:10D9E00024103046BDE8F8838401002002494A69CA
:10D9F00042604861704700008C00002010B502E0D2
:10DA000000F8011B521E0AB18307F9D1930818D000
:10DA100001EB014402F0030204EB042406E010C011
:10DA20001B1F10C040F8084B40F8044C042BF6DADA
:10DA300001E010C05B1E002BFBD102E000F8011BCF
:10DA4000521E002AFAD110BD10B5830702D520F866
:10DA5000021B521E530811D001EB0144042B09DBB9
:10DA600010C01B1F10C0042B40F8084B40F8044C9A
:10DA7000F6DA01E010C05B1E002BFBD1D20700D00C
:10DA8000018010BD10B5040002D0607910B106E02D
:10DA9000012010BD00202071204600F007F8022070
:10DAA000607101206071002010BD000008B50068A1
:10DAB0000649884208D10648016841F48051016056
:10DAC000006800F48050009008BD00000030024063
:10DAD0003038024031B500F033F9009C0546601C37
:10DAE00000D0641C00F02CF9401BA042FAD338BDD2
:10DAF000F0B5214887B0016800293AD101210160C1
:10DB00001E480024016841F00101016000680225FF
:10DB100000F0010005904FF68B70CDE9000502AAD8
:10DB200003260C2782E8D0006946154800F030F83B
:10DB30004FF23F00CDE9000502AA694682E8D00015
:10DB4000104800F025F841F23F40CDE9000502AA57
:10DB5000694682E8D0000C4800F01AF84FF633709E
:10DB6000CDE9000502AA694682E8D000074800F026
:10DB70000FF807B0F0BD0000040000203838024064
:10DB8000001002400014024000180240000C024045
:10DB90002DE9F84FDFF87CB100224FF001084FF07B
:10DBA000030A4FF00F090BF1040E00BF0B6808FACF
:10DBB00002F42340A3426ED14D68022D01D0122DF4
:10DBC0000ED1D50800EB850CDCF820505607F70E77
:10DBD00009FA07F6B5430E69BE402E43CCF8206023
:10DBE000066855000F790AFA05FC07F0030726EAD4
:10DBF0000C06AF40374307604E68012E05D0022E59
:10DC000003D0112E01D0122E0ED18668CF6826EADD
:10DC10000C06AF40374387604668A6430C79C4F3CF
:10DC20000014944034434460C6688C6826EA0C06AD
:10DC3000AC403443C4604C68E40065D5364C25687C
:10DC400045F480452560246822F0030504F48044EF
:10DC50000094324C2E19D6F8084895072F0F09FA70
:10DC600007F5AC432E4DA84201D1002524E02D4DEF
:10DC7000A84201D101251FE02B4DA84201D1022568
:10DC80001AE02A4DA84201D1032515E0284DA842EB
:10DC900002D1042510E037E0264DA84201D1052528
:10DCA0000AE0254DA84201D1062505E0234DA842F2
:10DCB00001D1072500E00825BD402543C6F80858D6
:10DCC000DBF800405D464E689C43F60300D51C43DC
:10DCD0002C60DEF8004075464E689C43B60300D5C4
:10DCE0001C432C600B4D08352C684E689C43F60293
:10DCF00000D51C432C60074D0C352C684E689C43A6
:10DD0000B60200D51C432C60521C102AFFF44EAF03
:10DD1000BDE8F88F003C014044380240003001402B
:10DD2000000002400004024000080240000C0240D3
:10DD3000001002400014024000180240001C024083
:10DD40000148006870470000000000200248016898
:10DD5000491C016070470000000000200B4810B50E
:10DD6000016841F400710160016841F48061016063
:10DD7000016841F480710160032000F069F80F2010
:10DD800000F006F800F018F8002010BD003C02403A
:10DD900010B5044607484FF47A710068B0FBF1F003
:10DDA00000F029FB00222146501E00F031F800202F
:10DDB00010BD00001800002010B5032000F048F846
:10DDC000002211466FF00B0000F022F800221146ED
:10DDD0006FF00A0000F01CF8002211466FF00900F5
:10DDE00000F016F800221146501F00F011F8002232
:10DDF0001146101F00F00CF800220F21901E00F0B9
:10DE000007F800220F21BDE81040501EAFF300803C
:10DE1000F0B40E4B1B680C46C3F30223C3F1070595
:10DE2000042D00D90425191D072901D2002300E083
:10DE3000DB1E012606FA05F1491E214099409E404D
:10DE4000761E16403143F0BC01F0DAB80CED00E06C
:10DE5000064900F0070208684FF6FF03184040EA41
:10DE60000220034A10430860704700000CED00E0F8
:10DE70000000FA052DE9F047DFF8649105460F46EA
:10DE8000D9F8000000F00F01F8B28046B94208D27C
:10DE9000014689F80010D9F8000000F00F00B842E0
:10DEA00074D128784F4C800705D52068A96820F0E8
:10DEB000F000084320602878C00759D049496868B5
:10DEC000083901281AD002281BD0032819D0096864
:10DED000890700295ADA216821F0030101432160F2
:10DEE000FFF72EFF6968064641F28830012911D0FC
:10DEF00002291DD00329824627D035E0096889030D
:10DF0000E7E709688901E4E7FFF71AFF811B51453C
:10DF100001D926E082462068C0F381000128F3D1B0
:10DF200026E000BFFFF70CFF811B514501D918E027
:10DF300082462068C0F381000228F3D118E000BFB8
:10DF4000FFF7FEFE811B51450BD82068C0F381000E
:10DF50000328F5D10CE000BFFFF7F2FE811B51450D
:10DF600002D90320BDE8F087206810F00C0FF3D130
:10DF7000D9F80010484601F00F01B94208D980F8DD
:10DF80000080006800F00F00B84201D00120E9E7EE
:10DF90002878400705D52068E96820F4E050084358
:10DFA00020602878000706D52068296920F46040A1
:10DFB00040EAC100206000F021F82168F02292FAC6
:10DFC000A2F201F0F001B2FA82F2D140064A515CAD
:10DFD000C840064908600F20FFF7DAFE0020C1E7BD
:10DFE000003C024008380240203701081800002099
:10DFF00001480068704700001800002030B519483B
:10E00000006810F00C01184812D0184C04290ED0EA
:10E0100008290DD11349091F0A6802F03F030A6855
:10E02000550247F6C07204D5B4FBF3F003E0204676
:10E0300030BDB0FBF3F00B680968134092FAA2F20E
:10E04000B2FA82F2D34058434FF4403292FAA2F22D
:10E0500001F44031B2FA82F2D140491C4900B0FBD0
:10E06000F1F030BD083802400024F40040787D0112
:10E070002DE9F84F0546DFF8FC920078A9F1040B72
:10E08000C007ABF1040449D0D9F800104846C1F3E9
:10E090008101012908D00068C0F3810002280AD15B
:10E0A000DBF80000400206D52068800336D568689A
:10E0B00000286ED032E06868B0F5803F10D0B0F52F
:10E0C000A02F206810D020F480302060206820F439
:10E0D000802020606868A0B1FFF732FE06460CE0A1
:10E0E000206840F48030F4E740F480202060F7E7B7
:10E0F000FFF726FE801B642871D820688003F7D5BF
:10E100000CE0FFF71DFE064605E000BFFFF718FE16
:10E11000801B6428F0D820688003F7D42878964FB5
:10E1200080074FF0010A4FF0000841D5D9F80010E0
:10E13000484611F00C0F08D00068C0F38100022897
:10E140000AD1DBF80000400206D42068800713D50E
:10E15000E86801281DD10FE0E868D8B1C7F800A031
:10E16000FFF7EEFD064604E0FFF7EAFD801B0228FC
:10E17000C2D820688007F7D52068F82292FAA2F268
:10E180002969B2FA82F220F0F80091400843206039
:10E190000EE0ECE0C7F80080FFF7D2FD064604E091
:10E1A000FFF7CEFD801B022819D820688007F7D41E
:10E1B0002878000724D57148696989B1C0F800A0A2
:10E1C000FFF7BEFD064604E0FFF7BAFD801B0228FC
:10E1D00005D868486C3000688007F5D510E07AE013
:10E1E000C0F80080FFF7ACFD064604E0FFF7A8FD8D
:10E1F000801B02286FD85F486C3000688007F5D418
:10E200002878400753D55B483830016841F0805189
:10E210000160006800F0805000905948016841F4A6
:10E2200080710160FFF78CFD064604E0FFF788FD72
:10E23000801B02284FD852480068C005F6D54D4EC5
:10E24000A868683601280FD00528306810D020F063
:10E2500001003060306820F004003060A868B8B178
:10E26000FFF76EFD00900FE0306840F00100F4E72A
:10E2700040F004003060F7E7FFF762FD0099411AB3
:10E2800041F2883081426AD830688007F4D50EE0C8
:10E29000FFF756FD009007E0FFF752FD0099411A85
:10E2A00041F2883081425AD830688007F4D4A86996
:10E2B000E8B3D9F80010C1F38101022957D0022830
:10E2C000C7F8608003D0FFF73BFD05464AE0FFF743
:10E2D00037FD064605E042E0FFF732FD801B0228CD
:10E2E0003DD820688001F7D4D5E90701084347F6F7
:10E2F000C07292FAA2F2696AB2FA82F29140AA6AF4
:10E300004FF0FF3303EB52024FF4403393FAA3F381
:10E31000B3FA83F39A40114308434FF0706292FAC4
:10E32000A2F2E96AB2FA82F29140084300E01CE0EE
:10E33000CBF80000C7F860A0FFF702FD054604E037
:10E34000FFF7FEFC401B022809D820688001F7D5A2
:10E350000BE000BFFFF7F4FC401B022802D90320AA
:10E36000BDE8F88F20688001F4D40020F8E7012090
:10E37000F6E700000838024000004742800E47429E
:10E380000070004070B515460E46040003D094F8A6
:10E39000490010B107E0012070BD002084F848005A
:10E3A000204600F01AF804F108012068FDF7EAFFA2
:10E3B0003146A2682068FEF70FF8D4E90102294629
:10E3C000236BFDF7BFFFA168206850F8212042F0C1
:10E3D000010240F82120002070BDFFF789BB4FF0FB
:10E3E000E0210428086903D020F004000861704788
:10E3F00040F00400FAE710B5401EB0F1807F01D371
:10E40000012010BD4FF0E02460610F21601700F083
:10E41000F7FD0020A06107202061002010BDFEE76D
:10E420000449054A0968497C52F8211009690968BC
:10E430000847000098000020B00000202DE9F04FB0
:10E4400005468DB07B48DDF860901A9C00681E463A
:10E4500017464FF0000A78B11B9B199ACDF8089027
:10E460000593CDE90324DDE91623CDE900230468F3
:10E4700033463A46284680E0DDE9160201EB0608FD
:10E4800005EB070C1043A8F10108ACF1010C0128C1
:10E4900006D0C9F108000590002002910990C6E05D
:10E4A00065480268B2F90A30581A002806DD361AA3
:10E4B000002E63DD1946199B00FB0344B2F90E00E0
:10E4C000A8EB0000002802DD361A002E56DDB2F956
:10E4D0000C00ACEB0000002800DD3F1AB2F9083058
:10E4E0000020AB4235DD581B3F1A4B46B9F1080FEF
:10E4F00026D006DC012B0BD0022B11D0042B28D107
:10E5000016E0102B1ED0182B1FD0202B21D11CE081
:10E5100020F0070304EBE0041D4400F0070018E0BE
:10E5200020F0030304EBA0041D4400F0030010E0FE
:10E5300020F0010304EB60041D4400F0010008E03A
:10E54000044404E004EB400401E004EB80040544CF
:10E550000020002F12DD1B9BDDF864C0CDE9040311
:10E56000CDE90069CDE902C4527C34483B4650F8FD
:10E570002200C26854680A462946A0470DB0BDE88B
:10E58000F08F1799029808440C902B49401E009078
:10E590000A68B2F90A30834241DCB2F90E100298DF
:10E5A00081423CDB4FF0000BD84603950A9434E0DF
:10E5B000BBF1000F05D10A984FF0080B10F801AB22
:10E5C0000A900599ABEB090B3AFA01F00AFA09F146
:10E5D00001F0FF0A04D118490968097C890716D49B
:10E5E00015490968C96B0A680B921B9A0AB152F85F
:10E5F0002000086016990398009B4218521E029949
:10E6000000F07EF80C490B980968C96B0860039903
:10E61000169808F1010808440390B845C8DB09982A
:10E62000401C09900C980290199804440998B04233
:10E63000A7DBA3E7BC00002098000020B00000206A
:10E64000F0B40C4612490968B1F90A30A3421CDC47
:10E65000B1F90E30A34218DBB1F90830834200DD76
:10E660001846B1F90C30934200DA1A4682420CDBAC
:10E670004B7C084951F8235013462246E9688E68BE
:10E6800001462846B446F0BC6047F0BC7047000025
:10E6900098000020B00000200A46174930B40968ED
:10E6A000B1F90A30934225DCB1F90E30934221DBF7
:10E6B000B1F9083083421DDCB1F90C30834219DB1B
:10E6C0000B7C0E4CDB0709D0497C54F82130D9680B
:10E6D000CC690146A44630BC18466047CB6B497CE8
:10E6E0001B6854F82140E1688D6901462046AC461C
:10E6F00030BC604730BC704798000020B00000205C
:10E7000038B5134C2468B4F90850854200DD28461A
:10E71000B4F90C50954200DA2A46824217DBB4F96C
:10E720000A508D4200DD2946B4F90E509D4200DAB0
:10E730002B468B420BDB0093647C064B53F8244042
:10E74000E3681D6913460A4601462046A84738BDBE
:10E7500098000020B0000020082102F0C4BC000096
:10E7600002480068806B0068704700009800002035
:10E7700002480068C06B00687047000098000020E5
:10E78000024809210068407C02F0ADBC98000020DE
:10E79000092102F0A8BC70B500252C462046FEF7E2
:10E7A00067FB00B16D1C641C022CF7DB284670BDB2
:10E7B00002480068407C00F003B800009800002088
:10E7C00010B5FEF755FB002805D0C168CA6ABDE840
:10E7D00010400221104710BD01480068704700003A
:10E7E00018010020012002F0C1BC0000014840686F
:10E7F0007047000018010020022002F0B7BC00F0B2
:10E8000001B800002DE9F041002809D0876837B130
:10E810000D4E716819B10468B4F5807F02DD0020E7
:10E82000BDE8F0813068844200DD0446002507E041
:10E8300057F82500FFF7F4FD716841F825006D1CBD
:10E84000A542F5DB7068EBE7080100200449054AA2
:10E850000968497C52F82110096949680847000095
:10E8600098000020B000002010B5084A084B00F0C6
:10E870001F01C0F34514C0F3C420515C1B5D105C44
:10E8800001EB032101EB004010BD00000C54010816
:10E890002C54010810B53220FFF71CF94FF0D84472
:10E8A000112020803220FFF715F913202080D0207E
:10E8B0002080072060804220608018206080D12066
:10E8C0002080002060800720608010206080D2209F
:10E8D00020800120608011206080C02020801420D2
:10E8E00060803B20608000206080022060801120DA
:10E8F0006080C1202080102060800B2060808820F4
:10E900006080C520208001206080C82020800020F9
:10E910006080322060803620608045206080062044
:10E9200060801620608037206080752060807720AE
:10E930006080542060800F2060800020608036203E
:10E9400020800A2060803A202080552060802A2084
:10E950002080002060806080012060803F206080F7
:10E960002B20208000206080608001206080DF20DC
:10E9700060803220FFF7AEF8292020802C202080F4
:10E9800010BD000010B50A4C606860B920688000B6
:10E99000FEF7DEF8606040B104F108010548086048
:10E9A0000846FFF723F8002010BD012010BD00002D
:10E9B000080100203D1501082DE9F047FFF7EBFEA7
:10E9C00007460024DFF860802AE02046FEF750FA70
:10E9D00028B3D8F8000090F8119044742046FFF74F
:10E9E000BBFE082817DC1148114950F824000069C3
:10E9F000884210D02046FFF7CBFE0646002508E0EF
:10EA0000E8B2FFF723FF0246E9B2204600F088F89B
:10EA10006D1CB542F4DBD8F8001081F81190641C2D
:10EA2000BC42D2DBBDE8F08798000020B000002097
:10EA3000145E010810B50D4C0D492068407C51F85A
:10EA4000200048B1C16811B10968042901D00068EB
:10EA5000F7E708B1FEF7F2F920680021016600F13E
:10EA600008014161BDE8104000F02EB89800002078
:10EA7000B0000020014909684968084704010020E6
:10EA8000044909680A7C520701D5C96B00E0896B0B
:10EA900008607047980000207CB5094C0546206846
:10EAA000417C084850F82100C1680A6B69469047CC
:10EAB00020686A4629460830FEF7FDFE7CBD00004E
:10EAC00098000020B00000200448016804484A7CF7
:10EAD000083150F82200C268126B104798000020DD
:10EAE000B0000020014909680968084704010020B6
:10EAF000044909680A7C520701D5896B00E0C96B9B
:10EB00000860704798000020014AC2E90001704780
:10EB1000180100200149096889680847040100209C
:10EB2000F8B515460E460124FEF7A2F9009058B13B
:10EB3000C0681021426A68469047030004D02A4604
:10EB400031460098984700242046F8BDF8B5154690
:10EB50000E460124FEF78CF9009058B1C0680B21D5
:10EB6000426A68469047030004D02A46314600981E
:10EB7000984700242046F8BDF8B515460E460124F6
:10EB8000FEF776F9009058B1C0680A21426A6846DB
:10EB90009047030004D02A46314600989847002445
:10EBA0002046F8BD10B5074C2068006BFFF738FC15
:10EBB000FFF79EFF2068406BFFF732FCBDE8104076
:10EBC000FFF75EBF9800002070B5A0B014211AA80E
:10EBD000FDF77BFB68216846FDF777FB00231A46AB
:10EBE00014491548FEF7C6F804464FF4F0754FF483
:10EBF000A0762A4631460020FFF7A8FF2A46314674
:10EC00000020FFF7B9FF00201C901AA92046FDF74D
:10EC100005FC0A4808900A4809900A480B900A48DF
:10EC20000F900A4B0A4A69462046FDF717FC20B0B0
:10EC300070BD00003837010850370108D5EE0008D4
:10EC4000B9EE0008C1EE0008A7EE0008FDC40008F8
:10EC500091C40008012902D04FF0FF307047002016
:10EC6000704700002DE9FF4F8DB01746674ADDF869
:10EC700070901E9E209812681D4600248AB11D9B2C
:10EC80001F98CDE90293CDE90460DDE91A03CDE9CF
:10EC9000000314682B463A460D98A04711B0BDE812
:10ECA000F08F0D9A01EB050802EB070CDDE91A2342
:10ECB0001A43A8F10108ACF1010C012A06D0C9F1F0
:10ECC00008004FF0000B029105909CE0504A12683A
:10ECD000B2F90A40631A002B06DDED1A002DDDDDC6
:10ECE00021461D9C03FB0466B2F90E30A8EB03031A
:10ECF000002B02DDED1A002DD0DDB2F90C30ACEBAB
:10ED00000303002B00DDFF1A0D9B1C1AB2F908301B
:10ED1000A3420DDDA3EB040C0CEB0003181A20F04A
:10ED200007000444A7EB0C0706EBE30603F007001B
:10ED3000002FB3DDDDF874C01F9BCDE902C6CDE91D
:10ED40000403CDE90059527C32483B4650F822007A
:10ED5000C26855680A462146A8479FE71B99029852
:10ED600008440C902A49401E00900A68B2F90A3003
:10ED7000834242DCB2F90E10029881423DDB4FF033
:10ED8000000A0D980A96D046039034E0BAF1000FBD
:10ED900005D10A984FF0080A10F8014B0A9005991E
:10EDA000AAEB090A34FA01F004FA09F4E4B204D136
:10EDB00017490968097C890717D415490968C96B7F
:10EDC0000A680B921F9A0AB152F820000860039952
:10EDD0001A98009B0A18DDE90210521EFFF790FCFA
:10EDE0000B490B980968C96B086003991A9808F1D8
:10EDF000010808440390B845C8DB0C9802901D98A0
:10EE00000BF1010B0644AB45A8DB47E7BC00002033
:10EE100098000020B0000020002818D0410817D02A
:10EE2000810817D0C10817D0010917D0410917D0A0
:10EE3000010A17D0410A17D0010B15D0C10B13D00E
:10EE4000010C11D0810C11D0000E11D02020704780
:10EE5000012070470220704703207047042070474C
:10EE60000520704708207047102070471220704717
:10EE70001820704700B50022FFF7CEFF012804D00C
:10EE8000811E062903D808220BE0012209E0A0F127
:10EE90000901072901D8102203E011380F2800D8F2
:10EEA0002022104600BD4FF0D84202E0538820F8DF
:10EEB000023B491EFAD270474FF0D8414880704754
:10EEC0004FF0D84203E000BF30F8023B5380491EA8
:10EED000FAD270474FF0D841088070472DE9F047CB
:10EEE000294888B004210024C0E902141025C0E993
:10EEF00004458461C4614FF4805A0462C0E9094A40
:10EF0000C46204634463DFF8849084634FF0204755
:10EF10004464C0E900790F2664200096CDE90160C1
:10EF20004FF01108CDE90584CDE90365002269465B
:10EF30001548FFF727FA00B1FEE7134806215030C5
:10EF40000022C0E90214C0E904458461C46104627E
:10EF5000C0E9094AC4620463446384634464C0E949
:10EF600000790520CDE9000602A9092081E83101D8
:10EF70000548694650300694FFF704FA002800D08F
:10EF8000FEE708B0BDE8F087C0010020040100A042
:10EF9000194808B5016841F010010160016801F0ED
:10EFA00010010091016841F020010160016801F049
:10EFB00020010091016841F080010160016801F0C9
:10EFC00080010091016841F040010160016801F099
:10EFD00040010091016841F008010160016801F001
:10EFE00008010091016841F001010160006800F032
:10EFF0000100009008BD000030380240FEE7704775
:10F000000907090E002806DA00F00F0000F1E020E1
:10F0100080F8141D704700F1E02080F8001470475C
:10F02000012003F0ABFAFBE710B5FEF78FFEBDE859
:10F03000104003F0AFBA000030B5254893B000256A
:10F04000016841F080510160006800F0805011902B
:10F050002048016841F4804101600068022400F406
:10F060008040119001200090000401908001CDE9C2
:10F070000640192008904FF4A870CDE90904042037
:10F080000B906846FEF7F4FF00B1FEE70CA90F20D5
:10F0900081E831004FF4A0500F904FF48050109051
:10F0A00005210CA8FEF7E6FE00B1FEE7FEF7A0FF83
:10F0B0004FF47A71B0FBF1F0FFF79DF90420FFF7F0
:10F0C0008EF900220F21501EFEF7A2FE13B030BDB4
:10F0D00040380240007000401048016841F470015F
:10F0E00001600F48016841F0010101600C4A0021F4
:10F0F0000832116002680B4B1A400260031D0A4A75
:10F100001A60026822F48022026005480C30016017
:10F1100002490648803908607047000088ED00E029
:10F1200000380240FFFFF6FE1030002400C0000847
:10F13000FEE7000002490120096881F85400704789
:10F14000980000202DE9F0418AB00446FEF712F83D
:10F15000BCB32046FDF754FD0190D0E90012CDE983
:10F160000412876A056A01A8FDF758FD204600F0E1
:10F17000D1FA060025D0204600F00DF98046B807E8
:10F1800004D52A46414604A800F015FC2046FDF7A8
:10F1900037FD01904046FDF733FD06903046FDF700
:10F1A0002FFD039005620698019AC1691162C4613E
:10F1B00001A8FDF733FD06A8FDF730FD03A8FDF714
:10F1C0002DFDFEF7A7F90AB0BDE8F0812DE9FC5F3F
:10F1D0009846DDE90C5491460E460746DDF83CB0F2
:10F1E000FDF7C8FFDFF828A1DAF8180004434DB98D
:10F1F000BAF8020048B347480AF144010068407C6D
:10F2000051F82050681C0ED0FDB12846FDF7F8FCDF
:10F210000190B0F90010B0F902200F441644B9F182
:10F22000000F02D006E000250FE0B0F90430591AB3
:10F2300001F10109B8F1000F04D1B0F90600801AFC
:10F2400000F1010801A8FDF7E9FC0BF12C00FDF726
:10F2500036FC5FEA000B56D0BAF80200401CAAF850
:10F2600002005846FDF7CCFC0090078007EB09012F
:10F270004680491E818006EB0801491EC1800E9917
:10F280000161254A816A2240114381626846FDF787
:10F29000C5FCDAF810005E4650B1FDF7D7FC074612
:10F2A0003046FDF7D3FC0146786948617E6101E094
:10F2B000CAF810B02946584600F0C2FAA00602D596
:10F2C000584600F051F9E00704D0DAF82410491C40
:10F2D000CAF82410600602D55846FFF733FFA0078E
:10F2E0000DD55846FDF78CFC0090816A41F0020173
:10F2F00081626846FDF792FC584600F003F901214F
:10F30000584600F093FBFEF705F95846BDE8FC9F10
:10F3100020010020980000209F3F3F0010B50446C8
:10F32000C168D4E90020172A0DD004DC0E2A0CD0C5
:10F33000142A07D104E0222A0CD0282A02D10CE09A
:10F3400000F0A3F90020E06010BD2146BDE81040A8
:10F3500000F02CB96FF07040F5E7BDE8104000F008
:10F36000D1B80000034804490068407C51F82000EF
:10F3700070470000980000206401002010B50400D0
:10F3800007D0FDF7F7FE2046FDF760FCC469FEF7E5
:10F39000C1F8204610BD10B5040007D0FDF7EAFE05
:10F3A0002046FDF753FC8469FEF7B4F8204610BDF3
:10F3B0002DE9FF5F2C4D6878002853D100272B489A
:10F3C0002F616F630068DFF8A8903C464764AF8008
:10F3D0006F804FF0020A4FF0FF3B43F6FF7805F1D4
:10F3E00044062046FDF744FD98B1CDE90297CDE9EA
:10F3F00000BA0021424643460846FFF7E7FE1A4A94
:10F4000046F824004C326FF0704142F8241000F0AE
:10F4100079F8641C022CE4DB164FDFF85C80DFF81F
:10F420005C90002407EBC40000F0F8F808EBC4007F
:10F4300000F0F4F809EBC40000F0F0F8641C022CB2
:10F44000F0DB306800F090F8FFF774FE0120064909
:10F4500068703C310A48086004B00846BDE8F05FB7
:10F46000FEF7C4BABDE8FF9F2001002098000020ED
:10F4700025240108144100202441002034410020AB
:10F480005115010870B586B00D46060031D0FDF764
:10F4900071FE3046FDF7B4FB0090846AA10723D5C6
:10F4A000D0E90010CDE90110E00302D5304600F0AC
:10F4B0001DFA5DB1286803906868049003A900985C
:10F4C00000F0B4F803A901A8FEF7D8F9314601A865
:10F4D00000F0B4F840B140F601000440012C0AD01D
:10F4E00001A9304600F0FEF96846FDF797FBFEF7EC
:10F4F00011F806B070BD0098026A816901A800F099
:10F500005AFAF1E70021FFF7BDBFFEB515460E46DA
:10F5100004001CD0FDF774FB0246009090F8280010
:10F52000800711D5314601A8FEF7C5F960B16846DC
:10F53000FDF774FB2A4601A9204601F053FF20463F
:10F54000FFF71CFF04460CE06846FDF767FBFEBDB5
:10F550002A4601A92046FFF7D8FF2046FDF776FB93
:10F56000046A002CF4D1FEBD70B50446FDF702FE1E
:10F570000C4D2868866C0CB90B490C6984642046D4
:10F5800000F02CFAFFF7A0FA2046FDF75FFB296890
:10F59000B0F90020CA64B0F902000865FDF7BAFFAF
:10F5A000304670BD980000202001002070B50C008E
:10F5B00005460DD0FDF7DEFD2846FFF7ECFE18B13D
:10F5C0002146A56000F014FABDE87040FDF7A2BF27
:10F5D00070BD00000EB50E48006890F8541009B1D7
:10F5E0000C4811E0806CFDF70BFB0090D0E9001097
:10F5F000CDE901106846FDF711FB0748816A11B19A
:10F6000001A800F01BF801A802F01AF90EBD0000D5
:10F6100098000020944000202001002002490A6840
:10F620000260086070470000340100200B46B0F90A
:10F630000220B0F900101846FDF76EBE38B50C4632
:10F6400005462046FDF7DCFA0146009090F82800B8
:10F65000800703D46846FDF7E1FA12E02846FEF77A
:10F660000DF90098806920B104466846FDF7D6FA86
:10F67000E7E76846FDF7D2FA204600F039FB00289C
:10F6800001DA002038BD012038BD38B50C4600280D
:10F690000AD0002C08D0FDF7B3FA2146009000F004
:10F6A00004F86846FDF7BAFA38BD00224A800A809D
:10F6B00082880388D21A8A80C2884088101AC8803B
:10F6C000704710B5FFF767FE002802D0FDF7BEFABD
:10F6D000C06910BD0D4810B5006890F854000028AE
:10F6E00006D00B4C6069012803DD401E60610020DC
:10F6F00010BD2069401C206101F0A4FA18B1FFF789
:10F7000069FF012010BD6069EFE70000980000204C
:10F710008C40002070B50546FFF7D3FF08E0AC42EF
:10F7200001D1002406E0FDF791FA006AA84201D059
:10F730000400F4D1204670BD10B50446FDF786FAEA
:10F7400080690028F9D12046BDE8104000F0D0BA09
:10F75000F0B5384E074687B0306890F8541041B184
:10F76000354C6169491C6161012905DD012007B043
:10F77000F0BDFFF72FFFF9E7806CFDF741FA2F4D41
:10F780004FF0FF3100902161297821B18168029109
:10F79000C068039007E090F8281089073CD5D0E9AD
:10F7A0000010CDE902101FB1394602A8FEF766F835
:10F7B0003068406C78B3009804903068406C016801
:10F7C000059140680690A86A30B104A8FDF726FAB2
:10F7D000A86AFDF715FA049005A90498FFF726FF1B
:10F7E00005A902A8FEF74AF80DF11000FDF716FA78
:10F7F000A96A19B102A8FFF721FFB0B13068816C86
:10F8000002A8FFF71BFF80B1DDE90201C4E9000196
:10F81000FFF760FFABE706E06069401E6061684685
:10F82000FDF7FCF904E06846E0E76069401E6061AE
:10F8300000209CE7980000208C4000202001002040
:10F84000FEB50D00044647D0FDF7DAF9009000211F
:10F85000856101622846FDF7D3F900990290C569D8
:10F8600091F8281001F008062DB12846FDF7C8F9D7
:10F87000019036B115E0C4616846FDF7CFF902A8E2
:10F8800028E090F8280000070BD500980562029840
:10F89000C4616846FDF7C2F902A8FDF7BFF901A8E7
:10F8A00018E002A8FDF7BAF901A8FDF7B7F9284654
:10F8B000FDF7CCF911E004620BE02846FDF7C6F92C
:10F8C0005EB990F82810090707D5019804620098DE
:10F8D00005626846FDF7A2F9FEBD0190056A002D9C
:10F8E000EBD1E8E7202201F07DBD000038B504002F
:10F8F00022D0FDF785F9009090F82810890718D5D7
:10F90000406A40B10D49C96AA14204D0FDF768FCC4
:10F910000099002048622046FFF730FD044606E0CB
:10F920002046FFF7E3FF2046FDF790F9046A002C1C
:10F93000F6D16846FDF772F938BD000020010020BD
:10F940002DE9FF419846164607460D0031D008467E
:10F95000FDF756F90090846A0246A00726D539467D
:10F9600001A8FDF7A8FF08B340F601000440012CF0
:10F9700007D0424601A9284601F034FD0098C46929
:10F9800012E000984346026A816901A8FFF7D8FF98
:10F99000F4E7B4420AD0424601A92046FFF7B5FD7C
:10F9A0002046FDF753F9046A002CF2D16846FDF7B2
:10F9B00035F9BDE8FF812023FFF7C2BFB0F9001081
:10F9C000B0F90420914205DCB0F90210B0F906004C
:10F9D000814201DD002070470120704710B5FFF71C
:10F9E000ABFE002803DBBDE81040FDF7CDBC10BD29
:10F9F00070B50D4C06460D46206814280DDA3046C9
:10FA0000FDF724F901696E6041B12068401C206057
:10FA1000284688472068401E206070BD2846BDE803
:10FA20007040FFF77BBC0000BC0100201FB5CDE992
:10FA300000106946FFF7DCFF1FBD00002DE9F04113
:10FA4000214D0C460646E968A86B0844A119401EE2
:10FA5000814206D80846096819B941680E4401F088
:10FA600075FEA86BA0420AD254F8040C271A386815
:10FA700028B978680644384601F068FE3C463046AE
:10FA800001F084FB10281CD205EBC0073246002190
:10FA900020467B6C02F013F957F8440F083400B18C
:10FAA00044602060002060603C602868304428602A
:10FAB00095F8291029B9E968081AA968814200D285
:10FAC000A8603046BDE8F081503F00202DE9F041AC
:10FAD000054601F033FC2A48046CAC4202D8ED1C08
:10FAE00025F00304804600680C34A04202D20020B6
:10FAF000BDE8F08101F046FD071EF9D0204601F077
:10FB000045FB414630E000BF01EBC002526C52B3EE
:10FB1000956845B36B68A34206D2AA681AB3956884
:10FB20000DB36B68A342F8D3D8F84000191B0C3012
:10FB30001E46814200D23446284601F007FE0421C9
:10FB4000D8F8340001EBC70100234550224639465E
:10FB5000284602F0B4F8A64203DD2919301BFFF74E
:10FB60006DFF3846C4E7401C1028CDD3204601F075
:10FB700007FE0028C2D0384601F024FDB7E7000098
:10FB8000503F002001207047F0B50B4DDFF82CC02E
:10FB900010C855FA84F6C4F30727C4F3074436782F
:10FBA0001CF807702C5D06EB471606EBC4240C808E
:10FBB0001944521EECD1F0BD6C5401086C5501087B
:10FBC0002DE9F0478146FEF7DBFD4FF000080746C0
:10FBD0006FF07F444546FEF7EBFD060018D000BFEE
:10FBE00056F82510494502D12846BDE8F0876D1C1E
:10FBF000BD42F5DB5FF00005484656F82510FDF7DD
:10FC000031F8A04201D20446A8466D1CBD42F3DB88
:10FC10004046EAE710B5084A52FA80F1074BC0F3B4
:10FC20000724C0F3074009781B5D105C01EB43110A
:10FC300001EBC02010BD00006C5401086C55010898
:10FC40002DE9F05F9A46DDE90A8791460C460546A4
:10FC50008B46164635F8020B41468847B84701C423
:10FC6000761EF7D15046BAF1200F06D20246494619
:10FC70005846BDE8F05FFDF7A9BCBDE8F09F2DE94F
:10FC8000F05F9A46DDE90A8791460C4605468B46A9
:10FC9000164615F8010B41468847B84701C4761E41
:10FCA000F7D15046BAF1200F06D2024649465846CF
:10FCB000BDE8F05FFDF78ABCBDE8F09F41884FF4D6
:10FCC000FC63C1F3C402007803EA51110A4300F057
:10FCD000F80042EA0020704781784278C90892080B
:10FCE000007841EA4211C00841EAC0207047000094
:10FCF0000146064A002000BF52F820308B4204D053
:10FD0000401C0228F8DB4FF0FF30704764010020F0
:10FD1000F7B51546184A01A9009812689047174C84
:10FD200000902068406920B12946FDF704FB0028B7
:10FD300021D00120FDF7E8FD2068C069406920B1AD
:10FD40008268DDE90001904712E00D4D0CE0684645
:10FD5000FDF78CFB06462068C0690168304688477D
:10FD6000296809B1304688470198401E0190EED5B8
:10FD70000020FDF7C9FDFEBD9C0100209800002079
:10FD8000B80000202DE9FF4F85B08346DDE91390D0
:10FD9000129ED0E900A0DBF8085003904A488C1965
:10FDA0001F4600684FF08008007C10F0030006D06A
:10FDB000012869D002281BD0032816D164E03878C6
:10FDC00028FA06F1084201D0039800E05046D5F821
:10FDD000301180B28847761C082E01D100267F1C86
:10FDE000A9F101005FEA0009E9D109B0BDE8F08F8F
:10FDF0004FF0000ACDF808A0D5F86CB0019439781E
:10FE000028FA06F0014202980BD020B90120CDE972
:10FE10000140D5F86CB003982BF8020B0AF10100F1
:10FE200012E0012811D1631E002002900798009073
:10FE30000246D5F8A8C028460199E047D5F83821F0
:10FE40005146E86E904700208246641C761C082EBE
:10FE500001D100267F1CA9F101005FEA0009CED183
:10FE6000BAF1000FC1D00798631E00900246D5F882
:10FE7000A84028460199A047D5F83821E86E09B076
:10FE80005146BDE8F04F1047397828FA06F0014294
:10FE90000DD0D5F8EC3021465846079A9847AB6A02
:10FEA000D5F8F0C0434021465846079AE047641C05
:10FEB000761C082E01D100267F1CA9F101005FEA03
:10FEC0000009E1D191E70000980000202DE9FF5FD3
:10FED0009046DDE90E924D4B99F80050C2F10804AE
:10FEE0008A465D5DDDE91071D540494A139E12686E
:10FEF000127C12F0030226D0012A03D0022A37D046
:10FF0000032A72D10069806880471FFA80FBBC42D7
:10FF100000D93C463F1BBAF1000F68D0E8070AD071
:10FF2000DAF808004146039A03685046984731883A
:10FF300081EA0B0131806D0808F10108641E06F1A9
:10FF40000206EBD15EE0314ABC4200D93C463F1B81
:10FF500005F001006D0831F8200026F8020B641E40
:10FF6000F6D1002F50D019F8010F0824155CEBE7EB
:10FF700088881FFA80FBBC4200D93C463F1BBAF17F
:10FF8000000F17D095B1E80708D0DAF8080041460D
:10FF9000039A036850469847A6F800B008F1010894
:10FFA000641E06F1020612D06D08EBE706EB44066C
:10FFB000A0440CE04DB1E80701D0A6F800B0641EE3
:10FFC00006F1020603D06D08F4E706EB4406002FA5
:10FFD0001AD019F8011F0D480824455CCBE719F821
:10FFE000011F0A480824455C91E70DE0FFE7E80798
:10FFF00003D0308880EA0B0030806D08641E06F163
:020000040801F1
:100000000206F4D1002FEAD1BDE8FF9F2C5E010863
:10001000980000202DE9FF4F85B08668DDE9125772
:1000200014989B4600283AD03F489BF800904C1902
:1000300000684FF0C008007C10F0030016D00228C2
:100040002DD14FF0000ACDF80CA0F06ECDE90140A3
:10005000C5F103004100C1F1060228FA02F000EAEE
:100060000900C8402ED00399E1B120E0C5F103009A
:100070004100C1F1060228FA02F000EA0900C84076
:10008000149931F82000D6F8301180B288476D1CE1
:10009000042D02D11BF8019F00257F1EE6D109B077
:1000A000BDE8F08F012101940391F16E0291149942
:1000B00031F82000029908800298801C02900AF111
:1000C000010013E00398012811D1631E0020039062
:1000D000079800900246D6F8A8C030460199E0473C
:1000E000D6F838215146F06E904700208246641CB5
:1000F0006D1C042D02D11BF8019F00257F1EA7D186
:10010000BAF1000FCBD00798631E00900246D6F8D4
:10011000A84030460199A047D6F83821F06E09B0C2
:100120005146BDE8F04F1047980000202DE9FF5FD1
:100130008B460FA9DDF8388091E82104C0F1040155
:10014000CCB298F80010400081402F48129F914691
:100150000068CEB2007C10F0030004D001283AD031
:1001600002284FD114E0AC4200DDECB22D1BB109E6
:100170003AF8210027F8020BB006060E641E14F0B0
:10018000FF04F4D1002D3DD0042418F8016FEAE7F4
:10019000AC4200DDECB22D1BB0090DD0B109BBF1B2
:1001A000000F3AF82100388006D0DBF808004946F5
:1001B000039A036858469847B006060E641EBF1C93
:1001C00009F1010914F0FF04E6D1002D1AD004242E
:1001D00018F8016FDCE7AC4200DDECB22D1BB00972
:1001E00003D0388880F0FF003880B006060E641E09
:1001F000BF1C14F0FF04F2D1002D03D0042418F822
:10020000016FE8E7BDE8FF9F980000202DE9FF4F50
:1002100085B08668DDE9125714989B4600283AD0CD
:100220003F489BF800904C1900684FF0F008007CA4
:1002300010F0030016D002282DD14FF0000ACDF89F
:100240000CA0F06ECDE90140C5F101008100C1F1C3
:10025000040228FA02F000EA0900C8402ED00399EF
:10026000E1B120E0C5F101008100C1F1040228FAEA
:1002700002F000EA0900C840149931F82000D6F8CD
:10028000301180B288476D1C022D02D11BF8019FEE
:1002900000257F1EE6D109B0BDE8F08F0121019451
:1002A0000391F16E0291149931F8200002990880AF
:1002B0000298801C02900AF1010013E003980128C3
:1002C00011D1631E00200390079800900246D6F8D3
:1002D000A8C030460199E047D6F838215146F06E63
:1002E000904700208246641C6D1C022D02D11BF831
:1002F000019F00257F1EA7D1BAF1000FCBD0079830
:10030000631E00900246D6F8A84030460199A047E7
:10031000D6F83821F06E09B05146BDE8F04F1047CD
:10032000980000202DE9F05F92460BAA894692E8DA
:1003300042010A9F9B468B003A78C1F102009A4025
:10034000D5B24F4A0E9CC0B21268127C12F0030262
:100350001BD0012A7CD0022A3AD1D9B328090DD06A
:100360002909B9F1000F38F82100208006D0D9F80A
:1003700008005A465146036848469847A41C0AF1AB
:10038000010A17F8015F761E4CE039B12909761E83
:1003900038F8210024F8020B17F8015F022E11DB58
:1003A000701006F001062A09401E38F8221005F0E8
:1003B0000F0224F8021B38F8221024F8021B17F849
:1003C000015FF0D1002E03D0290938F821002080E8
:1003D000BDE8F09F26E028090DD02909B9F1000FEA
:1003E00038F82100208006D0D9F808005A46514636
:1003F00003684846984715F00F000DD038F82000E4
:100400006080B9F1000F07D0D9F808005A460AF108
:10041000010103684846984717F8015F241D0AF157
:10042000020AB61E022ED6DA002ED1D02809CFD06D
:1004300038F820002080B9F1000FC9D0D9F80800A1
:100440005A46514603684846BDE8F05F1847FFE743
:10045000B04200DDF0B2361AA90903D0218881F03C
:10046000FF01218029070D0E401EA41C10F0FF0083
:10047000F2D1002EACD0022017F8015FE8E70000AF
:10048000980000202DE9FF4F83B08568DDE9107BDF
:100490001E460C465FEA0B0020D02E480068007C08
:1004A00010F0030018D0022818D14FF00008D5F83A
:1004B0006C90C246CDF8044016F8010BE8B1BAF1D1
:1004C000000F0ED012E03078D5F830113BF8200044
:1004D00080B28847761C7F1E002FF4DC07B0BDE891
:1004E000F08F0194D5F86C904FF0010A3BF8200092
:1004F00029F8020B08F1010013E0BAF1010F11D144
:10050000059800900246D5F8A8C0631E4FF0000A77
:1005100028460199E047D5F838214146E86E9047D2
:1005200000208046641C7F1EC6D1B8F1000FD5D0D4
:100530000598631E00900246D5F8A8402846019908
:10054000A047D5F83821E86E07B04146BDE8F04F26
:1005500010470000980000202DE9F04387B089463D
:100560000EA991E8F01181688DE8F011D1F8E4400E
:100570004946A04707B0BDE8F08300002DE9FF4FD2
:1005800083B099460398DDE91075DDE9138B866821
:100590009246012D05D0022D03D0042D01D0082D47
:1005A00006D132480068007C00F0030002280ED01B
:1005B0000AEB0700401E00900498D6F8A84000EB14
:1005C0000B0101EB0903524630465B1EA047002495
:1005D00046E0042D24D004DC012D07D0022D3CD1AF
:1005E00011E0082D29D0102D37D131E01598CDF824
:1005F00000B0CDE90190DDE9030104EB0A024346B6
:10060000FFF7C0FB29E01598CDF800B0CDE90190C7
:10061000DDE9030104EB0A024346FFF7FBFC1CE0A3
:100620001598CDF800B0CDE90190DDE9030104EBA8
:100630000A024346FFF7EAFD0FE0159804EB0A02B1
:10064000CDE90090DDE903014346FFF71BFF04E01D
:10065000D6F838214946404690471299641C884490
:10066000BC42B6DB07B0BDE8F08F00009800002068
:100670002DE9FF4F8FB0A448DDE91F860068DDE952
:100680001C970C46006EFCF7BBFA0790406908B156
:10069000FCF7B6FA0A900798C0680C9007A8FCF718
:1006A000BDFAA01910900A9858B197490968097CB9
:1006B000890706D110ACCDF8009094E80E00FCF745
:1006C000FFFEDDE9100101F043FE0446102F03D0C8
:1006D000182F5DDB002057E000251EE0DDE910B09B
:1006E0002844DDF828A00190129E5FEA0801204608
:1006F0000ED068B17200FBF7C1FDBAF1000F07D050
:10070000DAF808003346594647685046019AB84718
:100710001E990C98884404446D1C4D45DEDBEAE0CC
:100720000A980390DDE910B10698DDF848A0084466
:1007300001905FEA0805264620D0FEB1039830B14B
:100740008068534659464768019A0398B8470F99FD
:1007500028680969096888473080039828B180684B
:100760005946019A0368039898472D1DAAF1010084
:10077000B61C0BF1010B5FEA000AE8D10C981E9938
:10078000044406988844401C06904845C8DBB2E003
:10079000082F02D02198C0B365E000205DE02198C9
:1007A000129F00280A980290DDE910A0584445469F
:1007B00000902BD021980490534826460068007C76
:1007C00010F0030002D0022841D109E015F8011B06
:1007D00004987F1E30F8210026F8020BF6D136E08F
:1007E000287858B1049931F820003080029828B157
:1007F00080685146009A0368029898476D1CB61CA1
:100800000AF1010A7F1EEBD121E02AE03E4826468C
:100810000068007C10F0030002D0022817D105E028
:100820003A4641462046FBF729FD10E0287840B1C2
:100830003080029828B180685146009A0368029877
:1008400098476D1CB61C0AF1010A7F1EEED10C9868
:100850001E99044488440BF10100834648459EDB01
:1008600049E02A482190002543E03846012F04D072
:1008700002281CD0042F37D128E023480068006EDE
:10088000FCF7BEF9CDF800800790219A12990594E3
:10089000CDE90320CDE9016111980A992B18DDE912
:1008A0000F02FFF713FB07A8FCF7B8F91CE021982B
:1008B0001299CDE90210CDE90086119804942B1805
:1008C000DDE90F020A99FFF731FC0DE0219812993A
:1008D000CDE90210CDE90086119804942B18DDE9CA
:1008E0000F020A99FFF71EFD1E986D1C80440C989C
:1008F00004444D45B9DB0A98002802D00AA8FCF749
:100900008DF913B0BDE8F08F98000020A05D0108BC
:1009100038B584680092D4F8E840A04738BD08B5DF
:10092000009200F039F908BD38B5846800930B4691
:10093000D4F8E840A04738BD2DE9FC47DFF8AC808B
:1009400081461E46D8F8000015468A46006EFCF720
:1009500057F90190406908B1FCF752F90090294617
:10096000504601F0F5FC04460198C768D8F800002D
:10097000017CC90715D0D9F810008068804787B27C
:10098000009820B181682A460B6851469847208814
:100990006D1C784020800198B542C0680444EFDDAA
:1009A00019E0C06B0168009870B11FFA81F80098D7
:1009B0002A4681680B6851469847A4F800806D1C50
:1009C0003C44B542F3DD06E0701B89B2401C218037
:1009D0003C44401EFBD101A8FCF720F900980028F8
:1009E00002D06846FCF71AF9BDE8FC8798000020A1
:1009F00001700120704700002DE9F047234C0427C7
:100A0000E06AD8B1206907EBD0014518E800FFF78C
:100A10005DF8060037D0616B07EBC600B9460F588A
:100A200020690837C2003846D4F82C80FBF726FC32
:100A30006763E66249466A1E20690EE01348C030CB
:100A4000D0E901100830B1FBF0F5AD1CDEE7666BB4
:100A5000431C01EBC007401CF3519042F7D3636B7A
:100A600009EBC00000221A50206960626168281AF0
:100A7000084425616060B8F1000001D0FCF73EF841
:100A80000020BDE8F0870120FBE70000503F002078
:100A900038B58468049D0095D4F8E840A04738BD77
:100AA0002DE9FF4F83B03B4F03988B461646856870
:100AB0003868DDF840809946007C1946C207A3EBF0
:100AC0000B0A35D139E000BFD5F8C470EC6E3FB1E8
:100AD000CDE900644B46324659460398B8470DE0CD
:100AE0005F4608E0D5F8EC3032463946039898471F
:100AF00024F8020B7F1C4F45F4DDEC6E0AF1010077
:100B000005E021882A8D514024F8021B401E002850
:100B1000F7D10096D5F8A8404B46324659462846AC
:100B2000A047D5F838210AF10101E86E9047761CFC
:100B30004645C9DD07B0BDE8F08FA8EB06000AF115
:100B40000104401CCDF8008044430B46D5F8A8C0F2
:100B5000324659462846E04738680127D5F868905C
:100B6000C06BD0F8008011E02646FA2C00D9FA2696
:100B700037B100271FFA88F132464846FCF764FF78
:100B8000D5F83821314648469047A41B002CEBD1BC
:100B9000D0E70000980000202DE9FF4FDFF8A0A06B
:100BA0000C4685B0DAF80000DDF848801F46C16BBE
:100BB000154609680391006EFCF722F8019029465A
:100BC000204601F0C5FB06460198391B01F1010BD7
:100BD000D0F80C90406950B3FCF712F8A8EB05016F
:100BE000491C00915B462A4602902146FCF768FCAE
:100BF00002A8FCF713F81AE0DAF80000007CC0073E
:100C00000DD005985F46344600698068804780B201
:100C10002188414024F8021B7F1EF9D105E003988A
:100C20005A4681B23046FCF70FFF4E446D1C4545D5
:100C3000E2DD01A8FBF7F2FF09B0BDE8F08F00008C
:100C400098000020FEB54F4CD4E90201CDE9000127
:100C5000206970B3A089401C00B2ADF80000618922
:100C6000ADF80210B4F90410884207DD2088ADF811
:100C70000000E08910F10100ADF80200BDF90200AA
:100C8000B4F90610884274DC3F4D2868806CFBF78D
:100C9000B7FF0290BDF90000B4F90010884220D1DE
:100CA000E088ADF80600A088ADF804002868806CE4
:100CB0000FE0FFE72088ADF800006088DCE700BFA8
:100CC000FBF7C4FF0646006A0022694600F0D5F82B
:100CD000B0690028F4D1029800226946C06900F08A
:100CE000CCF8BDF80000ADF804002868806C0AE07C
:100CF000FBF7ACFF0646006A0022694600F046F8A2
:100D00000028EED1B0690028F2D10298002269468D
:100D1000C06900F03BF80028E3D1B4F90400BDF944
:100D20000010ADF80400884207DADDE90001C4E9EB
:100D3000020102A8FBF772FF98E72868806C08E0C0
:100D4000FBF784FF0546006A0022694600F05CF864
:100D5000A8690028F4D1029800226946C06900F011
:100D600053F802A8FBF75AFF206944F62061884235
:100D700001DD0020FEBDDDE90001C4E90201012022
:100D8000FEBD00008C40002098000020FEB51746F4
:100D90000E460546002433E02846FBF731FF00905D
:100DA000856A0146A80726D527B13A4601A8FCF76F
:100DB00082FD03E0D1E90001CDE9010101A930463E
:100DC000FCF7B9FAB8B1E80702D00098C56910E09D
:100DD000BDF80800401C308001240CE001AA314617
:100DE0002846FFF7D3FF00B101242846FBF72EFF6A
:100DF000056A002DF2D10098056A6846FBF70EFFE0
:100E0000002DC9D12046FEBDFEB516460D4604464E
:100E100030E02046FBF7F4FE0090846A0146A0070C
:100E200023D526B1324601A8FCF745FD03E0D1E900
:100E30000001CDE9010101A92846FCF77CFAA0B127
:100E4000E00702D00098C4690DE0BDF80400401E20
:100E5000A8800AE001AA29462046FFF7D5FF2046D0
:100E6000FBF7F4FE046A002CF4D10098046A68468B
:100E7000FBF7D4FE002CCCD1FEBDFEB516460D46C8
:100E800004464AE02046FBF7BBFE0090846A014618
:100E9000A0073DD526B1324601A8FCF70CFD03E0C2
:100EA000D1E90001CDE9010101A92846FCF743FA87
:100EB00010B3E00702D00098C46927E000983EB163
:100EC000B0F90210B6F90200814203DD084601E0E4
:100ED000B0F90200B5F90210814207DABDF9060047
:100EE000B5F90610401E05E0E88011E0BDF90A00E2
:100EF000B5F906108842F7DB0AE001AA2946204628
:100F0000FFF7BBFF2046FBF7A1FE046A002CF4D1DB
:100F10000098046A6846FBF781FE002CB2D1FEBD42
:100F200000787047012070478068012901D00020B7
:100F30007047406C70470000012901D000207047C5
:100F400000487047E05D01080D291CD008DC01292C
:100F500014D00A290CD00B290CD00C2906D10BE097
:100F600016291AD0172913D0182918D00020704735
:100F70000C4870470C4870470C4870470068806800
:100F8000D0F8FC00704700688068D0F8F400704723
:100F900000688068D0F8F800704705487047054839
:100FA000704700006D10010859100108C90F0108B1
:100FB000AD18010819100108162901D0002070474A
:100FC0000048704783D2000870B50546FBF72AFB3E
:100FD0004FF4FA70AC68FBF7BBFDA066A16B20680C
:100FE000C91DC9104843FBF7B3FDE066002201218B
:100FF000A869FDF72FFE0546D4F80811204688475A
:10100000D4F8B01020468847002D01DD012070BDC6
:10101000002070BD70470000F8B50D4DDDE9066792
:101020008468286867B1002809D10096D4F8A860C0
:101030002046B04754F8A80F286006482060F8BD45
:101040000028FCD0C4F8A80000202860F8BD0000EB
:10105000C40000201510010870B515460C46064660
:10106000FBF7E0FAB068C0E9004570BD70B5154601
:101070000C460646FBF7D6FAB068C0E9024570BDDB
:1010800080680F292CD2DFE801F02B080A0C0E2B08
:101090002B2B10121414161D240000687047406892
:1010A000704780687047C0687047806B7047002049
:1010B0007047012070470028FCD090F8340000F001
:1010C000010070470028FCD090F83400C0F34000C5
:1010D00070470028FCD090F83400C0F380007047BF
:1010E0004FF0FF30704770B500240D46022807DA34
:1010F000FBF7BEFE20B1C1688A6A294690470446C4
:10110000204670BD006810B1C268926A10474FF067
:10111000FF30704710B5FDF733FBB0F5807F03D08B
:10112000802803D307211AE0082118E0402801D3C2
:10113000062114E0202801D3052110E0102801D356
:1011400004210CE0082801D3032108E0042801D37E
:10115000022104E0022801D3012100E00021012046
:101160008840401E10BD4FF6FF70704770B50024D8
:101170000646012531462846FFF7B5FF844200DACE
:1011800004466D1EF6D5204670BD00000146054A96
:101190000F2000BF02EBC0031B6C8B4201D9401E25
:1011A000F8D57047503F00208368D3F8EC301847DB
:1011B00010B50846114601F0CBF8008810BD8068D4
:1011C00000220A804A800288521E8A808088401E3F
:1011D000C880704738B50C468068FBF711FD009059
:1011E00081882180C1886180818802891144491EDB
:1011F000A180C18840890844401EE0806846FBF712
:101200000DFD38BD70B500240C4D0CE0FCF797F9CE
:101210002A69C4EB041152F83110814201D12046F1
:1012200070BD29B1641CA8688442EFDB002070BD4A
:10123000C4EB041142F83100F1E70000E80000209F
:101240000249096848840020704700009800002087
:101250000249096888840020704700009800002037
:10126000F0B5541E04FB030401EB82000C4DDFF8C3
:1012700034C0001F2188E41A01F01F06C1F345178E
:1012800005EBD121AE5D1CF80770097806EB072647
:1012900006EB014140F80419521EEBD1F0BD0000ED
:1012A0000C5401082C54010870B50446FDF768FA87
:1012B0000546FDF77DFAAC4201D3002070BD002841
:1012C000FCD050F8240070BD70B5194D0446E86894
:1012D000011DC0E90E010064091D6161417C05F139
:1012E000240050F82100C1680A6B04F108019047FE
:1012F00010486066A868E061E86808306061012015
:101300002076FEF72FF8A064032084F868006FF0C1
:101310007040206360630020FDF7ACFB6FF07F40FE
:10132000FDF7E0FB04482861BDE87040FBF764BBB3
:101330008C000020303701086C56010870B5264C2F
:1013400094F82800002846D1012604F1C00584F84D
:10135000286069684FF42050814200D9014628680E
:1013600000F02AFCA86810B968688008A8601C49C9
:101370001A4808600846FCF739FB5A202062002012
:101380005FF0100101FA00F204EBC003401C1A6484
:101390001028F7D3D5E9001288181438C4E90D01D4
:1013A000022300200421C4E9032305E0636B421CEF
:1013B00001EBC005401C5A512269521E8242F5D8E9
:1013C00066622069401E6060A16BE068FEF736FB34
:1013D000FFF712FB266370BD503F0020C9140108BF
:1013E00084000020FEB514460D460646FBF72EFC91
:1013F0000090836A980731D52846FEF7DFFA002867
:101400002CD040F601000340012B27D03046FBF7DB
:10141000F7FB02460090294601A8FCF74CFA01A808
:10142000FEF7CCFAB8B1009944F22002886A104263
:1014300005D0083101AA0846FBF742FF0BE0DDE9C1
:10144000012320438862C1E9022305498888401CA2
:101450008880FBF7FBFF6846FBF7E0FBFEBD000062
:101460002001002008467047104670470846704724
:10147000104670470068401A401E70474068801A46
:10148000401E70470068401A401E70474068801A2E
:10149000401E704710467047084670474068801AE3
:1014A000401E70470068401A401E70471046704743
:1014B000084670474068801A401E70470068401A0E
:1014C000401E7047704700000B4910B5002081F89E
:1014D00028000146084880224030FCF78FFAC022DD
:1014E00000210548FCF78AFA03480C220021BDE8D8
:1014F0001040C030FCF782BA503F0020084910B5B8
:1015000000208861014670220648FCF777FA0448FB
:1015100008220021BDE810402430FCF76FBA00001B
:101520008C0000201C40002010B5034C2069FBF704
:1015300003FB0020206110BDE800002010B5034C23
:101540006068FBF7F9FA0020606010BD0801002018
:101550000B4A10B5002151709163084602F15C04FA
:1015600002F15403C2F8141044F8201043F820107C
:10157000401C0228F8D3516291629161116210BD42
:101580002001002010B50E4C6168206B814209D803
:10159000401E2063FFF730FA216B491C216308B11C
:1015A000002010BD60680422401E6060606A616BAC
:1015B00002EBC0028A586262012201F8302010BD9D
:1015C000503F0020084910B54A680424521C4A6064
:1015D0004B6B04EBC0044A6A1A514B6B002203F8B0
:1015E0003020486210BD0000503F0020D0F8B410F9
:1015F0000847016CD0F8D420896908461047016C6F
:10160000D0F8D8208969084610471FB50446D0F89D
:101610002C112E208847216AD4F848216846891C5D
:101620009047206A694601EB4000FEF747FB04B093
:1016300010BD1CB50446D0F80C112E208847216A35
:10164000D4F828216846C91C9047206A6946084496
:10165000FEF742FB1CBDF8B55D1ADDE90667B41A5A
:10166000641C6D1C6543846800962046D4F8A8600D
:10167000B047206CD4F8DC302A46806901B0394686
:10168000BDE8F0401847F8B55D1ADDE90667B41A01
:10169000641C6D1C6543846800962046D4F8A860DD
:1016A000B047206CD4F8E0302A46806901B0394652
:1016B000BDE8F0401847F0B585B08468DDE90A76EA
:1016C000B81A5D1A401C6D1C00974543D4F8A870E9
:1016D0002046B847D4F82C112E208847D4F848214A
:1016E00001A8216A9047D4F84821022101A8904717
:1016F00001A8FEF7E3FA26F8020B6D1EF3D105B040
:10170000F0BDFEB58468DDE90876B81A5D1A401CA4
:101710006D1C00974543D4F8A8702046B847D4F80C
:101720000C112E208847D4F8282101A8216A90475F
:10173000D4F82821032101A8904701A8FEF7CCFA8C
:1017400026F8020B6D1EF3D1FEBD000010B5044655
:101750004068FFF71BFD10280DD2084963680A682E
:10176000D21A0A6001EBC002D4E90201443200B18E
:10177000416009B1086010BD106010BD503F0020ED
:101780002DE9F05FDFF894808346D8F83840D8F828
:101790000C10601E0F182046D0E90015B9BB661961
:1017A000BE4236D2D6E9001989B3D8F8343013F8DE
:1017B0003130012B2DD1D8F82C20914201D10121BB
:1017C00000E000218A46FFF7C1FF3068D8F83410E6
:1017D000042202EBC0004A460C5031462046FAF77C
:1017E0004DFDBAF1000F05D0D8F83410321B891A1C
:1017F000C8F8341004EB09012846FEF71FF9BBF1C5
:10180000000F05D0834503D80020BDE8F09F00E01D
:101810004D462C44BC42BED30120F6E7503F002089
:10182000064910B509684A6B824206D04863FCF746
:10183000F7FDBDE81040FDF723B910BD980000206A
:101840001FB504460F480168486C38B1026802921F
:10185000406803900C48806A18B901E020460EE009
:10186000886CFBF7CDF902A90090FDF7DFFE684612
:10187000FBF7D4F9214602A8FCF700F802A8FDF70F
:101880000BF91FBD9800002020010020064910B56B
:1018900009680A6B824206D00863FCF7C1FDBDE807
:1018A0001040FDF725B910BD9800002070B5144612
:1018B0000D460646FAF7B6FEB068002810D0262D71
:1018C0000FD0272D0CD1826B0021102A1CD0122A98
:1018D00006D114B11149C0F8E04040F8CC1F416076
:1018E00070BD816B102907D01229F9D10C49C0F8BD
:1018F000D84040F8BC1FF2E70A49C0F8B810C0F859
:10190000D440C0F8B41070BD14B10749C0F8DC4031
:10191000C0F8C810C0F8C41070BD000087160108D8
:10192000FF150108F31501085716010830B50949DC
:101930000B681A7C82EA0004640707D59C6BDB6B9A
:1019400025681B6823600B68DB6B1D6009680874E1
:10195000104630BD98000020082907D0102904D176
:10196000054940F88C1F054941607047044940F81B
:101970008C1F0449F8E70000951B0108AD1C010805
:101980009D1B0108B51C01081CB5CDE9001280693A
:101990006A460321FDF75EF91CBD0068002802D0ED
:1019A000C3681B6A184770471CB50BA10446D1E9F0
:1019B0000001CDE90001D4F88C2036212046904763
:1019C000A08CD4F8902020F0E001606B1DF800009E
:1019D0000143204690471CBD004080C02060A0E02D
:1019E00070B515460E46D0F88C2004462A21904743
:1019F000E06AD4F890203044C0F30F21204690478D
:101A000094F82C00D4F890203044C1B2204690477E
:101A1000E06AD4F890203044C0F30F21204690476C
:101A200094F82C00D4F890203044C1B2204690475E
:101A3000D4F88C202B2120469047206BD4F890209E
:101A40002844C0F30F212046904794F83000D4F882
:101A500090202844C1B220469047206BD4F89020B3
:101A60002844C0F30F212046904794F83000D4F862
:101A700090202844C1B2204690472046D4F88C20BC
:101A8000BDE870402C21104730B48468D4F8F04091
:101A9000A44630BC604700007CB510481C46154683
:101AA00000680E46006EFBF7ABF801902946304601
:101AB00000F04EFC04800198406950B1FBF7A0F89B
:101AC000009081682A460B68314698476846FBF7C4
